:03000000020003F8
:0C000300787FE4F6D8FD75816902004AA0
:10008F0002080EC020200A0000000000000000003F
:10009F000000000000000000000000000000000051
:1000AF000000000000000020202A000000000000D7
:1000BF000000000000000000000000000000000031
:1000CF000000000000000000000020204A00000097
:1000DF000000000000000000000000000000000011
:0D00EF000000000000000000000000000004
:1001A300E4FFEF24E8FDE43403FCEF25E0240AF840
:0901B300A60408A6050FBF10E91F
:0101BC002220
:1001BD0075865AAF018F9775960E7595C043950A42
:0401CD0075945A22A9
:10013D00E4FFEF25E024C0F582E4340EF583E4936B
:10014D00FC740193FDEF25E0242AF8A60408A6050A
:04015D000FBF10DEE2
:01016100227B
:1000FD00E4FD78080806E618860670010614F582F8
:10010D008E83E4937F00FE78080806E61886027059
:10011D00010614F5828A83E4937A002FFFEA3EFEEE
:0F012D00ED25E0244AF8A60608A6070DBD10C36D
:01013C0022A0
:100185001201621201A37B007A00790A1201BD12E5
:0E019500013D000000001200FD75865A80FB3F
:1001620075E50775E669758E3075865AE4F580F592
:10017200F975F1FFF590F5FA75F2FFF5A0F5FB754B
:03018200F3FF2266
:0A0FF600FFFFFFFFFFFFF65AA55FA3
:10000F00020185E493A3F8E493A34003F68001F281
:10001F0008DFF48029E493A3F85407240CC8C333F2
:10002F00C4540F4420C8834004F456800146F6DFC1
:10003F00E4800B010204081020408090008FE47EC2
:10004F00019360BCA3FF543F30E509541FFEE493B6
:10005F00A360010ECF54C025E060A840B8E493A37D
:10006F00FAE493A3F8E493A3C8C582C8CAC583CAA8
:10007F00F0A3C8C582C8CAC583CADFE9DEE780BE60
:0100FC000003
:00000001FF
