:0300000002011EDC
:10011E0078FFE4F6D8FD9000007F007E04E4F0A3A3
:0A012E00DFFCDEFA7581D2020173D6
:0A0FF600FFFFFFFFFFFFF65AA5AF53
:1000030075E50775E669758E30E4F580F5F975F1E8
:10001300FFF590F5FA75F2FFF5A0F5FB75F3FF1206
:07002300021975865A80FBEB
:1000460020646F00000000000000000000000000B7
:10005600000000000000000000000000000000009A
:10006600000000000000000000000000000000008A
:10007600000000000000000000000000000000007A
:10008600000000000000000000000000000000006A
:10009600000000000000000000000000000000005A
:1000A60000000000000000016D0020640901020349
:1000B6000405000000000000000000000000000031
:1000C600000000000000000000000000000000002A
:1000D600000000000000000000000000000000001A
:1000E600000000000000000000000000000000000A
:1000F60000000000000000000000000000000000FA
:1001060000000000000000000000000000000000E9
:0701160000016E000108006A
:1002190053F9E743F11875DCC075DE0575DF047520
:10022900DE0475DF4543DE80D2B8D2AF75DBC0434B
:03023900DC0422C0
:030043000201B8FF
:1001B800C0E0C0D075D000C000C007AFDDEF24A0FC
:1001C800602624F0602224F0602324F0601F24D8E5
:1001D800600924107023756E008000AF6E056E7480
:1001E800092FF8E6F5DA801A756D008015AF6D05F0
:1001F8006D746F2FF8A6DA8009756D00756E00535F
:10020800DCCF43DC0453DCF7D007D000D0D0D0E0FB
:0102180032B3
:10013800020003E493A3F8E493A34003F68001F2DA
:1001480008DFF48029E493A3F85407240CC8C333C8
:10015800C4540F4420C8834004F456800146F6DF97
:10016800E4800B0102040810204080900046E47EE1
:10017800019360BCA3FF543F30E509541FFEE4938C
:10018800A360010ECF54C025E060A840B8E493A353
:10019800FAE493A3F8E493A3C8C582C8CAC583CA7E
:1001A800F0A3C8C582C8CAC583CADFE9DEE780BE36
:01011D0000E1
:00000001FF
