:0A0FF600FFFFFFFFFFFFF65AA55FA3
:03000000020142B8
:0C014200787FE4F6D8FD75810F02014EB5
:0801590000000000000000009E
:0B014E0012011F1200F975865A80FB99
:10011F0075E50675E669758E1075865AE4F580F5F6
:10012F00F975F1FFF590F5FA75F2FFF5A0F5FB758E
:03013F00F3FF22A9
:1000F90078087C007D007BFF7A0179597E007F08B2
:100109001200D3E4FFEF900E0093FE74082FF8A6B7
:05011900060FBF08F015
:01011E0022BE
:10000300E709F608DFFA8046E709F208DFFA803EDF
:1000130088828C83E709F0A3DFFA8032E309F608CC
:10002300DFFA8078E309F208DFFA807088828C8334
:10003300E309F0A3DFFA806489828A83E0A3F608E8
:10004300DFFA805889828A83E0A3F208DFFA804CC2
:1000530080D280FA80C680D4806980F28033801099
:1000630080A680EA809A80A880DA80E280CA803302
:1000730089828A83ECFAE493A3C8C582C8CCC5837A
:10008300CCF0A3C8C582C8CCC583CCDFE9DEE7804A
:100093000D89828A83E493A3F608DFF9ECFAA9F0C9
:1000A300EDFB2289828A83ECFAE0A3C8C582C8CC1F
:1000B300C583CCF0A3C8C582C8CCC583CCDFEADE38
:1000C300E880DB89828A83E493A3F208DFF980CC9A
:1000D30088F0EF60010E4E60C388F0ED2402B40493
:1000E3000050B9F582EB2402B4040050AF2323453A
:0600F3008223900053730C
:00000001FF
