:020000040800F2
:1000000038090020CD010008D1010008D301000803
:10001000D5010008D7010008D90100080000000040
:10002000000000000000000000000000DB010008EC
:10003000DD01000800000000DF010008E101000808
:10004000E3010008E3010008E3010008E301000800
:10005000E3010008E3010008E3010008E3010008F0
:10006000E3010008E3010008E3010008E3010008E0
:10007000E3010008E3010008E3010008E3010008D0
:10008000E3010008E3010008E3010008E3010008C0
:10009000E3010008E3010008E3010008E3010008B0
:1000A000E3010008E3010008E3010008E3010008A0
:1000B000E3010008E3010008E3010008E301000890
:1000C000E3010008E3010008E3010008E301000880
:1000D000E301000859090008E3010008E3010008F2
:1000E000E3010008E3010008E3010008E301000860
:1000F000E3010008E3010008E3010008E301000850
:10010000E3010008E3010008E3010008E30100083F
:10011000E3010008E3010008E3010008E30100082F
:10012000E3010008E3010008E3010008E30100081F
:1001300000F002F800F03AF80AA090E8000C8244BF
:100140008344AAF10107DA4501D100F02FF8AFF29C
:10015000090EBAE80F0013F0010F18BFFB1A43F0A5
:1001600001031847E427000004280000103A24BFC8
:1001700078C878C1FAD8520724BF30C830C144BF0C
:1001800004680C607047000000230024002500264E
:10019000103A28BF78C1FBD8520728BF30C148BFEA
:1001A0000B6070471FB51FBD10B510BD00F02DF8D6
:1001B0001146FFF7F7FF00F051FC00F04BF803B4D5
:1001C000FFF7F2FF03BC00F009FC000008480047FD
:1001D000FEE7FEE7FEE7FEE7FEE7FEE7FEE7FEE7F7
:1001E000FEE7FEE703480449024A044B704700005B
:1001F00031010008380500203809002038050020AA
:1002000070477047704770477047754600F02CF88C
:10021000AE4605006946534620F00700854618B0F3
:1002200020B5FFF7DFFFBDE820404FF000064FF09C
:1002300000074FF000084FF0000B21F00701AC461B
:10024000ACE8C009ACE8C009ACE8C009ACE8C0093A
:100250008D46704710B50446AFF300802046BDE8D8
:100260001040FFF7ACBF000000487047D4040020E6
:100270001848806940F0080016498861084680697E
:1002800040F0400088611448006820F47000124972
:1002900008600846006840F4401008600E480C30C2
:1002A000006840F020000C490C3108600B480068E1
:1002B00020F47000094908600846006840F44010C6
:1002C000086006480C30006840F0200003490C31FB
:1002D0000860704700100240000C01400018014007
:1002E00000B5002015490861C8601420486100204D
:1002F0008861C8610846006840F00100086008464F
:1003000040680F4908400D494860084600680D499B
:1003100008400A4908600846006820F48020086008
:100320000846406820F4FE004860002088600021F4
:100330004FF0006000F058F800BD000000100240CF
:100340000000FFF8FFFFF6FE2DE9F0410746884662
:1003500014461D46284600F033F8C5F1040007FA9C
:1003600000F60F20284100EA0800064306F00F06B9
:10037000E21704EBD2625211920002F1E022D2F8AD
:1003800000212146E31704EBD3635B11A4EB431C6C
:10039000012303FA0CF31A432046E31704EBD3635B
:1003A0005B119B0003F1E023C3F800210348005DCB
:1003B00040EA061001490855BDE8F08100E400E07C
:1003C0000146072323EA01021202054B18684FF683
:1003D000FF031840034B18431043014B186070474C
:1003E0000CED00E00000FA05024A0A400243024B0D
:1003F0001A60704780FFFF1F08ED00E030B5002451
:100400000CE0002506E00020074901EBC501085576
:10041000681CC5B2802DF6DB601CC4B2082CF0DB72
:1004200000F00AF930BD0000D4000020F0B51446F9
:1004300000267F2801DC3F2900DDF0BD0B46CF17E9
:1004400001EB5777FF10C7F10707FAB2CF1701EB9F
:100450005777FF10A1EBC707FDB2C5F107070123CE
:10046000BB40DEB24CB10A4B03EBC0039B5C334391
:10047000074F07EBC007BB5408E0054B03EBC00375
:100480009B5CB343024F07EBC007BB5400BFD4E7EC
:10049000D400002010B55D48806940F010005B4931
:1004A00088610846806940F02000886108468069BC
:1004B00040F48070886156480068564908405449A5
:1004C000086008460068544908435149086050488C
:1004D0000C30006840F008004D490C3108600846B7
:1004E000006840F0400008604FF033304B4908602E
:1004F0000846C06840F0FF00C86049484068C0F343
:100500001300474948600846406846490843444943
:1005100048600846C06840F46040C8600120424915
:1005200008604249C1F88C010020414908606420FC
:1005300000F076FA01203F49C1F8BC010021AE204D
:1005400000F0A0F90021D52000F09CF900215020F6
:1005500000F098F90021A82000F094F900213F2034
:1005600000F090F90021D32000F08CF9002108461A
:1005700000F088F90021402000F084F900218D204E
:1005800000F080F90021142000F07CF900212020E7
:1005900000F078F90021022000F074F90021A12078
:1005A00000F070F90021C02000F06CF90021DA2081
:1005B00000F068F90021122000F064F90021812088
:1005C00000F060F90021EF2000F05CF90021D92053
:1005D00000F058F90021F12000F054F90021DB204F
:1005E00000F050F90021302000F04CF90021A42047
:1005F00000F048F90021A62000F044F90021AF20C6
:1006000000F040F9FFF7FAFE10BD000000100240B4
:1006100000140140FF0FFFF0003000030010014004
:1006200000200140000030339881224200802242A5
:10063000BC0124420000244230B500241CE004F137
:10064000B001C8B2002100F01DF90021084600F0F9
:1006500019F90021102000F015F9002508E00849DB
:1006600001EBC501085D012100F00CF9681CC5B261
:10067000802DF4DB601CC4B2082CE0DB30BD000030
:10068000D40000202DE9F84F80460F4616461C4640
:10069000BA462046E31704EB5373DB1021464FEABA
:1006A000E47C04EB5C7C4FEAEC0CA4EBCC0CBCF1DE
:1006B000000F02D04FF0010C01E04FF0000C63443A
:1006C000224604EBD27C4FEA6C0C03FB0CF303F0E4
:1006D000FF0BA6F12000C6B200254EE00C2C07D17E
:1006E00006EB4600274901EB8000405D009013E0D7
:1006F000102C05D1244800EB0610405D00900BE063
:10070000182C07D106EBC600204901EB8000405DA4
:10071000009001E0BDE8F88F4FF0000927E0009855
:1007200000F0800028B1394640460A9AFFF77EFE65
:1007300009E00A9808B9012000E000200246394685
:100740004046FFF773FE00984006000E0090781CAC
:10075000C7B2A7EB0A00A04205D1574608F1010035
:1007600000F0FF0806E009F1010000F0FF09B9F10F
:10077000080FD4DB00BF681CC5B25D45AEDB00BF0F
:10078000C8E7000086110008FA150008EA1B0008F7
:100790002DE9FF4F81B0074691461E460E9D4FF052
:1007A000000A002439E0301B401EC1B20A2000F0CC
:1007B000CDF9B9FBF0F00A21B0FBF1F201FB120810
:1007C000BAF1000F16D1701EA04213DDB8F1000F70
:1007D0000ED10120AB4605EBDB71491001FB047122
:1007E0000090C8B22B4620220299FFF74BFF12E07F
:1007F0004FF0010A0120AB4605EBDB71491001FB0C
:1008000004710090C8B208F13001CAB22B460299B7
:10081000FFF738FF00BF601CC4B2B442C3DB05B0B1
:10082000BDE8F08FF8B506460F4615461C4621E098
:1008300004EBD4714910C1F18001B14202DA002603
:100840003819C7B2C4F14000B84204DA00200646A5
:100850000746FFF7D3FD012000902A78234639464A
:100860003046FFF70FFF204604EBD07106EB610125
:10087000CEB26D1C28787E2802DC28782028D7DAB2
:10088000F8BD00000C4AD26802F47F42C3B21A439A
:10089000094BDA60094A11600022094BC3F898211C
:1008A000084B1A6001221A60044B0C331A60044B87
:1008B000C3F88C2170470000001001408C81224257
:1008C00000802242B801244230B504460025FFF7DB
:1008D00007FD1F48006840F480301D49086000BFD4
:1008E0001B480068400C0028FAD04FF4806018497B
:1008F0004860A01EC4B20846406840EA8440486090
:100900000846406840F4803048601248006840F073
:100910003200104908600E48006840F080700C49B1
:10092000086000BF0A480068400E0028FAD0084856
:10093000406840F002000649486005E0044840680D
:10094000C0F3870505F00305022DF7D130BD000087
:1009500000100240002002401D49098801F02001DA
:1009600011B31B49091D0988C8B21A49098801F445
:100970000041C9B91749098801F4804161B10A28C9
:1009800003D00021134A118020E01249098841F464
:100990000041104A118019E00D2806D10D4909883F
:1009A00041F480410B4A118010E00A490988C1F3E3
:1009B0000D01094A505407490988491C054A11800C
:1009C00011460988C72901DD002111807047000008
:1009D00000380140080000200C00002000BF7047D4
:1009E0004FF0E021096921F004014FF0E02211618C
:1009F000C21700EB5272C2F3C702074B1A701946B6
:100A0000097801EB4102C2EBC1114FF6FF7202EA15
:100A1000C101024A1180704700000020020000203E
:100A200001460D4A12884A434FF0E0235A610022E2
:100A30009A6101221A6100BF4FF0E022106900F0B4
:100A400001021AB100F48032002AF5D000224FF0E2
:100A5000E0231A619A6170470200002008B5002463
:100A60000920FFF731FF4820FFF7BAFF4FF4E131CB
:100A7000482000F077F8FFF7FBFBFFF70BFD18238A
:100A800022A200210846FFF7CDFE102322A2182142
:100A90000020FFF7C7FE0C2323A228210020FFF728
:100AA000C1FE0C2324A234210020FFF7BBFE0C233F
:100AB00023A234214020FFF7B5FEFFF7BDFD20241F
:100AC00022E001200C232246342100902420FFF74D
:100AD000D9FD0C2003232246342100905E20FFF72D
:100AE00057FEFFF7A9FD601CC4B27E2C00DD202458
:100AF0004FF4FA70FFF794FF1348006808B901201B
:100B000000E0002010490860DBE70000414C494547
:100B10004E54454B00000000302E393627204F4CF4
:100B2000454420544553540041544F4D20323031F8
:100B3000352F312F3134000041534349493A0000E9
:100B4000434F44453A0000009481214210B50246CB
:100B5000012000E050430B1EA1F10104E1B2F9D1E4
:100B600010BD00002DE9F05F05460E46300100F093
:100B7000ABF981462E4905FB01F000F0A5F982464C
:100B8000494600F0BFF80746384600F07DF984B2C8
:100B9000204600F099F98346394600F075FA8246FE
:100BA0004FF0834100F0A4F9814600F06DF98046D2
:100BB0004FF6FF7000EA041404EB080084B21D48ED
:100BC000806940F004001B4988610846806940F450
:100BD000804088611848006820F47F6016490860EA
:100BE0000846006840F40B6008601248C06840F492
:100BF00080401049C8600846C06820F48040C86042
:100C00000E480480001D008842F20C0108430B4985
:100C1000091D08800846008840F020000880022353
:100C2000252203210846FFF78FFBBDE8F09F000057
:100C300040420F0000100240040801400838014003
:100C400090EA010F48BF81F0004100F12E82421A64
:100C50003CBF801A89184FEAD0524FF07F4C1CEAF3
:100C6000410FA2EBD15318BF9CEA026F00F03B800A
:100C70004FF0004C4CEA00204CEA012121FA03FC21
:100C800010EB0C0C1ED202F1FF325FEA1C2040EB8D
:100C9000C25038BF70471CF07F0F4FEA400C18BF9E
:100CA000BCF17F4F38BF7047C3F12003994008BFA4
:100CB00020F00100BCF17F4F38BF7047A0F1C04069
:100CC00000F0DDB94FEA3C00000A40EBC25028BFFB
:100CD0001CF0FF0F4FEA400CE6D018BFBCF17F4F6D
:100CE00038BF7047EAE79CEA026F05D010EA5C0F54
:100CF00008BF00F00040704710B500F07AF900BF5F
:100D000064FBBE3E4FF47F0C1CEAD0121EBF1CEAEF
:100D1000D11392EA0C0F93EA0C0F00F0858090EA51
:100D2000010F48BF42F4807240F4000C41F400000F
:100D30002CF07F4120F07F4000B58142A2EB0302FE
:100D40000FF2081CACEB504EC0F100009EF800E022
:100D50004FEA4E0E00FB0EFC38BF49004FEA2C1C38
:100D600002F5FA020CFB0EF34FEACE1E4FEA112CED
:100D70004FEAC1210EEB635E42EB22420EFB0CFCFC
:100D80004FEA1C5300FB03114FEA112C4FEA0131CB
:100D90000EFB0CFC4FEADC4C00FB0C11C14228BFDF
:100DA00009184CEB03335DF804EB10EB410143EB06
:100DB000C250B2F57C0F38BF704729D512F0F00F42
:100DC0001CBF00F1C04000F00040704700818283EA
:100DD0008485868788898B8C8D8E8F91929395964A
:100DE00097999A9C9D9FA0A2A3A5A7A8AAACAEB0D4
:100DF000B2B3B5B7B9BCBEC0C2C5C7C9CCCED1D4D9
:100E0000D7D9DCDFE2E6E9ECF0F3F7FAFE00000008
:100E10004FEA400C0CF1807CBCF17E4F28BF70473C
:100E2000B0F1C04000F02BB990EA010F0CEAD113E9
:100E300048BF42F48072624538BF634507D213F45D
:100E40007F0F16D080EA010000F00040704710B517
:100E500000F0CFF8097EFC3E00F005B880EA010002
:100E600000F00040704780EA010000F0004000F010
:100E700006B912F47F0F04BF0248704780EA0100F0
:100E800000F0FDB80000C07FC10DD1F19E0206DB6D
:100E90004FEA002343F0004323FA02F07047004278
:100EA00007D54FEA4001B1F1FE4F02D24FF00000EA
:100EB000704710B500F09DF84992248000207047DB
:100EC0006FEA200070470000B0FA80F310FA03F2D6
:100ED000C3F19D030AD0D90501EB1220530638BF98
:100EE000704700F1010008BF20F0010070470000CA
:100EF0004FF47F0C1CEAD0121EBF1CEAD11392EAF9
:100F00000C0F93EA0C0F00F0478090EA010F48BFE6
:100F100042F480724FF0004C4CEA00204CEA012170
:100F200002EB0302A0FB0113A2F50002002918BF87
:100F300043F001035B0028BF4FEA330342EB224238
:100F40005FEA132C4CEBC2502EBFBCEB436FB2F5E3
:100F50007C0F70474FEA036CBCF1004F08BF20F0D4
:100F60000100B2F57C0F38BF70470BD582F0FF024D
:100F700012F5803FC8BF704700F1C040D8BF00F0F5
:100F80000040704700F5000C5FEA4C0C48BF70470A
:100F9000B0F1C04000F073B890EA010F0CEAD11331
:100FA00048BF42F48072624538BF634504D280EA8C
:100FB000010000F00040704710B500F01AF800BFC3
:100FC0008900013E00F007B800F009B85FEA410C63
:100FD0005FEA1C6C08D080EA010000F050B85FEABC
:100FE000400C5FEA1C6CF6D14FF00040A0F5800089
:100FF00070470EF1020E2EF0030E5EF8044B2442F1
:1010000004D44FEA4102B2F17F4F11D84FEA4003B6
:10101000B3F17F4F0CD80ED14FEAD07CB2F17F4FA5
:101020000CEB4C0C0CF1020C08BF4CEBD17C04E037
:101030004FF0080C01E04FEAD17C0CEB4C0324FA92
:1010400003F404F00704B4F1040C06D20EEB840C94
:10105000BDE810404CF0010C6047DFE80CF00708D9
:1010600002024FF00040A0F5800010BD084642008B
:1010700018BFD2F1807288BF00F0004010BDFF2180
:1010800041EAD050C005704780F0004090EA010F5F
:101090007FF5DDAD81F0004100F007B890EA010F67
:1010A00048BF81F000413FF5D2AD421A04D882F02A
:1010B0000042A0EB020011444FEAD0524FF07F4CA7
:1010C0001CEA410FA2EBD15318BF9CEA026F4AD031
:1010D0004FF0004C4CEA00204CEA012121FA03FCBD
:1010E000B0EB0C0C0FD412F0FE0F36D05FEA4C00C0
:1010F0001DD5001240EBC25038BF70471CF03F0FA7
:1011000018BF70470BE0A2F101025FEA1C2040EB20
:10111000C25038BF70471CF07F0F18BF7047C3F133
:101120002003994014BF401E20F001007047800842
:101130004FEA122308BF7047B0FA80FCA2EB0C0202
:10114000CCF1280C60FA0CF093EA122F04BF00EBEC
:10115000C25070474FEAC3707047130A5FEADC1051
:1011600008BF7047F6E79CEA026F04D010EA5C0FF4
:1011700008BF0020704710B5FFF73BFF40DFF63E89
:1011800081F00040704700000000000000000000F7
:101190000000000000003F400000000000000000D0
:1011A0003000400030004000000009000BC03D004E
:1011B0000BC03D00090018C024407FE02240318070
:1011C0000000180024C01B000D8032400180038005
:1011D0001C4027401C8007400040100060000000B9
:1011E0000000000000000000000000001F80204000
:1011F00040200000402020401F8000000000090027
:1012000006001F80060009000000040004003F8063
:101210000400040000000010006000000000000056
:1012200000000400040004000400040000000000AA
:1012300000400000000000000000002001C0060087
:101240003800400000001F802040204020401F80C8
:101250000000000010403FC000400000000018C027
:1012600021402240244018400000108020402440AB
:1012700024401B80000002000D0011003FC001400F
:1012800000003C80244024402440238000001F8034
:10129000244024403440038000003000200027C058
:1012A0003800200000001B802440244024401B8084
:1012B00000001C0022C0224022401F8000000000CD
:1012C0000000084000000000000000000000046072
:1012D000000000000000000004000A00110020804F
:1012E0004040090009000900090009000000000051
:1012F0004040208011000A00040018002000234014
:101300002400180000001F802040274029401F4073
:101310000000004007C039000F0001C0004020401D
:101320003FC0244024401B8000001F8020402040FC
:1013300020403080000020403FC0204020401F80DF
:10134000000020403FC024402E4030C0000020401C
:101350003FC024402E00300000000F0010802040CD
:1013600022403380020020403FC0040004003FC000
:101370002040204020403FC020402040000000602E
:10138000202020203FC02000200020403FC02440DB
:101390000B0030C0204020403FC0204000400040B3
:1013A00000C03FC03C0003C03C003FC000002040E4
:1013B0003FC00C4023003FC020001F802040204041
:1013C00020401F80000020403FC02440240018001F
:1013D00000001F802140214020E01FA0000020408D
:1013E0003FC02440260019C0004018C024402440BB
:1013F000224031800000300020403FC020403000BB
:10140000000020003F80004000403F80200020007E
:101410003E0001C0070038002000380007C03C0033
:1014200007C038000000204039C0060039C0204005
:1014300000002000384007C0384020000000304045
:1014400021C02640384020C00000000000007FE09E
:10145000402040200000000070000C00038000408D
:1014600000000000402040207FE00000000000005D
:1014700020004000200000000000001000100010BC
:1014800000100010001000000000400000000000EC
:101490000000000002800540054003C0004020001D
:1014A0003FC004400440038000000000038004406B
:1014B00004400640000000000380044024403FC078
:1014C000004000000380054005400340000000008C
:1014D00004401FC0244024402000000002E00550CA
:1014E00005500650042020403FC00440040003C0C3
:1014F00000400000044027C0004000000000001031
:101500000010041027E00000000020403FC0014010
:10151000070004C00440204020403FC0004000407D
:10152000000007C0040007C0040003C0000004401E
:1015300007C00440040003C00040000003800440D2
:10154000044003800000041007F0045004400380AE
:101550000000000003800440045007F00010044025
:1015600007C00240040004000000000006400540DF
:10157000054004C00000000004001F80044000403B
:101580000000040007800040044007C00040040041
:10159000070004C0018006000400060001C0070027
:1015A00001C006000000044006C0010006C004405F
:1015B00000000410071004E0018006000400000091
:1015C000044005C006400440000000000000040084
:1015D0007BE040200000000000000000FFF0000061
:1015E0000000000040207BE00400000000004000FC
:1015F00080004000200020004000000000000000AB
:1016000000000000000000000000000000000000DA
:101610001FCC000C0000000000000000080030009B
:1016200060000800300060000000022003FC1E2063
:10163000022003FC1E200220000000000E181104EE
:101640003FFF10840C78000000000F0010840F385A
:1016500000C0077818840078000000780F8410C458
:1016600011240E9800E4008400080800680070004F
:10167000000000000000000000000000000000006A
:1016800007E0181820044002000000004002200477
:10169000181807E00000000000000240024001802E
:1016A0000FF00180024002400000008000800080B6
:1016B0000FF800800080008000000001000D000E87
:1016C000000000000000000000000000008000801A
:1016D000008000800080008000800000000C000C72
:1016E00000000000000000000000000000060018DC
:1016F00000600180060018002000000007F00808C4
:1017000010041004080807F0000000000804080492
:101710001FFC000400040000000000000E0C101468
:101720001024104411840E0C000000000C1810044A
:101730001104110412880C700000000000E0032066
:10174000042408241FFC0024000000001F981084BB
:1017500011041104108810700000000007F00888C0
:101760001104110418880070000000001C00100013
:1017700010FC13001C001000000000000E38114483
:101780001084108411440E38000000000700088CFB
:1017900010441044088807F000000000000000001A
:1017A000030C030C0000000000000000000000011A
:1017B0000106000000000000000000000080014061
:1017C0000220041008081004000002200220022059
:1017D000022002200220022000000000100408085D
:1017E0000410022001400080000000000E001200E2
:1017F000100C106C10800F00000003E00C1813E4B4
:10180000142417C4082807D000000004003C03C4B7
:101810001C40074000E4001C000410041FFC1104DD
:10182000110411040E880070000003E00C1810046D
:101830001004100410081C10000010041FFC1004F9
:1018400010041004080807F0000010041FFC110425
:10185000110417C410040818000010041FFC110420
:10186000110017C010000800000003E00C1810045D
:10187000100410441C780040000010041FFC108469
:101880000080008010841FFC10040000100410046D
:101890001FFC1004100400000000000300011001F0
:1018A00010011FFE10001000000010041FFC1104A6
:1018B00003801464181C1004000010041FFC1004A2
:1018C000000400040004000C000010041FFC1F00B2
:1018D00000FC1F001FFC1004000010041FFC0C047F
:1018E000030000E010181FFC100007F008081004A7
:1018F00010041004080807F0000010041FFC1084F6
:101900001080108010800F00000007F008181024CD
:101910001024101C080A07F2000010041FFC110418
:10192000110011C011300E0C000400000E1C110437
:101930001084108410441C3800001800100010049B
:101940001FFC100410001800000010001FF8100405
:101950000004000410041FF8100010001E0011E025
:10196000001C007013801C0010001FC0103C00E021
:101970001F0000E0103C1FC000001004180C1634BB
:1019800001C001C01634180C100410001C00130410
:1019900000FC13041C00100000000804101C10645C
:1019A000108413041C041018000000000000000044
:1019B0007FFE4002400240020000000030000C00A8
:1019C00003800060001C0003000000004002400291
:1019D00040027FFE00000000000000000000200028
:1019E0004000400040002000000000010001000114
:1019F0000001000100010001000100004000400062
:101A000020000000000000000000000000980124F9
:101A100001440144014400FC000410001FFC008844
:101A200001040104008800700000000000700088BC
:101A30000104010401040088000000000070008817
:101A40000104010411081FFC0004000000F8014417
:101A500001440144014400C80000000001040104E5
:101A60000FFC1104110411001800000000D6012918
:101A70000129012901C90106000010041FFC00848E
:101A800001000100010400FC00040000010419042D
:101A900019FC000400040000000000000003000125
:101AA0000101190119FE0000000010041FFC0024B0
:101AB000004001B4010C01040000000010041004F7
:101AC0001FFC0004000400000000010401FC0104EC
:101AD000010001FC0104010000FC010401FC008480
:101AE00001000100010400FC0004000000F80104F2
:101AF00001040104010400F80000010101FF008558
:101B000001040104008800700000000000700088DB
:101B100001040104010501FF00010104010401FCAD
:101B200000840104010001800000000000CC0124B9
:101B3000012401240124019800000000010001009B
:101B400007F80104010400000000010001F800048E
:101B500000040004010801FC000401000180017080
:101B6000000C001001600180010001F0010C003048
:101B700001C00030010C01F0010000000104018CE3
:101B800000740170018C01040000010101810171E8
:101B9000000E001801600180010000000184010CAA
:101BA000013401440184010C000000000000000029
:101BB000000001003EFC4002400200000000000066
:101BC0000000FFFF00000000000000004002400293
:101BD0003EFC0100000000000000000060008000EA
:101BE00080004000400020002000000000000000B5
:101BF00000000000000000000000000000000000E5
:101C000000000000000000000000000000000000D4
:101C1000000000000000000000000000000F8038FD
:101C20000FFE380F803800000000000000000000A8
:101C300000000000000000000100000600000C0091
:101C4000003800003100000600000C0000380000E1
:101C50003000000000000000000061800067F8070D
:101C6000F980006180006180006180006180006710
:101C7000F807F9800061800000000000000000000B
:101C800001C0E003E0F00630080418081FFFFE045E
:101C90000E080787F00381E000000000000001F05B
:101CA00000060C00040408060C7001F9C0000E00C8
:101CB000003BE000EC18070808040C180003E000E3
:101CC00000000001E00007F003F818041C080417E6
:101CD0000807E1D003C0E00023B0003C0800200862
:101CE0000000100000000000000100003100003280
:101CF00000001C00000000000000000000000000C8
:101D000000000000000000000000000000000000D3
:101D1000000000000000000000007F0001FFC0077D
:101D200080F00C00181000042000020000000000E9
:101D3000002000021000040C00180780F001FFC012
:101D4000007F000000000000000000000000000014
:101D50000000000000004200006600006600003C39
:101D60000000180003FFC0001800003C00006600DF
:101D700000660000420000000000080000080000AB
:101D8000080000080000080001FFC000080000086B
:101D9000000008000008000008000000000000012A
:101DA00000003100003200001C00000000000000B4
:101DB0000000000000000000000000000000000023
:101DC00000000800000800000800000800000800EB
:101DD00000080000080000080000080000080000DB
:101DE0000000000000000000000038000038000083
:101DF00038000000000000000000000000000000AB
:101E000000000000000000000000000600001C00B0
:101E10000070000180000E0000380000C0000700C4
:101E2000001C0000300000000000000000007F8067
:101E300001FFE00380700600180400080400080693
:101E4000001803807001FFE0007F800000000000A8
:101E50000000000001000801000801000803FFF86D
:101E600007FFF8000008000008000008000000005C
:101E7000000000000001C03802C0580400980401AE
:101E800018040218040418061C1803F81801E0F8D6
:101E900000000000000000000001C0E003C0F004EA
:101EA000000804080804080806180803F41801E7E5
:101EB000F00001E00000000000000000000003004E
:101EC000000D0000110000610000810803010807F7
:101ED000FFF80FFFF80001080001080000000000F3
:101EE000000000E007FCD0060808061008061008ED
:101EF000061008061838060FF00607C0000000009C
:101F00000000000000003F8001FFE0038430020871
:101F100018041008041008041008071810030FF024
:101F20000007C000000000000000000003C0000720
:101F300000000600000600F80607F806180006E094
:101F40000007000006000000000000000001E1E0C2
:101F500003F7F0063410041808041808040C0804E9
:101F60000C0806161803F3F001C1E00000000000A1
:101F70000000F80003FC30030638040208040208DD
:101F80000402080404100308F001FFC0007F0000F1
:101F90000000000000000000000000000000000041
:101FA0000000703800703800703800000000000039
:101FB0000000000000000000000000000000000021
:101FC000000000000000301A00301C00000000007B
:101FD0000000000000000000000000000000000001
:101FE0000008000014000022000041000080800171
:101FF000004002002004001008000800000000005B
:10200000000021000021000021000021000021002B
:10201000002100002100002100002100002100001B
:10202000000000000000000008000804001002008A
:1020300020010040008080004100002200001400C8
:1020400000080000000000000003C00004C00004FD
:102050000000080038080F380808380810000C3055
:102060000007E00003C000000000000000003F8007
:1020700000FFE0038070020F1006708804C088041F
:102080008308047F8802C09003012000FE40000006
:10209000080000180001F8003E0801C20007020015
:1020A00007E20000FE00001FC80001F80000380031
:1020B000000804000807FFF807FFF80408080408F0
:1020C0000804080804080806180803F41801E7F0D3
:1020D0000001E0000000000000003F8001FFE0037D
:1020E00080700200180400080400080400080400BE
:1020F000100600200780C000000004000807FFF859
:1021000007FFF8040008040008040008040018028F
:10211000001003807001FFE0007F800000000400D9
:102120000807FFF807FFF80408080408080408086F
:10213000040808043E0804000806001801006000B6
:10214000000004000807FFF807FFF8040808040867
:1021500000040800040800043E0006000006000019
:10216000018000000000000000003F8001FFE0034C
:102170008070060018040008040208040208020324
:10218000F00783F000020000020004000807FFF8D7
:1021900007FFF80408080008000008000008000015
:1021A000080004080807FFF807FFF804000800000B
:1021B0000000000004000804000804000807FFF8FD
:1021C00007FFF804000804000804000800000000ED
:1021D00000000000000000060000070000010400ED
:1021E0000104000104000307FFFE07FFFC040000D8
:1021F00004000004000004000807FFF807FFF804CB
:102200000C08001800003E0004C7800503C8060043
:10221000F804003804001800000804000807FFF85C
:1022200007FFF8040008000008000008000008008C
:102230000008000008000018000060000000040012
:102240000807FFF807800807FC00007FC00003F8BC
:102250000007C000780007800807FFF807FFF804B0
:10226000000804000807FFF807000803C00000E0AA
:1022700000003800001E000007000001C00400F04C
:1022800007FFF8040000000000007F8001FFE0036A
:1022900080700600180400080400080600180300F7
:1022A0003001FFE0007F8000000004000807FFF815
:1022B00007FFF804040804040004040004040004F4
:1022C0000400060C0003F80001F00000000000000C
:1022D00000007F8001FFE003807006008804008812
:1022E0000400C806003C03003E01FFE6007F8400B6
:1022F000000004000807FFF807FFF80408080408B6
:1023000000040C00040F00040BC00610F003F038AA
:1023100001E00800000800000001E0F803F03006CA
:102320003010041808041808040C08040C080206ED
:10233000180207F00781E00000000180000600009D
:1023400004000004000004000807FFF807FFF80479
:1023500000080400000400000600000180000400E2
:102360000007FFE007FFF004001800000800000865
:1023700000000800000800000804001007FFE00447
:10238000000004000006000007E00007FE00041F34
:10239000E00001F80000380001E0043E0007C00042
:1023A00006000004000004000007E00007FFC0046E
:1023B0001FF80007C007F80007FF80043FF8000778
:1023C000C004F8000700000400000000000400083A
:1023D00006001807C07805F1C8003E00001F800401
:1023E00063E80780F80600180400080000000400F5
:1023F0000006000007800007E008047C08001FF8C2
:102400000007F800180804E00807000006000004B0
:1024100000000000000100080600380400F8040372
:10242000E8040F08047C0805F00807C00807001836
:102430000400600000000000000000000000000038
:1024400000000000003FFFFE2000022000022000EC
:102450000220000220000200000000000000000036
:1024600008000007000000C000003800000600005F
:1024700001C000003000000E00000100000000005C
:1024800000000000200002200002200002200002C4
:102490002000023FFFFE00000000000000000000DE
:1024A0000000000000000000000000080000100014
:1024B0000030000020000030000010000008000084
:1024C0000000000000000000010000010000010009
:1024D00000010000010000010000010000010000F7
:1024E00001000001000001000001000000000000E8
:1024F000000000200000200000100000100000007C
:1025000000000000000000000000000000000000CB
:10251000000000F00019F8001B180022080026082F
:10252000002408002410003FF8001FF800000800F5
:10253000001800000004000007FFF80FFFF000186B
:1025400018001008002008002008003018001FF0B4
:10255000000FC00000000000000007C0001FF000D6
:102560001830002008002008002008003C08001C4B
:10257000100000600000000000000000000007C024
:10258000001FF00038180020080020080020080470
:10259000101007FFF80FFFF000001000000000000F
:1025A000000000000007C0001FF0001230002218D9
:1025B000002208002208003208001E10000E200031
:1025C000000000000000200000200800200801FF9B
:1025D000F803FFF80620080420080420080720005C
:1025E00003000000000000000000000E000E6E005E
:1025F0001FF30031B10020B10020B1003191001F64
:1026000013002E1E00200E00300000000004000801
:1026100007FFF80FFFF8001008002000002000005E
:102620002008003FF8001FF800000800000000002C
:1026300000000000002008002008002008063FF8E5
:10264000063FF80000080000080000080000000035
:102650000000000000000000000003000003002054
:1026600001002001002003063FFE063FFC000000A1
:1026700000000000000000000004000807FFF80F41
:10268000FFF8000188000300002FC00038F8002088
:1026900038002008000008000000000000000000D2
:1026A00004000804000804000807FFF80FFFF80002
:1026B00000080000080000080000000000000020E2
:1026C00008003FF8003FF8001008002000003FF825
:1026D000003FF8001008002000003FF8003FF8001D
:1026E0000008000000002008003FF8003FF800103C
:1026F00008001000002000002008003FF8001FF82C
:102700000000080000000000000007C0000FF000FB
:102710001830003008002008002008003008001899
:1027200030000FF00007C000000000000000200192
:10273000003FFF003FFF00101100200900200800AB
:102740002008003038001FF0000FC000000000001B
:10275000000007C0001FF000381800200800200803
:10276000002009001011001FFF003FFF00000100C2
:102770000000002008002008002008003FF8003F6B
:10278000F8000808001008002008002000003000B1
:10279000003000000000000000000000000C780085
:1027A0001E1800330800230800210800218800219A
:1027B000980030F0003860000000000000002000A9
:1027C00000200000200000FFF003FFF800200800B8
:1027D0002008002008000030000000000000000079
:1027E00000002000003FF0007FF800001800000803
:1027F000000008002010003FF8007FF000001000EB
:102800000000000000002000003000003C00003FFD
:10281000800023F0000078000070002380003C005E
:10282000003000002000002000003C00003FE000DD
:1028300023F80000E0002700003E00003FE00021F8
:10284000F80001E0003E0000200000000000200829
:10285000002008003838003E680027800003C800C8
:102860002CF8003838002018002008000000000074
:1028700000002000003003003C01003F830023ECF7
:10288000000070002380003C0000200000200000B9
:102890000000000000000000003808002038002080
:1028A000F80023E8002F88003E08003808002018B0
:1028B00000007000000000000000000000000000A8
:1028C00000000000000008000014001FF7FC3000AA
:1028D00006200002000000000000000000000000D0
:1028E000000000000000000000000000FFFFFF00EB
:1028F00000000000000000000000000000000000D8
:10290000000000002000023000061FF7FC00140049
:1029100000080000000000000000000000000000AF
:1029200000000000001800006000004000004000AF
:102930000020000010000008000004000004000057
:102940000C000010000000006829000800000020B2
:102950000C0000006C010008742900080C00002025
:102960002C090000880100080000000000000000A1
:042970000000000063
:0400000508000131BD
:00000001FF
