:10000E0012028D1202B2120026D2AF75865A120259
:03001E001380F854
:10028D0075E50775E669758E3075865A758020752A
:10029D00F92075F1FFE4F590F5FA75F2FFF5A0F58B
:0502AD00FB75F3FF22C8
:10025000C10001230101220001210014240000003B
:10026000000000000000000000000000000000008E
:100270000014380000000000000000000000000032
:070280000000000000000077
:10002600D28543F92053F9BFD29FD29ED29CE46079
:10003600030200E1740214B4090040030200E190D7
:10004600005375F003A4C58325F0C5837302006EC3
:1000560002007B0200880200950200A20200AF02A5
:1000660000BC0200C90200D653877FD2DF75BA03EF
:1000760075AA98806653877FD2DF75BA0375AACCB6
:10008600805953877FD2DF75BA0375AAE6804C5331
:10009600877FD2DF75BA0375AAF3803F438780D284
:1000A600DF75BA0375AAEE8032438780D2DF75BA50
:1000B6000375AAEF8025438780D2DF75BA0375AA38
:1000C600F78018438780D2DF75BA0375AAF8800BCC
:0E00D600438780D2DF75BA0375AAFCD2AC2234
:0201D100AE0777
:1001D300E4FDFCAF06EF30E0010C7801EF0880018D
:1001E30023D8FDFF0DBD08ED7823E6FFB4010CEC29
:1001F30030E004C29B8011D29B800DEF700AEC307B
:0F020300E004D29B8002C29B8E993099FDC29974
:0102120022C9
:10021300E4FB300137C201780816E6702F7605300B
:10022300002A7822E6FA1866701EC2007822E6FFDA
:10023300EBC39F500C74242BF8E6FF1201D10B8003
:0C024300EBE47822F618F6227821A602DF
:01024F00228C
:0300230002017067
:0F017000C0E0C0D075D000C000C005C006C007F9
:10017F00E4FEFD30983FC298D200AF99EF30E00116
:10018F000D7801EF08800123D8FDFF0EBE08ED307A
:10019F009A010D7823E6FEB40107ED30E0171880C1
:1001AF000DEE7008ED20E00D782280027822E60631
:0501BF002424F8A6074E
:0D01C400D007D006D005D000D0D0D0E0325A
:05028700C101010805A2
:1002B200758906E4F5E7758C06758A06D28CD2A993
:0102C2002219
:03000B00020003ED
:03000300D20132F5
:030000000200E417
:0C00E400787FE4F6D8FD75814B02012BFB
:0A0FF600FFFFFFFFFFFFF65AA55FA3
:1000F00002000EE493A3F8E493A34003F68001F218
:1001000008DFF48029E493A3F85407240CC8C33310
:10011000C4540F4420C8834004F456800146F6DFDF
:10012000E4800B0102040810204080900250E47E1D
:10013000019360BCA3FF543F30E509541FFEE493D4
:10014000A360010ECF54C025E060A840B8E493A39B
:10015000FAE493A3F8E493A3C8C582C8CAC583CAC6
:10016000F0A3C8C582C8CAC583CADFE9DEE780BE7E
:01028C000071
:00000001FF
