:020000040800F2
:1000000028C400202D020008310200083302000835
:10001000350200083702000839020008000000001D
:100020000000000000000000000000003B0200088B
:100030003D020008000000003F02000841020008E5
:10004000430200084302000843020008430200087C
:10005000430200084302000843020008430200086C
:10006000430200084302000843020008430200085C
:10007000430200084302000843020008430200084C
:10008000430200084302000843020008430200083C
:10009000430200084302000843020008430200082C
:1000A000430200084302000843020008430200081C
:1000B00043020008430200084170000843020008A0
:1000C00043020008430200084302000843020008FC
:1000D00043020008CD7000084302000843020008F4
:1000E00043020008430200084302000843020008DC
:1000F00043020008430200084302000843020008CC
:100100004302000815570008430200084302000894
:1001100043020008430200084302000843020008AB
:10012000430200084302000843020008430200089B
:1001300000F002F800F06BF80AA090E8000C82448E
:100140008344AAF10107DA4501D100F060F8AFF26B
:10015000090EBAE80F0013F0010F18BFFB1A43F0A5
:100160000103184764070100840701000A444FF0A7
:10017000000C10F8013B13F0070408BF10F8014B06
:100180001D1108BF10F8015B641E05D010F8016B4B
:10019000641E01F8016BF9D113F0080F1EBF10F8AF
:1001A000014BAD1C0C1B09D16D1E58BF01F801CBD2
:1001B000FAD505E014F8016B01F8016B6D1EF9D555
:1001C0009142D6D37047000000230024002500266A
:1001D000103A28BF78C1FBD8520728BF30C148BFAA
:1001E0000B607047642900F0BD80752900F0BA806B
:1001F000782900F0F380632900F07483732900F0FC
:100200007983002070471FB51FBD10B510BD00F0E9
:10021000D5FB1146FFF7F7FF0AF046FF00F0F3FBAE
:1002200003B4FFF7F2FF03BC07F013F908480047D7
:10023000FEE7FEE7FEE7FEE7FEE7FEE7FEE7FEE796
:10024000FEE7FEE703480449024A044B70470000FA
:100250003101000828C0002028C4002028C0002048
:10026000704710B54C1084EA530404D54042C1F1E4
:10027000000138BF491E1B4204D55242C3F100039E
:1002800038BF5B1E00F054FA14F0804F04D0404297
:10029000C1F1000138BF491E14F0004F04D0524292
:1002A000C3F1000338BF5B1E10BD00000FB404494A
:1002B00010B503AA029800F021FB10BC5DF814FBF6
:1002C0000400002070B5044685690068C10601D5A8
:1002D000302600E02026C00707D070BDD4E90121F8
:1002E00030469047206A401C20626D1EF6D570BDD6
:1002F00070B5044685690078C00707D170BDD4E9A0
:10030000012120209047206A401C20626D1EF6D5F6
:1003100070BD70B50C460546012A05D028788006C8
:1003200000D5EA69002302E0012305E05B1C93424B
:1003300002D2E05C0028F9D1A869E618C01AA861C9
:10034000286A184428622846FFF7BCFF04E0D5E974
:10035000012114F8010B9047B442F8D32846FFF767
:10036000C7FF70BD2DE9F0410646002410687529CD
:10037000314616A510D0AFF30080002802DA4042C3
:1003800013A507E031688A0701D512A502E04907E5
:1003900004D511A5012401E0AFF3008000210A2259
:1003A00006F1240709E0B0FBF2FCB0FBF2F302FB1C
:1003B0001C00303078541846491C0028F3D12346DD
:1003C0002A463046BDE8F04100F029BA000000009E
:1003D0002D0000002B0000002000000070B5044636
:1003E0000D4621461068AFF300802188090502D52B
:1003F0000F4A7A4402E00E4A7A440E32002104F198
:10040000240305E000F00F060009965D5E54491CC8
:100410000028F7D120780023000704D5702D02D0E2
:1004200009B1022311322046BDE8704000F0F7B94F
:100430000E0301002DE9F05F894604464FF0000AE3
:10044000DFF874B1FB44C0F820A02046E16888477B
:10045000002874D0252806D0D4E901219047206ACD
:10046000401C2062F1E700265F462046E16888478D
:100470002028054607DB312D05D2781910F8200C0D
:1004800008B10643F1E7B00701D526F00406C4F829
:100490001CA00027C4F818A02A2D09D0284606F071
:1004A000D1FF38B304EB8708303DC8F8185019E085
:1004B00059F8041B204604EB87029161E1688847E4
:1004C000012F054618D1E069002820DA26F0200621
:1004D0001DE0D8F8180000EB800005EB4000303834
:1004E000C8F818002046E1688847054606F0AAFFCC
:1004F0000028EED1012F0AD02E2D08D12046E16828
:1005000088477F1C0546022F46F02006C4DBA06901
:10051000002803DA404246F00106A061F00701D04E
:1005200026F010066C2D0BD0682D09D04C2D39D03B
:100530006A2D35D0742D35D07A2D33D016E038E0C1
:10054000E1682F4620468847B842054609D16C2FFE
:1005500026D04FF48060E168064320468847054670
:1005600004E06C2F1AD04FF4807006430DB3A5F150
:100570004100192802D8203546F400664A4629462B
:10058000204626604E46FFF72DFE80B101280BD095
:10059000F61D26F0070000F1080956E74020E4E7C1
:1005A0008020D8E70020D6E706F104094DE7284669
:1005B00052E7206ABDE8F09FE402010040EA01032F
:1005C000024630B59B0710D14FF0013400E008C25D
:1005D00008C91D1B9D4315EAC41FF8D013F0FF0185
:1005E00002F8011B0DD01B0AF8E711F8013B002BA4
:1005F00002F8013B05D011F8013B002B02F8013B4A
:10060000F3D130BD421E12F8013F002BFBD111F88F
:10061000013B002B02F8013BF9D17047032A40F25D
:10062000308010F0030C00F0158011F8013BBCF194
:10063000020F624498BF11F801CB00F8013B38BFAC
:1006400011F8013BA2F1040298BF00F801CB38BFBA
:1006500000F8013B11F0030300F06281083AC0F09A
:10066000088051F8043B083A51F804CBA0E8081080
:10067000F5E7121D5CBF51F8043B40F8043BAFF3B3
:100680000080D20724BF11F8013B11F801CB48BF0D
:1006900011F8012B24BF00F8013B00F801CB48BF43
:1006A00000F8012B704700004FF0013C50F8042B7C
:1006B00051F8043B9A4221D1A2EB0C03934313EA75
:1006C000CC1317D150F8042B51F8043B9A4215D1A2
:1006D000A2EB0C03934313EACC130BD150F8042B79
:1006E00051F8043B9A4209D1A2EB0C03934313EA5D
:1006F000CC13DBD04FF00000704700BFD01A01BA16
:10070000B1FA81F101F0180122FA01F0CB40C1F1F8
:100710002001DBB2C0B2C01A2CFA01F3D11A914306
:1007200011EAC311E6D170477047704770477047B0
:1007300053EA020C00F069802DE9F04B4FF00006FF
:10074000002B1FBFB3FA83F503FA05F424FA05F66C
:100750005E4012BF1643B2FA82F502FA05F4C5F103
:1007600020051EBF22FA05FC44EA0C04203556EA97
:10077000044C4FEA144418BF641C4FF000084FF0BB
:100780000009904271EB030C39D3002919BFB1FA6B
:1007900081F701FA07F6B0FA80F700FA07F6C7F119
:1007A00020071EBF20FA07FC46EA0C062037B6FBDE
:1007B000F4FCA7EB0507103F07F01F0BCBF1200659
:1007C0000CFA0BFB2CFA06F644BFB3460026202F8A
:1007D000A4BF5E464FF0000B5BEA060C08BF4FF06B
:1007E000010B19EB0B09ABFB027C48EB0608C01BA5
:1007F00006FB02CC0BFB03CC71EB0C01C1E70B46F3
:10080000024641464846BDE8F08B13B54FF0000064
:100810004FF00001AFF30080BDE81C4070472DE9A8
:10082000F0470D4699469246044600F124080168B7
:10083000880604D5E06921F01001216000E0012064
:10084000A84201DD471B00E00027A1697A1902EBED
:100850000900081AA0612078C00602D42046FFF7DC
:1008600031FD002608E0D4E901211AF8060090477E
:10087000206A401C761C20624E45F4DB2078C006BE
:100880000AD52046FFF71EFD06E0D4E901213020FD
:100890009047206A401C2062381EA7F10107F4DC53
:1008A00007E0D4E9012118F805009047206A401CB0
:1008B0002062281EA5F10105F3DC2046FFF718FD94
:1008C0002078000602D50220BDE8F0870120FBE772
:1008D00010B5436913B1AFF3008001E0FFF719FDD4
:1008E000012010BD127800F124010A7000224A7024
:1008F0000122EDE711684FF0FF32E9E7074B70B5D1
:100900000D467B4400F043F80446284600F052F8B8
:1009100010B14FF0FF3070BD204670BDC38D000098
:1009200010B5203AC0F00B80B1E81850203AA0E88A
:100930001850B1E81850A0E81850BFF4F5AF5FEABE
:10094000027C24BFB1E81850A0E8185044BF18C971
:1009500018C0BDE810405FEA827C24BF51F8043B18
:1009600040F8043B08BF7047D20728BF31F8023B6C
:1009700048BF11F8012B28BF20F8023B48BF00F800
:10098000012B704701694A1C02610878704700B565
:100990008FB0CDE901310021059105497944CDE9B8
:1009A000031011466846FFF745FD0FB000BD00007B
:1009B000E5FFFFFF007B00F080007047754600F008
:1009C00029F8AE4605006946534620F007008546E3
:1009D00018B020B5FFF736FCBDE820404FF0000608
:1009E0004FF000074FF000084FF0000B21F0070117
:1009F000AC46ACE8C009ACE8C009ACE8C009ACE85A
:100A0000C0098D4670470446AFF300802046FFF7CB
:100A100007FC000000487047C4BF002000224FF4CC
:100A2000803105E00948406B00F0800000B103E030
:100A30000800A1F10101F5D100BF09B903207047F9
:100A400040F2FF50014B98631046F8E700800140E8
:100A5000024605E01348416B01F0450000B100E09B
:100A6000F8E700BF01F0040020B104200D4B9863AB
:100A70000320704701F0010018B10120094B986371
:100A8000F7E708480069904201D01020F1E740F2F2
:100A9000FF50044B98631846406908231840C0B2C1
:100AA000E7E700000080014010B500204FF48032DD
:100AB00005E0134B596B01F0450303B103E013004C
:100AC000A2F10102F5D100BF12B101F004033BB164
:100AD00003200B4B9B6B43F00403094CA36310BD35
:100AE00001F0010333B10120054B9B6B43F001037F
:100AF000034CA36340F2FF53014CA36300BFEEE736
:100B00000080014005E00C48416B01F0450000B158
:100B100000E0F8E700BF01F0040038B10648806B40
:100B200040F00400044A90630320704740F2FF50F5
:100B3000014A90630020F8E70080014070B5034649
:100B40000C46002505E02148426B02F0450000B14B
:100B500000E0F8E700BF02F0040038B11B48806BEA
:100B600040F00400194EB063032070BD02F0010094
:100B700038B11648806B40F00100144EB06301207C
:100B8000F3E712480069984201D01020EDE740F2E7
:100B9000FF500E4EB0633046416901F4604018B911
:100BA000080C20802846E0E701F4005008B113202B
:100BB000DBE701F4804008B11020D6E701F40040E3
:100BC00008B10F20D1E72846CFE7000000800140A0
:100BD00010B500204FF4803205E0114B596B01F045
:100BE000450303B103E01300A2F10102F5D100BFF8
:100BF00012B101F004033BB10320094B9B6B43F09E
:100C00000403074CA36310BD01F0400333B100207F
:100C1000034B9B6B43F04003014CA36300BFF2E71F
:100C200000800140FCB507460D4600260024002048
:100C30000090019008220121102004F06FFD102087
:100C4000FFF706FF04460CB12046FCBD3A04012123
:100C5000372004F063FD3720FFF7FAFE04460CB19D
:100C60002046F2E7012303220821101F04F06AFD49
:100C700000220121332004F051FD3320FFF7E8FE6C
:100C800004460CB12046E0E70DE03848406B00F424
:100C9000001040B13548803000684DF82600761CC1
:100CA000022E00D306E03148406B40F22A61084032
:100CB0000028EAD000BF2D48406B00F0080038B192
:100CC0002A48806B40F00800284988630420BCE76C
:100CD0002648406B00F0020038B12448806B40F099
:100CE0000200224988630220AFE72048406B00F0F1
:100CF000200038B11D48806B40F020001B498863FC
:100D00000620A2E71948406B00F4007038B117487C
:100D1000806B40F4007015498863072095E740F226
:100D2000FF501249886300980006009901F47F4142
:100D300040EA0120009901F47F0140EA1120009966
:100D400040EA1160686001980006019901F47F4152
:100D500040EA0120019901F47F0140EA1120019944
:100D600040EA1160286020466FE7000000800140E3
:100D70002DE9F05F82460F4614462046E21704EB49
:100D80005272D2102146E31704EB5373DB10A4EB2D
:100D9000C3030BB1012300E000231A44624302F0B5
:100DA000FF099AF800600AF1010082460578812E59
:100DB00005DB402D03DBFF2D01D0FF2E0DD14FF0C1
:100DC000000B06E0002007F8010B0BF1010000F01A
:100DD000FF0BCB45F6DBBDE8F09F7F2D03DAA5F1D5
:100DE0004000C5B202E0A5F14100C5B2A6F1810004
:100DF000C6B2BE2000FB065000FB09F80C2C04D044
:100E0000102C0CD0182C1ED113E01048D0F809007B
:100E100000EB08014A46384606F0EEF913E00B48AD
:100E2000D0F8110000EB08014A46384606F0E4F914
:100E300009E00648D0F8190000EB08014A46384698
:100E400006F0DAF900BF00BF00BFC4E764BF0020AE
:100E500072B6704762B670471CB504460020019018
:100E600000901F480088020401210D2004F056FC68
:100E70001C48406B009002E01A48406B00900098BC
:100E800000F045000028F7D0009800F0010038B1CC
:100E90001448806B40F001001249886301201CBD9A
:100EA000009800F0040038B10E48806B40F0040058
:100EB0000C4988630320F2E70A4800690D2801D035
:100EC0001020ECE740F2FF5006498863084640696D
:100ED00001900198C0F3432020700020DFE700005C
:100EE00014000020008001401548806940F0040093
:100EF000134988610846806940F0400088611148C4
:100F0000006820F00F000F4908600846006840F0B4
:100F1000080008600C4800680C4908400A4908604D
:100F2000084600680A4908430749086006480C302B
:100F3000006840F01C0004490C3108607047000054
:100F4000001002400008014000180140FF00F0FFBF
:100F50000088080010B5044614B101202349087028
:100F60002248007858B32248006858B12048001F32
:100F7000006838B11E480838006818B11D4800687C
:100F800001281CD10A2007F06FF8002017490870CB
:100F90001748006808B9012010BD1548001F0068F7
:100FA00008B90220F8E712480838006808B9032099
:100FB000F2E710480068012815D10420ECE70C483E
:100FC000006801280FD10A48001F006801280AD1D3
:100FD000074808380068012805D10648006810B99C
:100FE0000120024908700020D6E700000E00002012
:100FF000100123420001214230B5014601F01F04D7
:10100000C1F34513CA0AE50205EB43151544A8B21E
:1010100030BD000070B5044600261748058840889A
:1010200045431548808846F60401884216D1124887
:101030008079012812D100200F4988712A20488127
:101040002B2088810021084604F09AF801200A49E3
:1010500088712B2048812A20888103E000210846DE
:1010600004F08EF804F034FA002602E0034804800D
:10107000761CAE42FAD370BD7C0200200008006CE2
:101080002DE9F84F07460D4690469946DDF828B001
:10109000A8EB0700401C1FFA80FAA9EB0500401CD2
:1010A00080B20090002414E0281981B2384604F080
:1010B00067F804F00DFA002607E004FB0A603BF82D
:1010C000100006490880701C86B25645F5DB601C8E
:1010D00084B200988442E7DBBDE8F88F0008006C1A
:1010E00010B50446002C66D16C498871F020088048
:1010F0004FF4A07048800846808849F24131884208
:101100000BD06648808846F60401884205D06348C3
:10111000808845F2103188421AD12C205F4908811D
:101120002A2048812B2088810846808846F60401C1
:10113000884205D05948808845F21031884206D14E
:101140004FF4A070554908804FF4F0704880A1E03A
:101150005248808845F21051884210D14FF43050E7
:101160004E4908814FF4285048814FF42C50888113
:101170004FF4F07008804FF4487048808AE0474888
:10118000808841F6631188420DD12C2043490881A3
:101190002B2048812A2088814FF4F07008804FF47A
:1011A0004870488076E022203C4908812020488110
:1011B000212088816EE00120384988714FF4A070A9
:1011C0000880F02048800846808849F241318842F2
:1011D00005D03248808845F21031884207D12C2052
:1011E0002E4908812A2048812B2088813FE02B4806
:1011F000808846F60401884207D12C2027490881BF
:101200002B2048812A20888131E02448808845F2BB
:101210001051884210D14FF43050204908814FF4CA
:10122000285048814FF42C5088814FF44870088032
:101230004FF4F07048801AE01848808841F6631136
:1012400088420DD12C20154908812A2048812B2065
:1012500088814FF4487008804FF4F070488006E0B1
:1012600022200E49088121204881202088810B48B6
:10127000808846F60401884205D00848808845F2F7
:101280001031884206D14FF4F070044908804FF4C1
:10129000A0704880002003F0FDFD10BD7C020020FE
:1012A00030B503460C4615465A48808849F241310C
:1012B000884205D05748808845F21031884214D1C1
:1012C0005449488904F0FEF8181204F0F5F8D8B231
:1012D00004F0F2F84F49888904F0F4F8201204F081
:1012E000EBF8E0B204F0E8F88CE04A48808845F278
:1012F0001051884220D14749488904F0E3F8181278
:1013000004F0DAF843494989491C88B204F0DAF854
:10131000D8B204F0D1F83F49888904F0D3F82012FC
:1013200004F0CAF83B498989491C88B204F0CAF81C
:10133000E0B204F0C1F865E03648808841F66311F8
:10134000884228D13348807920B932480088401E2D
:10135000C01A83B22F49488904F0B4F8181204F077
:10136000ABF8D8B204F0A8F8181204F0A5F8D8B277
:1013700004F0A2F82749888904F0A4F8201204F0A8
:101380009BF8E0B204F098F8201204F095F8E0B26F
:1013900004F092F836E01F48808846F6040188423F
:1013A0001DD11C488079012804D11A480088401EAC
:1013B000C01A83B21749488904F084F8181204F05F
:1013C0007BF8D8B204F078F81249888904F07AF8EA
:1013D000201204F071F8E0B204F06EF812E00D484B
:1013E0008079012804D10B480088401EC01A83B2BE
:1013F00008494889194604F075F806498889214644
:1014000004F070F80348008903490880881C0580AF
:1014100030BD00007C020020FE07006C2DE9FC4F6F
:1014200005460E4617469846DDF82C9000200190A0
:101430002748808846F60401884229D124488079CB
:10144000012825D1AB46354621480088C01B401EE7
:1014500086B247461E480088A0EB0B00401E1FFACC
:1014600080F800201A4988712A2048812B20888121
:1014700043463A4631462846CDF80090FFF7CEFF66
:101480000120134988712B2048812A2088811CE083
:10149000781B401C80B20190344614E02146284657
:1014A00003F06EFE04F014F84FF0000A06E009485D
:1014B000A0F800900AF101001FFA80FA0198824515
:1014C000F5DB601C84B24445E8DDBDE8FC8F00001C
:1014D0007C0200200008006C10B5FD48406940F413
:1014E0008070FB4948610846806940F008008861C7
:1014F0000846806940F0200088610846806940F015
:10150000400088610846806940F480708861F14835
:10151000006820F00F00EF4908600846006840F0BE
:1015200003000860EC480068EC490840EA4908609C
:1015300008460068EA490843E7490860081F006850
:1015400000F0FF20091F08600846006840F0BB104B
:101550000860E44800680020E24908600846006826
:1015600040F0BB300860081F006820F07040091F81
:1015700008600846006840F030400860DA4840687B
:1015800020F47020D84948600846406840F4302074
:1015900048600846006820F00F00086008460068B0
:1015A00040F00B00086000204FF020418861C861C6
:1015B000CE4908604FF02040806940F480504FF0E1
:1015C000204188610846806940F48040886108466F
:1015D000806940F0100088610846C069C86108460B
:1015E000C06940F00100C8610846C06940F47060FD
:1015F000C861BE480068C1F81C01BC480068C1F859
:101600001C010846D0F81C0140F44070C1F81C01D0
:101610000846806940F001008861322006F024FD10
:10162000002003F001FCB249888008468088FF282A
:101630000ADB084680884FF6FF71884204D0AC4828
:101640008088B0F5134F7CD1D32003F03BFF03F02B
:101650002BFBA749888003F027FBA549888003F06E
:1016600023FBA3498880084680884FF6FF7101EA72
:1016700000209F49888003F017FB9D498988084313
:101680009B4988800846808849F24131884258D079
:10169000BF2003F017FF03F007FB9549888003F094
:1016A00003FB9349888003F0FFFA9149888003F097
:1016B000FBFA8F498880084680884FF6FF7101EA5F
:1016C00000208B49888003F0EFFA89498988084314
:1016D000874988800846808846F6040188427AD087
:1016E000D42003F0EFFE03F0DFFA8149888003F095
:1016F000DBFA7F49888003F0D7FA7D498880084665
:1017000080884FF6FF7101EA00207949888003F054
:10171000CBFA7749898808437549888008468088CC
:1017200045F21031884256D04FF45A4003F0CAFEB9
:1017300003F0BAFA6E4988804FF45B4003F0C2FEB2
:1017400000E048E003F0B0FA6949888008468088E4
:101750004FF6FF7101EA0020654988804FF45C4034
:1017600003F0B0FE03F0A0FA61498988084360499C
:10177000888008468088B0F5004F02D145F21050AD
:1017800088805B48808845F21051884223D0A12090
:1017900003F098FE03F088FA5549888003F084FA34
:1017A00053498880084680884FF6FF7101EA00207F
:1017B0004F49888003F078FA4D49898808434C499D
:1017C00088800846808845F26171884203D141F6DD
:1017D0006310474988804648818846A0FEF766FD29
:1017E0004348808849F24131884270D1CF2003F0CC
:1017F00069FE002003F060FEC12003F05DFE302092
:1018000003F05AFEED2003F05DFE642003F054FE69
:10181000032003F051FE122003F04EFE812003F05E
:101820004BFEE82003F04EFE852003F045FE10201D
:1018300003F042FE7A2003F03FFECB2003F042FE8D
:10184000392003F039FE2C2003F036FE002003F08F
:1018500033FE342003F030FE022003F02DFEF7208B
:1018600003F030FE202003F027FEEA2003F02AFEDA
:10187000002003F021FE002003F01EFEC02003F034
:1018800021FE1B2003F018FEC12003F01BFE0120E7
:1018900003F012FEC52003F015FE302003F00CFE0D
:1018A000302003F009FEC72003F00CFEB72003F040
:1018B00003FE362003F006FE482003F0FDFD3A202B
:1018C00003F000FE552003F0F7FDB1201AE0BFE061
:1018D00000100240000C01400414014000F0FF0021
:1018E000BB0B00BB04180140002001401C0100A0FC
:1018F0007C020020204C43442049443A25780D0ABC
:101900000000000003F0DEFD002003F0D5FD1A20EA
:1019100003F0D2FDB62003F0D5FD0A2003F0CCFD84
:10192000A22003F0C9FDF22003F0CCFD002003F05B
:10193000C3FD262003F0C6FD012003F0BDFDE0201D
:1019400003F0C0FD0F2003F0B7FD2A2003F0B4FD23
:10195000282003F0B1FD082003F0AEFD0E2003F0B7
:10196000ABFD082003F0A8FD542003F0A5FDA9203D
:1019700003F0A2FD432003F09FFD0A2003F09CFD2D
:101980000F2003F099FD002003F096FD002003F0E6
:1019900093FD002003F090FD002003F08DFDE12079
:1019A00003F090FD002003F087FD152003F084FD77
:1019B000172003F081FD072003F07EFD112003F0C6
:1019C0007BFD062003F078FD2B2003F075FD5620EB
:1019D00003F072FD3C2003F06FFD052003F06CFD69
:1019E000102003F069FD0F2003F066FD3F2003F097
:1019F00063FD3F2003F060FD0F2003F05DFD2B2011
:101A000003F060FD002003F057FD002003F054FDBB
:101A1000012003F051FD3F2003F04EFD2A2003F08A
:101A200051FD002003F048FD002003F045FD00209B
:101A300003F042FDEF2003F03FFD112003F042FDD3
:101A4000782006F011FB292003F03CFD03F01DB9BE
:101A5000FE48808846F6040188427CD1112003F0BC
:101A600031FD142006F000FBD02003F02BFD0720F1
:101A700003F022FD422003F01FFD1D2003F01CFD9A
:101A8000D12003F01FFD002003F016FD1A2003F003
:101A900013FD092003F010FDD22003F013FD0120F7
:101AA00003F00AFD222003F007FDC02003F00AFD29
:101AB000102003F001FD3B2003F0FEFC002003F0AA
:101AC000FBFC022003F0F8FC112003F0F5FCC5201C
:101AD00003F0F8FC032003F0EFFCC82003F0F2FC55
:101AE000002003F0E9FC252003F0E6FC212003F0B0
:101AF000E3FC052003F0E0FC002003F0DDFC0A20FD
:101B000003F0DAFC652003F0D7FC252003F0D4FCB9
:101B1000772003F0D1FC502003F0CEFC0F2003F01F
:101B2000CBFC002003F0C8FCF82003F0CBFC012024
:101B300003F0C2FCFE2003F0C5FC002003F0BCFC57
:101B4000022003F0B9FC202003F0BCFC362003F097
:101B5000B9FC082000E02CE003F0AEFC3A2003F0D2
:101B6000B1FC552003F0A8FC2B2003F0ABFC0020B7
:101B700003F0A2FC002003F09FFC012003F09CFC7A
:101B80003F2003F099FC2A2003F09CFC002003F086
:101B900093FC002003F090FC012003F08DFCDF207B
:101BA00003F08AFC782006F05FFA292003F08AFC13
:101BB0004CE7A648808845F21031884240F07C8787
:101BC000ED2003F07FFC012003F076FCFE2003F003
:101BD00073FCEE2003F076FCDE2003F06DFC212088
:101BE00003F06AFCF12003F06DFC012003F064FCBB
:101BF000DF2003F067FC102003F05EFCC42003F03C
:101C000061FC8F2003F058FCC62003F05BFC002031
:101C100003F052FCE22003F04FFCE22003F04CFC06
:101C2000E22003F049FCBF2003F04CFCAA2003F0A3
:101C300043FCB02003F046FC0D2003F03DFC0020E7
:101C400003F03AFC0D2003F037FC002003F034FCD5
:101C5000112003F031FC002003F02EFC192003F0CA
:101C60002BFC002003F028FC212003F025FC0020A1
:101C700003F022FC2D2003F01FFC002003F01CFCCD
:101C80003D2003F019FC002003F016FC5D2003F05A
:101C900013FC002003F010FC5D2003F00DFC00207D
:101CA00003F00AFCB12003F00DFC802003F004FCDB
:101CB000002003F001FC8B2003F0FEFB002003F06A
:101CC000FBFB962003F0F8FB002003F0F5FBB220AD
:101CD00003F0F8FB002003F0EFFB002003F0ECFB27
:101CE000022003F0E9FB002003F0E6FB032003F0F1
:101CF000E3FB002003F0E0FBB32003F0E3FB002054
:101D000003F0DAFB002003F0D7FB002003F0D4FB44
:101D1000002003F0D1FB002003F0CEFB002003F0F5
:101D2000CBFB002003F0C8FB002003F0C5FB002024
:101D300003F0C2FB002003F0BFFB002003F0BCFB5C
:101D4000002003F0B9FB002003F0B6FB002003F0F5
:101D5000B3FB002003F0B0FB002003F0ADFB00203C
:101D600003F0AAFB002003F0A7FB002003F0A4FB74
:101D7000002003F0A1FB002003F09EFB002003F0F5
:101D80009BFB002003F098FB002003F095FBB420A0
:101D900003F098FB8B2003F08FFB002003F08CFBFB
:101DA000962003F089FB002003F086FBA12003F0BE
:101DB00083FB002003F080FBB52003F083FB0220AF
:101DC00003F07AFB002003F077FB032003F074FBA1
:101DD000002003F071FB042003F06EFB002003F0F1
:101DE0006BFBB62003F06EFB002003F065FB0020C8
:101DF00003F062FBB72003F065FB002003F05CFBFF
:101E0000002003F059FB3F2003F056FB002003F0B5
:101E100053FB5E2003F050FB002003F04DFB6420D9
:101E200003F04AFB002003F047FB8C2003F044FB47
:101E3000002003F041FBAC2003F03EFB002003F048
:101E40003BFBDC2003F038FB002001E07C0200209B
:101E500003F032FB702003F02FFB002003F02CFB7B
:101E6000902003F029FB002003F026FBEB2003F079
:101E700023FB002003F020FBDC2003F01DFB0020EF
:101E800003F01AFBB82003F01DFB002003F014FB45
:101E9000002003F011FB002003F00EFB002003F0F4
:101EA0000BFB002003F008FB002003F005FB0020E3
:101EB00003F002FB002003F0FFFABA2003F002FB5C
:101EC000242003F0F9FA002003F0F6FA002003F0D2
:101ED000F3FA002003F0F0FAC12003F0F3FA202017
:101EE00003F0EAFA002003F0E7FA542003F0E4FAE2
:101EF000002003F0E1FAFF2003F0DEFA002003F0F7
:101F0000DBFAC22003F0DEFA0A2003F0D5FA002043
:101F100003F0D2FA042003F0CFFA002003F0CCFA49
:101F2000C32003F0CFFA3C2003F0C6FA002003F0F0
:101F3000C3FA3A2003F0C0FA002003F0BDFA3920BA
:101F400003F0BAFA002003F0B7FA372003F0B4FA2E
:101F5000002003F0B1FA3C2003F0AEFA002003F0B9
:101F6000ABFA362003F0A8FA002003F0A5FA3220DD
:101F700003F0A2FA002003F09FFA2F2003F09CFA4E
:101F8000002003F099FA2C2003F096FA002003F0C9
:101F900093FA292003F090FA002003F08DFA26200E
:101FA00003F08AFA002003F087FA242003F084FA71
:101FB000002003F081FA242003F07EFA002003F0D1
:101FC0007BFA232003F078FA002003F075FA3C2016
:101FD00003F072FA002003F06FFA362003F06CFA77
:101FE000002003F069FA322003F066FA002003F0C3
:101FF00063FA2F2003F060FA002003F05DFA2C2032
:1020000003F05AFA002003F057FA292003F054FA9B
:10201000002003F051FA262003F04EFA002003F0CE
:102020004BFA242003F048FA002003F045FA24205C
:1020300003F042FA002003F03FFA232003F03CFAB9
:10204000002003F039FAC42003F03CFA622003F0C8
:1020500033FA002003F030FA052003F02DFA0020B7
:1020600003F02AFA842003F027FA002003F024FA70
:10207000F02003F021FA002003F01EFA182003F0EC
:102080001BFA002003F018FAA42003F015FA002030
:1020900003F012FA182003F00FFA002003F00CFAF4
:1020A000502003F009FA002003F006FA0C2003F098
:1020B00003FA002003F000FA172003F0FDF90020D6
:1020C00003F0FAF9952003F0F7F9002003F0F4F992
:1020D000F32003F0F1F9002003F0EEF9E62003F01D
:1020E000EBF9002003F0E8F9C52003F0EBF932200A
:1020F00003F0E2F9002003F0DFF9442003F0DCF9FB
:10210000002003F0D9F9652003F0D6F9002003F090
:10211000D3F9762003F0D0F9002003F0CDF9882020
:1021200003F0CAF9002003F0C7F9C62003F0CAF98A
:10213000202003F0C1F9002003F0BEF9172003F0BE
:10214000BBF9002003F0B8F9012003F0B5F9002035
:1021500003F0B2F9C72003F0B5F9002003F0ACF9A1
:10216000002003F0A9F9002003F0A6F9002003F0F5
:10217000A3F9C82003F0A6F9002003F09DF9002080
:1021800003F09AF9002003F097F9002003F094F986
:10219000C92003F097F9002003F08EF9002003F026
:1021A0008BF9002003F088F9002003F085F9002066
:1021B00003F082F9002003F07FF9002003F07CF99E
:1021C000002003F079F9002003F076F9002003F0F5
:1021D00073F9002003F070F9002003F06DF900207E
:1021E00003F06AF9002003F067F9002003F064F9B6
:1021F000002003F061F9E02003F064F9162003F0F9
:102200005BF9002003F058F91C2003F055F9002079
:1022100003F052F9212003F04FF9002003F04CF9AC
:10222000362003F049F9002003F046F9462003F078
:1022300043F9002003F040F9522003F03DF900205B
:1022400003F03AF9642003F037F9002003F034F981
:102250007A2003F031F9002003F02EF98B2003F0EF
:102260002BF9002003F028F9992003F025F900202C
:1022700003F022F9A82003F01FF9002003F01CF955
:10228000B92003F019F9002003F016F9C42003F077
:1022900013F9002003F010F9CA2003F00DF9002013
:1022A00003F00AF9D22003F007F9002003F004F943
:1022B000D92003F001F9002003F0FEF8E02003F03C
:1022C000FBF8002003F0F8F8F32003F0F5F8002005
:1022D00003F0F2F8E12003F0F5F8162003F0ECF833
:1022E000002003F0E9F81C2003F0E6F8002003F0DA
:1022F000E3F8222003F0E0F8002003F0DDF83620B8
:1023000003F0DAF8002003F0D7F8452003F0D4F802
:10231000002003F0D1F8522003F0CEF8002003F0A3
:10232000CBF8642003F0C8F8002003F0C5F87A2049
:1023300003F0C2F8002003F0BFF88B2003F0BCF8D4
:10234000002003F0B9F8992003F0B6F8002003F05C
:10235000B3F8A82003F0B0F8002003F0ADF8B920DE
:1023600003F0AAF8002003F0A7F8C42003F0A4F8B3
:10237000002003F0A1F8CA2003F09EF8002003F02B
:102380009BF8D22003F098F8002003F095F8D820AD
:1023900003F092F8002003F08FF8E02003F08CF8AF
:1023A000002003F089F8F32003F086F8002003F002
:1023B00083F8E22003F086F8052003F07DF8002082
:1023C00003F07AF80B2003F077F8002003F074F89C
:1023D0001B2003F071F8002003F06EF8342003F0A6
:1023E0006BF8002003F068F8442003F065F8002043
:1023F00003F062F84F2003F05FF8002003F05CF870
:10240000612003F059F8002003F056F8792003F01A
:1024100053F8002003F050F8882003F04DF8002016
:1024200003F04AF8972003F047F8002003F044F83F
:10243000A62003F041F8002003F03EF8B72003F097
:102440003BF8002003F038F8C22003F035F80020F4
:1024500003F032F8C72003F02FF8002003F02CF827
:10246000D12003F029F8002003F026F8D62003F04D
:1024700023F8002003F020F8DD2003F01DF80020F1
:1024800003F01AF8F32003F017F8002003F014F813
:10249000E32003F017F8052003F00EF8002003F006
:1024A0000BF80A2003F008F8002003F005F81C20C0
:1024B00003F002F8002002F0FFFF332002F0FCFFDF
:1024C000002002F0F9FF442002F0F6FF002002F0A5
:1024D000F3FF502002F0F0FF002002F0EDFF622039
:1024E00002F0EAFF002002F0E7FF782002F0E4FFAC
:1024F000002002F0E1FF882002F0DEFF002002F061
:10250000DBFF972002F0D8FF002002F0D5FFA620C5
:1025100002F0D2FF002002F0CFFFB72002F0CCFF84
:10252000002002F0C9FFC22002F0C6FF002002F026
:10253000C3FFC72002F0C0FF002002F0BDFFD12082
:1025400002F0BAFF002002F0B7FFD52002F0B4FF7E
:10255000002002F0B1FFDD2002F0AEFF002002F00B
:10256000ABFFF32002F0A8FF002002F0A5FFE4205B
:1025700002F0A8FF012002F09FFF002002F09CFF64
:10258000012002F099FF002002F096FF022002F0E5
:1025900093FF002002F090FF2A2002F08DFF002020
:1025A00002F08AFF3C2002F087FF002002F084FF47
:1025B0004B2002F081FF002002F07EFF5D2002F040
:1025C0007BFF002002F078FF742002F075FF0020EE
:1025D00002F072FF842002F06FFF002002F06CFF17
:1025E000932002F069FF002002F066FFA22002F0B3
:1025F00063FF002002F060FFB32002F05DFF0020C7
:1026000002F05AFFBE2002F057FF002002F054FFF4
:10261000C42002F051FF002002F04EFFCD2002F056
:102620004BFF002002F048FFD32002F045FF0020BE
:1026300002F042FFDD2002F03FFF002002F03CFFED
:10264000F32002F039FF002002F036FFE52002F00F
:1026500039FF002002F030FF002002F02DFF0020A3
:1026600002F02AFF002002F027FF022002F024FFE0
:10267000002002F021FF292002F01EFF002002F0BE
:102680001BFF3C2002F018FF002002F015FF4B203A
:1026900002F012FF002002F00FFF5D2002F00CFF9D
:1026A000002002F009FF742002F006FF002002F073
:1026B00003FF842002F000FF002002F0FDFE9320C3
:1026C00002F0FAFE002002F0F7FEA22002F0F4FE73
:1026D000002002F0F1FEB32002F0EEFE002002F036
:1026E000EBFEBE2002F0E8FE002002F0E5FEC42072
:1026F00002F0E2FE002002F0DFFECD2002F0DCFE60
:10270000002002F0D9FED32002F0D6FE002002F015
:10271000D3FEDC2002F0D0FE002002F0CDFEF3203C
:1027200002F0CAFE002002F0C7FEE62002F0CAFE58
:10273000112002F0C1FE002002F0BEFE342002F0A3
:10274000BBFE002002F0B8FE562002F0B5FE0020CD
:1027500002F0B2FE762002F0AFFE002002F0ACFEE6
:10276000772002F0A9FE002002F0A6FE662002F00B
:10277000A3FE002002F0A0FE882002F09DFE0020B3
:1027800002F09AFE992002F097FE002002F094FEDB
:10279000BB2002F091FE002002F08EFE992002F094
:1027A0008BFE002002F088FE662002F085FE0020ED
:1027B00002F082FE552002F07FFE002002F07CFE37
:1027C000552002F079FE002002F076FE452002F04E
:1027D00073FE002002F070FE432002F06DFE002028
:1027E00002F06AFE442002F067FE002002F064FE60
:1027F000E72002F067FE322002F05EFE002002F0C9
:102800005BFE552002F058FE002002F055FE7620B7
:1028100002F052FE002002F04FFE662002F04CFE55
:10282000002002F049FE672002F046FE002002F080
:1028300043FE672002F040FE002002F03DFE8720AC
:1028400002F03AFE002002F037FE992002F034FE3A
:10285000002002F031FEBB2002F02EFE002002F02C
:102860002BFE992002F028FE002002F025FE7720A2
:1028700002F022FE002002F01FFE442002F01CFEA7
:10288000002002F019FE562002F016FE002002F091
:1028900013FE232002F010FE002002F00DFE332074
:1028A00002F00AFE002002F007FE452002F004FEBE
:1028B000002002F001FEE82002F004FE002002F0F9
:1028C000FBFD002002F0F8FD992002F0F5FD00204C
:1028D00002F0F2FD872002F0EFFD002002F0ECFD97
:1028E000882002F0E9FD002002F0E6FD772002F0EA
:1028F000E3FD002002F0E0FD662002F0DDFD002097
:1029000002F0DAFD882002F0D7FD002002F0D4FDAD
:10291000AA2002F0D1FD002002F0CEFDBB2002F083
:10292000CBFD002002F0C8FD992002F0C5FD00207B
:1029300002F0C2FD662002F0BFFD002002F0BCFDE7
:10294000552002F0B9FD002002F0B6FD552002F03E
:10295000B3FD002002F0B0FD442002F0ADFD0020E8
:1029600002F0AAFD442002F0A7FD002002F0A4FD21
:10297000552002F0A1FD002002F09EFDE92002F0AA
:10298000A1FDAA2002F098FD002002F095FD002094
:1029900002F092FD002002F08FFD002002F092FD77
:1029A000AA2002F089FDCF2002F08CFD002002F069
:1029B00083FD002002F080FD002002F07DFD00205C
:1029C00002F07AFD002002F077FD002002F074FD95
:1029D000002002F071FD002002F06EFD002002F0E8
:1029E0006BFD002002F068FD002002F065FD002074
:1029F00002F062FD002002F05FFD002002F05CFDAD
:102A0000002002F059FD002002F056FD002002F0E7
:102A100053FDF02002F056FD002002F04DFD502045
:102A200002F04AFD002002F047FD002002F044FDC4
:102A3000002002F041FDF32002F044FD002002F0EE
:102A40003BFDF92002F03EFD062002F035FD10208E
:102A500002F032FD292002F02FFD002002F02CFDB3
:102A60003A2002F02FFD552002F026FD112002F041
:102A700029FD642005F0F8FA292002F023FD352015
:102A800002F020FD002002F017FD512002F01AFD97
:102A9000FF2002F011FD532002F014FD2C2002F063
:102AA0000BFD552002F00EFD822002F005FD2C20CA
:102AB00002F008FD02F0E9B8FE48808845F21051A6
:102AC00088427DD155214FF4704002F00BFDAA21C0
:102AD0004FF2010002F006FD52214FF2020002F017
:102AE00001FD08214FF2030002F0FCFC01214FF22E
:102AF000040002F0F7FC0D214FF4304002F0F2FC2C
:102B00000D214BF2010002F0EDFC0D214BF2020011
:102B100002F0E8FC34214FF4364002F0E3FC3421AB
:102B20004BF2016002F0DEFC34214BF2026002F055
:102B3000D9FC0D214FF4314002F0D4FC0D214BF2B1
:102B4000011002F0CFFC0D214BF2021002F0CAFC82
:102B500034214FF4374002F0C5FC34214BF20170B0
:102B600002F0C0FC34214BF2027002F0BBFC0021E9
:102B70004FF4324002F0B6FC00214BF2012002F08B
:102B8000B1FC00214BF2022002F0ACFC24214FF4F6
:102B9000384002F0A7FC24214BF6010002F0A2FC11
:102BA00024214BF6020002F09DFC01214FF43F402E
:102BB00002F098FC0F214FF4334002F093FC00E048
:102BC000FDE30F214BF2013002F08CFC0F214BF2A0
:102BD000023002F087FC34214FF4394002F082FCCD
:102BE00034214BF6011002F07DFC34214BF602102B
:102BF00002F078FC08214FF4354002F073FC082104
:102C00004BF2015002F06EFC08214BF2025002F030
:102C100069FC03214FF4424002F064FC24214FF48C
:102C20003A4002F05FFC24214BF6012002F05AFCEE
:102C300024214BF6022002F055FC00214FF43C40C9
:102C400002F050FC78214BF6014002F04BFC0021D1
:102C50004BF6024002F046FC00214FF43D4002F0EA
:102C600041FC78214BF6015002F03CFC00214BF670
:102C7000025002F037FC00214FF43E4002F032FCDB
:102C800064214BF6016002F02DFC00214FF451400D
:102C900002F028FC33214DF2011002F023FC002148
:102CA0004DF2021002F01EFC34214DF2031002F02E
:102CB00019FC00214DF2041002F014FC3A214DF2EF
:102CC000051002F00FFC00214DF2061002F00AFC84
:102CD0004A214DF2071002F005FC00214DF20810C8
:102CE00002F000FC5C214DF2091002F0FBFB002118
:102CF0004DF20A1002F0F6FB81214DF20B1002F0AA
:102D0000F1FB00214DF20C1002F0ECFBA6214DF27C
:102D10000D1002F0E7FB00214DF20E1002F0E2FB75
:102D2000E5214DF20F1002F0DDFB01214DF21010F4
:102D300002F0D8FB13214DF2111002F0D3FB012158
:102D40004DF2121002F0CEFB54214DF2131002F09E
:102D5000C9FB01214DF2141002F0C4FB82214DF297
:102D6000151002F0BFFB01214DF2161002F0BAFB64
:102D7000CA214DF2171002F0B5FB02214DF21810D6
:102D800002F0B0FB00214DF2191002F0ABFB022162
:102D90004DF21A1002F0A6FB01214DF21B1002F0B9
:102DA000A1FB02214DF21C1002F09CFB34214DF2DC
:102DB0001D1002F097FB02214DF21E1002F092FB53
:102DC00067214DF21F1002F08DFB02214DF2201001
:102DD00002F088FB84214DF2211002F083FB0221D6
:102DE0004DF2221002F07EFBA4214DF2231002F0DE
:102DF00079FB02214DF2241002F074FBB7214DF251
:102E0000251002F06FFB02214DF2261002F06AFB42
:102E1000CF214DF2271002F065FB02214DF2281060
:102E200002F060FBDE214DF2291002F05BFB022173
:102E30004DF22A1002F056FBF2214DF22B1002F057
:102E400051FB02214DF22C1002F04CFBFE214DF201
:102E50002D1002F047FB03214DF22E1002F042FB31
:102E600010214DF22F1002F03DFB03214DF23010E6
:102E700002F038FB33214DF2311002F033FB032115
:102E80004DF2321002F02EFB6D214DF2331002F0A4
:102E900029FB00214FF4524002F024FB33214DF274
:102EA000012002F01FFB00214DF2022002F01AFB6C
:102EB000342101E07C0200204DF2032002F012FBDD
:102EC00000214DF2042002F00DFB3A214DF20520C5
:102ED00002F008FB00214DF2062002F003FB4A211C
:102EE0004DF2072002F0FEFA00214DF2082002F018
:102EF000F9FA5C214DF2092002F0F4FA00214DF2BA
:102F00000A2002F0EFFA81214DF20B2002F0EAFADA
:102F100000214DF20C2002F0E5FAA6214DF20D2021
:102F200002F0E0FA00214DF20E2002F0DBFAE5217A
:102F30004DF20F2002F0D6FA01214DF2102002F0DE
:102F4000D1FA13214DF2112002F0CCFA01214DF2F9
:102F5000122002F0C7FA54214DF2132002F0C2FAF7
:102F600001214DF2142002F0BDFA82214DF215200C
:102F700002F0B8FA01214DF2162002F0B3FACA218C
:102F80004DF2172002F0AEFA02214DF2182002F0A5
:102F9000A9FA00214DF2192002F0A4FA02214DF203
:102FA0001A2002F09FFA01214DF21B2002F09AFA3A
:102FB00002214DF21C2002F095FA34214DF21D2021
:102FC00002F090FA02214DF21E2002F08BFA6721E6
:102FD0004DF21F2002F086FA02214DF2202002F06D
:102FE00081FA84214DF2212002F07CFA02214DF277
:102FF000222002F077FAA4214DF2232002F072FA87
:1030000002214DF2242002F06DFAB7214DF2252065
:1030100002F068FA02214DF2262002F063FACF2175
:103020004DF2272002F05EFA02214DF2282002F034
:1030300059FADE214DF2292002F054FA02214DF214
:103040002A2002F04FFAF2214DF22B2002F04AFA28
:1030500002214DF22C2002F045FAFE214DF22D20E6
:1030600002F040FA03214DF22E2002F03BFA10212B
:103070004DF22F2002F036FA03214DF2302002F0FB
:1030800031FA33214DF2312002F02CFA03214DF2B6
:10309000322002F027FA6D214DF2332002F022FA9D
:1030A00000214FF4534002F01DFA33214DF201305C
:1030B00002F018FA00214DF2023002F013FA342126
:1030C0004DF2033002F00EFA00214DF2043002F00E
:1030D00009FA3A214DF2053002F004FA00214DF2CE
:1030E000063002F0FFF94A214DF2073002F0FAF9FA
:1030F00000214DF2083002F0F5F95C214DF2093063
:1031000002F0F0F900214DF20A3002F0EBF98121D2
:103110004DF20B3002F0E6F900214DF20C3002F0D6
:10312000E1F9A6214DF20D3002F0DCF900214DF25B
:103130000E3002F0D7F9E5214DF20F3002F0D2F94E
:1031400001214DF2103002F0CDF913214DF2113072
:1031500002F0C8F901214DF2123002F0C3F95421F6
:103160004DF2133002F0BEF901214DF2143002F09D
:10317000B9F982214DF2153002F0B4F901214DF276
:10318000163002F0AFF9CA214DF2173002F0AAF959
:1031900002214DF2183002F0A5F900214DF219304C
:1031A00002F0A0F902214DF21A3002F09BF9012140
:1031B0004DF21B3002F096F902214DF21C3002F064
:1031C00091F934214DF21D3002F08CF902214DF2BB
:1031D0001E3002F087F967214DF21F3002F082F9AC
:1031E00002214DF2203002F07DF984214DF2213090
:1031F00002F078F902214DF2223002F073F9A42195
:103200004DF2233002F06EF902214DF2243002F02B
:1032100069F9B7214DF2253002F064F902214DF22F
:10322000263002F05FF9CF214DF2273002F05AF933
:1032300002214DF2283002F055F9DE214DF22930FD
:1032400002F050F902214DF22A3002F04BF9F2213E
:103250004DF22B3002F046F902214DF22C3002F0F3
:1032600041F9FE214DF22D3002F03CF903214DF2DF
:103270002E3002F037F910214DF22F3002F032F9E2
:1032800003214DF2303002F02DF933214DF231306F
:1032900002F028F903214DF2323002F023F96D21BA
:1032A0004DF2333002F01EF900214FF4544002F089
:1032B00019F933214DF2014002F014F900214DF2C9
:1032C000024002F00FF934214DF2034002F00AF9F6
:1032D00000214DF2044002F005F93A214DF205407B
:1032E00002F000F900214DF2064002F0FBF84A21FD
:1032F0004DF2074002F0F6F800214DF2084002F0CE
:10330000F1F85C214DF2094002F0ECF800214DF299
:103310000A4002F0E7F881214DF20B4002F0E2F89A
:1033200000214DF20C4002F0DDF8A6214DF20D40D7
:1033300002F0D8F800214DF20E4002F0D3F8E5215A
:103340004DF20F4002F0CEF801214DF2104002F094
:10335000C9F813214DF2114002F0C4F801214DF2D9
:10336000124002F0BFF854214DF2134002F0BAF8B7
:1033700001214DF2144002F0B5F882214DF21540C2
:1033800002F0B0F801214DF2164002F0ABF8CA216C
:103390004DF2174002F0A6F802214DF2184002F05B
:1033A000A1F800214DF2194002F09CF802214DF2E3
:1033B0001A4002F097F801214DF21B4000E006E3AD
:1033C00002F090F802214DF21C4002F08BF83421FB
:1033D0004DF21D4002F086F802214DF21E4002F02F
:1033E00081F867214DF21F4002F07CF802214DF276
:1033F000204002F077F884214DF2214002F072F86B
:1034000002214DF2224002F06DF8A4214DF223403A
:1034100002F068F802214DF2244002F063F8B7216F
:103420004DF2254002F05EF802214DF2264002F0F6
:1034300059F8CF214DF2274002F054F802214DF205
:10344000284002F04FF8DE214DF2294002F04AF800
:1034500002214DF22A4002F045F8F2214DF22B40B4
:1034600002F040F802214DF22C4002F03BF8FE2120
:103470004DF22D4002F036F803214DF22E4002F0BD
:1034800031F810214DF22F4002F02CF803214DF2BB
:10349000304002F027F833214DF2314002F022F89B
:1034A00003214DF2324002F01DF86D214DF2334000
:1034B00002F018F800214FF4554002F013F83321C0
:1034C0004DF2015002F00EF800214DF2025002F0D0
:1034D00009F834214DF2035002F004F800214DF2B6
:1034E000045001F0FFFF3A214DF2055001F0FAFFC0
:1034F00000214DF2065001F0F5FF4A214DF2075030
:1035000001F0F0FF00214DF2085001F0EBFF5C21CB
:103510004DF2095001F0E6FF00214DF20A5001F092
:10352000E1FF81214DF20B5001F0DCFF00214DF253
:103530000C5001F0D7FFA6214DF20D5001F0D2FF43
:1035400000214DF20E5001F0CDFFE5214DF20F505C
:1035500001F0C8FF01214DF2105001F0C3FF13210B
:103560004DF2115001F0BEFF01214DF2125001F059
:10357000B9FF54214DF2135001F0B4FF01214DF277
:10358000145001F0AFFF82214DF2155001F0AAFF57
:1035900001214DF2165001F0A5FFCA214DF217503E
:1035A00001F0A0FF02214DF2185001F09BFF002115
:1035B0004DF2195001F096FF02214DF21A5001F020
:1035C00091FF01214DF21B5001F08CFF02214DF2C1
:1035D0001C5001F087FF34214DF21D5001F082FF95
:1035E00002214DF21E5001F07DFF67214DF21F5068
:1035F00001F078FF02214DF2205001F073FF842189
:103600004DF2215001F06EFF02214DF2225001F0E7
:1036100069FFA4214DF2235001F064FF02214DF215
:10362000245001F05FFFB7214DF2255001F05AFF01
:1036300002214DF2265001F055FFCF214DF22750C7
:1036400001F050FF02214DF2285001F04BFFDE2126
:103650004DF2295001F046FF02214DF22A5001F0AF
:1036600041FFF2214DF22B5001F03CFF02214DF2BF
:103670002C5001F037FFFE214DF22D5001F032FFAA
:1036800003214DF22E5001F02DFF10214DF22F504D
:1036900001F028FF03214DF2305001F023FF3321C8
:1036A0004DF2315001F01EFF03214DF2325001F076
:1036B00019FF6D214DF2335001F014FF00214FF43A
:1036C000564001F00FFF33214DF2016001F00AFF77
:1036D00000214DF2026001F005FF34214DF203603C
:1036E00001F000FF00214DF2046001F0FBFE3A21E1
:1036F0004DF2056001F0F6FE00214DF2066001F08A
:10370000F1FE4A214DF2076001F0ECFE00214DF27E
:10371000086001F0E7FE5C214DF2096001F0E2FE75
:1037200000214DF20A6001F0DDFE81214DF20B60B7
:1037300001F0D8FE00214DF20C6001F0D3FEA6216D
:103740004DF20D6001F0CEFE00214DF20E6001F051
:10375000C9FEE5214DF20F6001F0C4FE01214DF2DA
:10376000106001F0BFFE13214DF2116001F0BAFEAE
:1037700001214DF2126001F0B5FE54214DF21360AB
:1037800001F0B0FE01214DF2146001F0ABFE822188
:103790004DF2156001F0A6FE01214DF2166001F018
:1037A000A1FECA214DF2176001F09CFE02214DF2EC
:1037B000186001F097FE00214DF2196001F092FEB1
:1037C00002214DF21A6001F08DFE01214DF21B60C5
:1037D00001F088FE02214DF21C6001F083FE3421CD
:1037E0004DF21D6001F07EFE02214DF21E6001F0DF
:1037F00079FE67214DF21F6001F074FE02214DF247
:10380000206001F06FFE84214DF2216001F06AFE1C
:1038100002214DF2226001F065FEA4214DF22360E9
:1038200001F060FE02214DF2246001F05BFEB72141
:103830004DF2256001F056FE02214DF2266001F0A6
:1038400051FECF214DF2276001F04CFE02214DF2D6
:10385000286001F047FEDE214DF2296001F042FEB2
:1038600002214DF22A6001F03DFEF2214DF22B6063
:1038700001F038FE02214DF22C6001F033FEFE21F2
:103880004DF22D6001F02EFE03214DF22E6001F06D
:1038900029FE10214DF22F6001F024FE03214DF28C
:1038A000306001F01FFE33214DF2316001F01AFE4D
:1038B00003214DF2326001F015FE6D214DF23360AF
:1038C00001F010FE55214FF4704001F00BFEAA21CB
:1038D0004FF2010001F006FE52214FF2020001F00A
:1038E00001FE08214FF2030001F0FCFD00214FF220
:1038F000040001F0F7FDCC214FF4314001F0F2FD5E
:1039000000214BF2011001F0EDFD05214FF436408E
:1039100001F0E8FD70214FF4374001F0E3FD702124
:103920004BF2017001F0DEFD01214FF4384001F04F
:10393000D9FD03214BF6010001F0D4FD03214BF624
:10394000020001F0CFFD03214BF6030001F0CAFD98
:1039500002214FF43C4001F0C5FD00214BF601402F
:1039600001F0C0FD00214BF6024001F0BBFDD0216B
:103970004FF4494001F0B6FD02214CF6011001F070
:10398000B1FD50214CF6021001F0ACFD50214CF677
:10399000031001F0A7FD50214CF6041001F0A2FD28
:1039A00000214FF4545001F09DFD55214FF4685013
:1039B00001F098FD4FF4885001F084FD782004F068
:1039C00071FB4FF4245001F07DFD01F05EB9FE481B
:1039D000808849F2253188427ED147F6F001E52002
:1039E00001F080FD4FF48071012001F07BFD4FF468
:1039F000E061022001F076FD41F23001032001F088
:103A000071FD0021042001F06DFD40F2022108202B
:103A100001F068FD0021092001F064FD00210A2069
:103A200001F060FD00210C2001F05CFD00210D2063
:103A300001F058FD00210F2001F054FD002110205D
:103A400001F050FD0721112001F04CFD0021122052
:103A500001F048FD0021132001F044FD0021072062
:103A600001F040FD41F29061102001F03BFD40F279
:103A70002721112001F036FD9D21122001F032FD99
:103A80004FF4C851132001F02DFD2521292001F00C
:103A900029FD0D212B2001F025FD0721302001F00B
:103AA00021FD40F20331312001F01CFD03213220C1
:103AB00001F018FD40F20621352001F013FD082128
:103AC000362001F00FFD40F20641372001F00AFDDB
:103AD0004FF44171382000E057E001F003FD072169
:103AE000392001F0FFFC40F202613C2001F0FAFCB9
:103AF00008213D2001F0F6FC0021502001F0F2FCED
:103B0000EF21512001F0EEFC0021522001F0EAFCEF
:103B100040F23F11532001F0E5FC4FF427416020B3
:103B200001F0E0FC0121612001F0DCFC00216A20B1
:103B300001F0D8FC0021802001F0D4FC002181207C
:103B400001F0D0FC0021822001F0CCFC0021832078
:103B500001F0C8FC0021842001F0C4FC0021852074
:103B600001F0C0FC1021902001F0BCFC4FF4C061BA
:103B7000922001F0B7FC40F23311072001F0B2FCB3
:103B80002221002001F0AEFC1FE78F48808849F217
:103B9000283188427ED141F28F01EC2001F0A2FC55
:103BA00041F23421EF2001F09DFC4FF4807101209F
:103BB00001F098FC4FF4E061022001F093FC41F227
:103BC0003001032001F08EFC0021042001F08AFC6A
:103BD00040F20221082001F085FC0021092001F0BB
:103BE00081FC00210A2001F07DFC01210C2001F064
:103BF00079FC00210D2001F075FC00210F2001F05F
:103C000071FC0021102001F06DFC0721112001F052
:103C100069FC0021122001F065FC0021132001F055
:103C200061FC0121072001F05DFC322004F01CFA48
:103C300041F29041102001F055FC40F22721112063
:103C400001F050FC322004F00FFA8A21122001F01A
:103C500049FC322004F008FA4FF4D051132001F04F
:103C600041FC0621292001F03DFC0D212B2001F013
:103C700039FC322004F0F8F90021202001F032FC58
:103C80000021212001F02EFC322004F0EDF900216A
:103C9000302000E074E001F025FC40F204613120A6
:103CA00001F020FC40F20531322001F01BFC002124
:103CB000352001F017FC40F60941362001F012FCD6
:103CC0004FF40171372001F00DFC40F20131382032
:103CD00001F008FC40F20771392001F003FC0021DB
:103CE0003C2001F0FFFB40F60A213D2001F0FAFBE9
:103CF000322004F0B9F90021502001F0F3FBEF214C
:103D0000512001F0EFFB0021522001F0EBFB40F2CB
:103D10003F11532001F0E6FB4FF42741602001F0F2
:103D2000E1FB0121612001F0DDFB00216A2001F0AF
:103D3000D9FB0021802001F0D5FB0021812001F07A
:103D4000D1FB0021822001F0CDFB0021832001F076
:103D5000C9FB0021842001F0C5FB0021852001F072
:103D6000C1FB1021902001F0BDFB4FF4C0619220F7
:103D700001F0B8FB40F23311072001F0B3FB24E659
:103D80001148808849F2203188427DD100210846BF
:103D900001F0A8FB4FF48071012001F0A3FB4FF468
:103DA000E061022001F09EFB41F23001032001F0AE
:103DB00099FB0021042001F095FB40F2022108202C
:103DC00001F090FB002101E07C020020092001F0BD
:103DD00089FB00210A2001F085FB01210C2001F064
:103DE00081FB00210D2001F07DFB00210F2001F05F
:103DF00079FB322004F038F940F20111072001F07C
:103E000071FB322004F030F94FF48651102001F09C
:103E100069FB0721112001F065FB4FF48871122026
:103E200001F060FB4FF43061132001F05BFB0021D7
:103E3000292001F057FB44F210012B2001F052FB26
:103E40000021502001F04EFBEF21512001F04AFBF0
:103E50000021522001F046FB40F23F11532001F0B7
:103E600041FB4FF41C51602001F03CFB012161201B
:103E700001F038FB00216A2001F034FB0021802092
:103E800001F030FB002100E031E0812001F02AFB4D
:103E90000021822001F026FB0021832001F022FB7B
:103EA0000021842001F01EFB0021852001F01AFB77
:103EB0001021902001F016FB0021922001F012FB4E
:103EC0000121932001F00EFB4FF48871952001F041
:103ED00009FB0021972001F005FB0021982001F04B
:103EE00001FB40F27311072001F0FCFA6DE5FE487A
:103EF000808849F2313188427DD141F21401E720B6
:103F000001F0F0FA4FF48071012001F0EBFA4FF468
:103F10000071022001F0E6FA41F23801032001F0BD
:103F2000E1FA40F20221082001F0DCFA0021092028
:103F300001F0D8FA00210A2001F0D4FA00210C2067
:103F400001F0D0FA00210D2001F0CCFA00210F2061
:103F500001F0C8FA0021102001F0C4FA0721112055
:103F600001F0C0FA0021122001F0BCFA0021132058
:103F700001F0B8FAC82004F077F841F290611020FF
:103F800001F0B0FA40F22721112001F0ABFA322003
:103F900004F06AF80C21122001F0A4FA322004F097
:103FA00063F84FF40061132001F09CFA11212920DD
:103FB00001F098FA0B212B2001F094FA322004F042
:103FC00053F80021202001F08DFA40F23F1121200A
:103FD00001F088FA0021302001F084FA4FF4837157
:103FE000312001F07FFA0021322001F07BFA4FF4FA
:103FF0000171352000E064E001F074FA41F20A61D9
:10400000362001F06FFA40F20771372001F06AFAAA
:104010004FF48371382001F065FA40F207713920BE
:1040200001F060FA40F202413C2001F05BFA40F6F8
:104030000F413D2001F056FA0021502001F052FAC4
:10404000EF21512001F04EFA0021522001F04AFAEE
:1040500040F23F11532001F045FA4FF41C5160200B
:1040600001F040FA0121612001F03CFA00216A20B0
:1040700001F038FA0021802001F034FA002181207B
:1040800001F030FA0021822001F02CFA0021832077
:1040900001F028FA0021842001F024FA0021852073
:1040A00001F020FA1021902001F01CFA4FF4C061B9
:1040B000922001F017FA40F23311072001F012FAB2
:1040C00083E48948808845F2084188427ED14FF4D4
:1040D0008071012001F006FA4FF4E061022001F046
:1040E00001FA41F23001032001F0FCF90021042023
:1040F00001F0F8F940F20721082001F0F3F900215E
:10410000092001F0EFF900210A2001F0EBF900216C
:104110000C2001F0E7F900210D2001F0E3F9002166
:104120000F2001F0DFF9142003F09EFF41F2B0618F
:10413000102001F0D7F90121112001F0D3F901215C
:10414000172001F0CFF94FF49C71122001F0CAF949
:104150004FF40061132001F0C5F90921292001F075
:10416000C1F909212A2001F0BDF90021A42001F0A4
:10417000B9F90021502001F0B5F9EF21512001F0EB
:10418000B1F90021522001F0ADF940F23F11532066
:1041900001F0A8F94FF41C51602001F0A3F90121AE
:1041A000612001F09FF900216A2001F09BF90021B4
:1041B000802001F097F90021812001F093F900217E
:1041C000822001F08FF90021832000E023E001F03C
:1041D00089F90021842001F085F90021852001F072
:1041E00081F91321902001F07DF90021922001F046
:1041F00079F90321932001F075F94FF48871952026
:1042000001F070F940F27311072001F06BF93220D0
:1042100003F02AFFB8E43448808841F2055188420F
:104220007ED10021072001F05DF9322003F01CFF50
:104230004FF48E71122001F055F90121A42001F0F4
:1042400051F90F21082001F04DF908210A2001F051
:1042500049F908210D2001F045F940F2077130209D
:1042600001F040F90721312001F03CF940F20361EF
:10427000322001F037F94FF4E061332001F032F9D8
:1042800040F20221342001F02DF90221352001F005
:1042900029F941F60F71362001F024F940F2077137
:1042A000372001F01FF90021382001F01BF900210F
:1042B000392001F017F940F207713A2001F012F9A4
:1042C00000213B2001F00EF907213C2001F00AF902
:1042D00000213D2001F006F9322003F0C5FE012146
:1042E000072001F0FFF801E07C02002001211720E7
:1042F00001F0F8F8322003F0B7FE4FF4BD51102062
:1043000001F0F0F840F21721112001F0EBF84FF422
:104310008F71122001F0E6F84FF47061132000E075
:1043200097E001F0DFF800212A2001F0DBF80A21F4
:10433000292001F0D7F84FF49F71122001F0D2F834
:104340000021502001F0CEF8EF21512001F0CAF8F1
:104350000021522001F0C6F840F23F11532001F035
:10436000C1F84FF41C51602001F0BCF8012161201C
:1043700001F0B8F800216A2001F0B4F80021802093
:1043800001F0B0F80021812001F0ACF8002182207A
:1043900001F0A8F80021832001F0A4F80021842076
:1043A00001F0A0F80021852001F09CF81321902055
:1043B00001F098F84FF44071922001F093F8052134
:1043C000932001F08FF80021952001F08BF8002157
:1043D000972001F087F80021982001F083F84FF42E
:1043E0008071012001F07EF84FF4E061022001F0BD
:1043F00079F841F23801032001F074F8002104201B
:1044000001F070F800210C2001F06CF800210F2061
:1044100001F068F80021202001F064F8002121203B
:1044200001F060F82121072001F05CF8142003F06E
:104430001BFE6121072001F055F8142003F014FE43
:1044400040F27311072001F04DF8142003F00CFE28
:1044500095E4FE4880884BF2055188427ED10021C8
:10446000084601F03FF80021084601F03BF8002122
:10447000084601F037F80021084601F033F8012121
:10448000A42001F02FF8142003F0EEFD4FF41C518E
:10449000602001F027F840F20221082001F022F804
:1044A0004FF40571302001F01DF843F215713120F1
:1044B00001F018F840F20461322001F013F840F6E0
:1044C0001661332001F00EF842F21121342001F080
:1044D00009F84FF4A851352001F004F848F20751CB
:1044E000362000F0FFFF41F20741372000F0FAFFCD
:1044F00041F20341382000F0F5FF2021392000F07F
:10450000F1FF1A21902000F0EDFF0021102000F0B3
:10451000E9FF0721112000F0E5FF0021122000F043
:10452000E1FF0021132000F0DDFF142003F09CFDCB
:104530004FF4E661102000F0D5FF40F23711112052
:1045400000F0D0FF142003F08FFD4FF4DC71122037
:1045500000F0C8FF142003F087FD00E083E04FF473
:104560007061132000F0BEFF80212A2000F0BAFF06
:104570004821292000F0B6FF142003F075FD4FF408
:104580008071012000F0AEFF4FF4E061022000F0E6
:10459000A9FF41F23801032000F0A4FF40F20221FC
:1045A000082000F09FFF00210A2000F09BFF00215F
:1045B0000C2000F097FF00210D2000F093FF302128
:1045C0000E2000F08FFF0021502000F08BFFEF2124
:1045D000512000F087FF0021522000F083FF40F2BD
:1045E0003F11532000F07EFF4FF41C51602000F07B
:1045F00079FF0121612000F075FF00216A2000F0A1
:1046000071FF1121902000F06DFF4FF4C0619220E6
:1046100000F068FF40F20241932000F063FF0221A6
:10462000942000F05FFF142003F01EFD01210720FD
:1046300000F058FF142003F017FD6121072000F05F
:1046400051FF40F27311072000F04CFF00212020A1
:1046500000F048FF0021212000F044FF222100202B
:1046600000F040FF11E3794880884CF20551884200
:104670007ED10021084600F035FF0021084600F0F9
:1046800031FF142003F0F0FC0021084600F02AFF5F
:104690000021084600F026FF0021084600F022FF16
:1046A0000021084600F01EFF0121A42000F01AFF9F
:1046B000142003F0D9FC4FF41C51602000F012FFCD
:1046C00040F60601082000F00DFF40F20371302093
:1046D00000F008FF0121312000F004FF0421322006
:1046E00000F000FF4FF48171332000F0FBFE4FF427
:1046F0004071342000F0F6FE40F20311352000F046
:10470000F1FE1F21362000F0EDFE40F2037137204C
:1047100000F0E8FE0121382000F0E4FE04213920F9
:1047200000F0E0FE1521902000F0DCFE4FF48261E5
:10473000102000F0D7FE40F24721112000F0D2FEF9
:104740004FF4DE71122000F0CDFE4FF460611320B3
:1047500000F0C8FE782003F087FC4FF48071012040
:1047600000F0C0FE4FF40071022000F0BBFE00E03C
:1047700050E041F23001032000F0B4FE08210A208D
:1047800000F0B0FE00210C2000F0ACFE20210E2035
:1047900000F0A8FE00210F2000F0A4FE0021202040
:1047A00000F0A0FE0021212000F09CFE3D212A20E7
:1047B00000F098FE142003F057FC2D21292000F072
:1047C00091FE0021502000F08DFE4DF2EF015120AE
:1047D00000F088FE0021522000F084FE40F23F11DC
:1047E000532000F07FFE0021612000F07BFE0021BD
:1047F0006A2000F077FE4FF44071922000F072FEC4
:104800000521932000F06EFE4FF48071072000F028
:1048100069FE3AE20D48808844F2315188427CD1E9
:104820000121002000F05EFE0A2003F01DFC41F291
:104830002861102000F056FE0E21122000F052FEDA
:1048400040F63921132000F04DFE01E07C020020EB
:104850000A2003F009FC4021112000F043FE502102
:10486000152000F03FFE0A2003F0FEFB1E2112205F
:1048700000F038FE0A2003F0F7FB4FF4B15110208E
:1048800000F030FE42F63921132000F02BFE0A2002
:1048900003F0EAFB4FF48071012000F023FE4FF497
:1048A0004071022000F01EFE41F23801032000F0AA
:1048B00019FE40F20221082000F014FE08210A200F
:1048C00000F010FE0021302000F00CFE40F202410A
:1048D000312000F007FE4FF48371322000F002FE19
:1048E00040F20351332000F0FDFD4FF4827134207B
:1048F00000F0F8FD40F20131352000F0F3FD40F208
:104900000771362000F0EEFD40F20531372000F04F
:10491000E9FD4FF40271382000E040E000F0E2FDD4
:1049200040F60B71392000F0DDFD0221412000F03E
:10493000D9FD4FF41C51602000F0D4FD012161200D
:1049400000F0D0FD4FF40471902000F0CBFD4FF447
:104950008571922000F0C6FD0421932000F0C2FD75
:104960004FF48071A02000F0BDFD0121072000F070
:10497000B9FD2121072000F0B5FD2321072000F01B
:10498000B1FD3321072000F0ADFD40F233110720C7
:1049900000F0A8FD0021A02000F0A4FD75E1C048B2
:1049A000808844F2355188427ED13021152000F0B4
:1049B00099FD10219A2000F095FD2021112000F092
:1049C00091FD43F22841102000F08CFD02211220BD
:1049D00000F088FD41F23801132000F083FD28200B
:1049E00003F042FB1221084600F07CFD282003F072
:1049F0003BFB43F22041102000F074FD43F23801EC
:104A0000132000F06FFD462003F02EFB0021302024
:104A100000F068FD40F20241312000F063FD40F2F9
:104A20000731322000F05EFD4FF44171332000F079
:104A300059FD0421342000F055FD40F2014135209C
:104A400000F050FD40F20771362000F04BFD40F2BF
:104A50000531372000F046FD4FF4C261382000F0E8
:104A600041FD4FF4C261392000F03CFD4FF48071EC
:104A7000012000F037FD4FF44071022000F032FDBC
:104A800041F23001032000F02DFD40F6080108201E
:104A900000F028FD08210A2000F024FD4FF41C51ED
:104AA000602000F01FFD00E031E00121612000F0F6
:104AB00019FD4FF49F71902000F014FD4FF48071A8
:104AC000922000F00FFD4FF48071932000F00AFD5A
:104AD0004FF44051A02000F005FD1021A32000F06C
:104AE00001FD0121072000F0FDFC2121072000F03D
:104AF000F9FC2321072000F0F5FC3321072000F00A
:104B0000F1FC40F23311072000F0ECFCBDE06448FA
:104B1000808841F663118842F8D1E22000F0D2FC8F
:104B20001D2000F0C9FC022000F0C6FC042000F0AB
:104B3000C3FC642003F0B6FAE02000F0C3FC0120BF
:104B400000F0BAFC0A2003F08FFAE02000F0BAFC73
:104B5000032000F0B1FC0C2003F086FA012000F0E5
:104B6000B1FC0A2003F080FAE62000F0ABFC2F2015
:104B700000F0A2FCFF2000F09FFCFF2000F09CFC56
:104B8000B02000F09FFC202000F096FC002000F0F8
:104B900093FC032000F090FC40F21F3000F08CFCEE
:104BA000012000F089FC40F2DF1000F085FC0020BD
:104BB00000F082FCB42000F085FC042000F07CFCB6
:104BC00040F21F4000F078FC002000F075FC2E2021
:104BD00000F072FC002000F06FFC002000F06CFC84
:104BE000002000F069FC002000F066FCB62000F018
:104BF00069FC022000F060FC4FF4037000F05CFCE4
:104C0000002000F059FC172000F056FC152000F0A1
:104C100053FC002000F050FC002000F04DFCF02080
:104C200000F050FC032000F047FC292000F04AFC73
:104C3000D02000F047FC002000F03EFCBE2000F039
:104C400041FC052000F038FCFE2000F035FC01207E
:104C500000F032FC002000F02FFC002000F02CFCC3
:104C6000002000F029FCB82000F02CFC032000F00C
:104C700023FC012000F020FCBA2000F023FC0120DE
:104C800000F01AFC642000F0DBF80020FCF728FAA2
:104C90000120044908604FF6FF70FCF7BBF910BD16
:104CA0007C0200208081214208B5034800880090E2
:104CB000BDF8000008BD00000008006C2DE9F041BF
:104CC00005460E4600240027A04656480088A84204
:104CD00003DD54484088B04202DC0020BDE8F0818A
:104CE0003146284600F04CFA4E48808849F241315E
:104CF000884211D04B48808846F6040188420BD088
:104D00004848808845F21031884205D0454880885F
:104D100041F66311884203D12E2000F0D3FB0DE051
:104D20004048808845F21051884204D14FF43850F1
:104D300000F0C8FB02E0222000F0C4FB3948808864
:104D400049F22031884202D1022007F03FFAFFF7F2
:104D5000ABFF04463348808841F66311884201D195
:104D60002046BBE7022007F031FAFFF79DFF04461B
:104D70002C48808849F2413188420BD029488088EC
:104D800045F21031884205D02648808845F21051FE
:104D900088420AD1022007F019FAFFF785FF804602
:104DA000E7B24FF6FF7000EA07271E48808849F2F5
:104DB0002531884216D01B48808844F235518842FC
:104DC00010D018488088091F88420BD01548808869
:104DD0004BF20551884205D0124880884CF20551AB
:104DE000884201D1204679E70E48808849F2413156
:104DF00088420BD00B48808845F21031884205D09C
:104E00000848808845F21051884207D1E012C0025C
:104E1000B91240EA411040EAE8205FE72046FCF77B
:104E2000EBF85BE77C02002010B50446204600F05A
:104E300049FB052003F036F9FFF736FF10BD0000EF
:104E40002DE9F0470446BE2000F03CFB052000F0B1
:104E500033FB204608F035FF07464FF066320C4B17
:104E600008F042FF054608F0FFFE1FFA80F94846A9
:104E700000F022FB012000F01FFBFF2000F01CFBD4
:104E8000002000F019FB002000F016FBBDE8F087C1
:104E90006666044070B5044600230026B748807952
:104EA00001280BD1B548808846F60401884205D018
:104EB000B248808841F66311884208D1AF488079B2
:104EC000F0B9AE48808841F66311884218D1082CA9
:104ED00015D2DFE804F00406080A0C0E10120624AE
:104EE0000DE007240BE0042409E0052407E0012479
:104EF00005E0002403E0032401E0022400BF00BF1A
:104F00009E48808849F24131884217D09B4880886A
:104F100046F60401884211D09848808845F2103145
:104F200088420BD09548808845F21051884205D0C0
:104F30009248808841F6631188427DD1082C1CD2AA
:104F4000DFE804F00406090C0F12151800BF14E086
:104F500043F0800311E043F040030EE043F0C00350
:104F60000BE043F0200308E043F0600305E043F06A
:104F7000A00302E043F0E00300BF00BF7F48808849
:104F800045F21051884202D14FF4585600E03626BF
:104F90007A48808845F2103188420DD07748808861
:104FA00045F21051884207D07448808841F6631159
:104FB000884201D043F008037048808846F6040117
:104FC000884201D143F002031946304600F08AFAC4
:104FD0006A48808841F6631188421DD003F02000A2
:104FE00068B16648008865494988884214DA634890
:104FF0000588408861490880084645800CE05F4884
:1050000000885E494988884206DD5C4805884088FA
:105010005A490880084645805848808845F2105112
:10502000884254D15549488900F04CFA002000F0DC
:1050300043FA5249498900E078E0491C88B200F0FF
:1050400041FA002000F038FA4C494989891C88B29D
:1050500000F038FA49490988491EC1F30F2000F0D1
:105060002BFA46494989C91C88B200F02BFA4349FA
:105070000978491EC8B200F01FFA4049888900F03B
:1050800021FA002000F018FA3C498989491C88B2AD
:1050900000F018FA002000F00FFA38498989891CBD
:1050A00088B200F00FFA35494988491EC1F30F2034
:1050B00000F002FA31498989C91C88B200F002FA6D
:1050C0002E498978491EC8B200F0F6F955E02B49FF
:1050D000488900F0F7F9002000F0EEF9002000F018
:1050E000EBF926490988491EC1F30F2000F0E4F9C5
:1050F00022490978491EC8B200F0DEF91F498889A3
:1051000000F0E0F9002000F0D7F9002000F0D4F919
:105110001A494988491EC1F30F2000F0CDF91749FB
:105120008978491EC8B200F0C7F926E0082C1CD2C5
:10513000DFE804F004070A0D0F12151843F03003DE
:1051400013E043F0100310E043F020030DE000BF34
:105150000BE043F0380308E043F0280305E043F098
:10516000180302E043F0080300BF00BF032643F426
:1051700080531946304600F0B5F970BD7C0200201E
:1051800010B503460C466748808849F24131884291
:1051900005D06448808845F21031884214D16149B5
:1051A000488900F08FF9181200F086F9D8B200F0A3
:1051B00083F95C49888900F085F9201200F07CF9B8
:1051C000E0B200F079F9ABE05648808846F6040179
:1051D00088421DD153488079012804D15148008864
:1051E000401EC01A83B24F49488900F06BF918126B
:1051F00000F062F9D8B200F05FF94A49888900F0FE
:1052000061F9201200F058F9E0B200F055F987E09A
:105210004448808841F66311884247D141488079EB
:10522000A8B940480088401EC01A83B23D49488949
:1052300000F048F9002000F03FF9002000F03CF9B0
:10524000181200F039F9D8B200F036F916E03549F5
:10525000488900F037F9181200F02EF9D8B200F0A2
:105260002BF930490988491EC1F30F2000F024F9B9
:105270002C490978491EC8B200F01EF929498889CD
:1052800000F020F9201200F017F9E0B200F014F954
:1052900024494988491EC1F30F2000F00DF9214926
:1052A0008978491EC8B200F007F939E01D488088A6
:1052B00045F21051884220D11A49488900F002F97C
:1052C000181200F0F9F817494989491C88B200F012
:1052D000F9F8D8B200F0F0F81249888900F0F2F835
:1052E000201200F0E9F80F498989491C88B200F0C2
:1052F000E9F8E0B200F0E0F812E00A48807901280D
:1053000004D108480088401EC01A83B20549488964
:10531000194600F0E7F803498889214600F0E2F8D1
:1053200010BD00007C0200202DE9F84F80460E469B
:1053300017461C46B3462046E31704EB5373DB10B5
:1053400021464FEAE47C04EB5C7C4FEAEC0CA4EBD6
:10535000CC0CBCF1000F02D04FF0010C01E04FF07B
:10536000000C6344224604EBD27C4FEA6C0C03FB36
:105370000CF3DBB20093A7F12000C7B2002556E082
:105380000C2C07D107EB47002B4901EB800010F8EC
:10539000059013E0102C05D1284800EB071010F8F9
:1053A00005900BE0182C07D107EBC700244901EB4F
:1053B000800010F8059001E0BDE8F88F4FF0000A7A
:1053C0002FE009F0800030B11E4802883146404687
:1053D000FBF766FF07E00A9828B91B4802883146A8
:1053E0004046FBF75DFF4FEA49604FEA1069701CC9
:1053F00086B216484088B04200DCDDE7A6EB0B0021
:10540000A0420AD15E4608F101001FFA80F80F4859
:105410000088404500DCCFE706E00AF1010000F01B
:10542000FF0ABAF1080FCCDB00BF681CC5B20098B8
:105430008542A5DB00BFBFE70EE5000882E9000852
:1054400072EF00080A0000200C0000207C020020FF
:105450002DE9F84704460D4690469946DDE909676F
:1054600004F0FF0A08EB04001FFA80F809EB0500BE
:105470001FFA80F916E0444502DB5446A81985B2AC
:105480004D4500DB14E0002000903A783346294671
:105490002046FFF749FF304606EBD07104EB61016F
:1054A0008CB27F1C38787E2802DC38782028E2DA3B
:1054B00000BFBDE8F8870000014908807047000080
:1054C0000008006C0149088070470000FE07006C6E
:1054D0000248008902490880704700007C020020D1
:1054E000FE07006C024A1080921C11807047000079
:1054F000FE07006C1848806940F008001649886172
:105500000846806940F0400088611448006820F433
:105510007000124908600846006840F440100860B6
:105520000E480C30006840F020000C490C31086037
:105530000B48006820F470000949086008460068BC
:1055400040F44010086006480C30006840F020002D
:1055500003490C310860704700100240000C014004
:105560000018014000B5002015490861C8601420EA
:10557000486100208861C8610846006840F0010069
:105580000860084640680F4908400D4948600846D1
:1055900000680D4908400A4908600846006820F480
:1055A000802008600846406820F4FE004860002023
:1055B000886000214FF0006000F058F800BD000046
:1055C000001002400000FFF8FFFFF6FE2DE9F04159
:1055D0000746884614461D46284600F033F8C5F1B4
:1055E000040007FA00F60F20284100EA08000643ED
:1055F00006F00F06E21704EBD2625211920002F19C
:10560000E022D2F800212146E31704EBD3635B11BB
:10561000A4EB431C012303FA0CF31A432046E317BF
:1056200004EBD3635B119B0003F1E023C3F800217B
:105630000348005D40EA061001490855BDE8F081C5
:1056400000E400E00146072323EA01021202054BB1
:1056500018684FF6FF031840034B18431043014BE3
:10566000186070470CED00E00000FA05024A0A409D
:105670000243024B1A60704780FFFF1F08ED00E0F5
:105680007CB50546002400200090019000260DB155
:10569000022600E000261848406900F0007008B1BA
:1056A0000E207CBD1549098888B26946FBF7BAFA15
:1056B00004460CB12046F4E7019800F48020C0B104
:1056C0000E48008802040121372000F027F8372017
:1056D000FBF7BEF904460CB12046E2E73246012151
:1056E000062000F01BF80620FBF7B2F9044620461E
:1056F000D7E72520D5E700000080014014000020F6
:105700000146034A506820F0FF000843506070478C
:105710000080014000B500F0FDFB00BD10B5034660
:10572000074CA260E0686FF30A0003F03F042043D7
:1057300040EA811000BF40F48060014CE06010BD81
:105740000080014070B504460A4D6C6221F07E4530
:10575000084EB5623546E86A20F0F70040EA0210CC
:1057600000BF03F0010540EA450040F00100354666
:10577000E86270BD0080014010B5234B1B6843F404
:105780007043214C2360204B40331B6823F00103FE
:105790001D4C4034236023461B6847F6F074A34336
:1057A000194C4034236023461B6843EA02132360EC
:1057B00023461B68236023461B68236023461B681F
:1057C00043F08003236023461B6843F40073236087
:1057D00023461B6843F40063236023461B6843F49D
:1057E000005323608B08241D2360084B241D236075
:1057F000231D1860044B40331B6843F00103024C27
:105800004034236010BD0000040402408080014049
:1058100030B50446002516480078032801D127201A
:1058200030BD1348007838B111480078012803D002
:105830000F480078022818D1022C01D32720EFE767
:10584000E0B2FFF71DFF05467DB90A48406820F425
:10585000C0500849486008464068A1B240EAC120EB
:10586000044948600846406848602846D8E7000078
:105870001000002000800140F0B501460020002209
:10588000BE4B1B7881F85630BD4B1B88A1F85430B5
:10589000BC4B1B681A0E93090B70C2F383034B7049
:1058A00002F003038B70B74B1B68C3F30742CA7047
:1058B000B44B1B88C3F307220A71B24B1A784A71A2
:1058C0005B681A0E1301CB80AE4B5B68C3F30742D3
:1058D000CB8843EA1213CB8002F00F030B72A94B63
:1058E0009B88C3F30722D3094B72C2F380138B72D8
:1058F000C2F34013CB72C2F300130B7300234B733C
:105900009E4B1B783BB19D4B1B78012B03D09B4BCF
:105910001B78032B4FD193071B0D0B61994B1A7901
:105920000B6943EA82030B61964B9B681A0E0B6965
:1059300043EA92130B61C2F3C2030B7502F0070333
:105940004B75904B9B68C3F3074253098B75C2F3A9
:105950008203CB7593075B0F0B768A4B1B89C3F3CE
:1059600007220B7E43EAD2130B760B695B1C0024E3
:10597000C1E912340B7E9B1C012404FA03F3DC17EB
:10598000D1E91256A5FB037C06FB03C305FB0433D8
:10599000C1E912730C7A0123A3400B650024D1E9FD
:1059A00012650B6DA6FB037C05FB03C306FB0433EA
:1059B000C1E912732EE0714B1B78022B2AD1714B77
:1059C0001A7993069B0A0B616E4B9B681A0E0B6942
:1059D00043EA02230B616B4B9B68C3F307420B69DD
:1059E00013430B61674B1B89C3F307220B695B1CD5
:1059F0004FF40074A3FB04464FF480630025A4FB1E
:105A0000037C06FB03C304FB0533C1E912734FF4A7
:105A100000730B65C2F3801301F8193F93065B0E08
:105A20004B70584B1A7A4B7843EAD2134B7002F002
:105A30007F038B70534BDB681A0ED309CB70C2F314
:105A400041130B71C2F382034B7193071B0F8B71D0
:105A50004C4BDB68C3F307428B7943EA92138B719B
:105A6000C2F34013CB7100230B7202F001034B729F
:105A7000444B9B89C3F30722D3098B72C2F3801373
:105A8000CB72C2F340130B73C2F300134B73C2F318
:105A900081038B7302F00303CB733A4B1A7B5308D9
:105AA0000B7401234B74384B1B681A0ECA741939D6
:105AB000354B1B68C3F307421402CC85324B1B885D
:105AC000C3F30722CB8D1343CB852F4B1A781406D3
:105AD0000C635B681A0E0B6B43EA02440C632A4B9F
