:10000E001201EA12022F120026D2AF75865A120181
:03001E007080F8F7
:1001EA0075E50775E669758E3075865A75802075CE
:1001FA00F92075F1FFE4F590F5FA75F2FFF5A0F52F
:05020A00FB75F3FF226B
:1001B000C100012200012100142300000000000002
:1001C00000000000000000000000000000001437E4
:1001D000000000000000000000000000000000001F
:0401E000000000001B
:10002600D28543F92053F9BFC29FD29ED29CE46089
:10003600030200E1740214B4090040030200E190D7
:10004600005375F003A4C58325F0C5837302006EC3
:1000560002007B0200880200950200A20200AF02A5
:1000660000BC0200C90200D653877FD2DF75BA03EF
:1000760075AA98806653877FD2DF75BA0375AACCB6
:10008600805953877FD2DF75BA0375AAE6804C5331
:10009600877FD2DF75BA0375AAF3803F438780D284
:1000A600DF75BA0375AAEE8032438780D2DF75BA50
:1000B6000375AAEF8025438780D2DF75BA0375AA38
:1000C600F78018438780D2DF75BA0375AAF8800BCC
:0E00D600438780D2DF75BA0375AAFCD2AC2234
:10017000E4FF30013AC201780816E67032760530A5
:10018000002D7822E6FE18667021C2007822E6FD76
:10019000EFC39D500F74232FF8E6F5993099FDC2F7
:0F01A000990F80E8E47822F618F6227821A60657
:0101AF00222D
:0300230002020FC7
:10020F00C0E0C0D075D000C00030980DC298D200A9
:10021F007822E6062423F8A699D000D0D0D0E03279
:0501E400C10101080546
:10022F00758906E4F5E7758C06758A06D28CD2A916
:01023F00229C
:03000B00020003ED
:03000300D20132F5
:030000000200E417
:0C00E400787FE4F6D8FD75814A02012BFC
:0A0FF600FFFFFFFFFFFFF65AA55FA3
:1000F00002000EE493A3F8E493A34003F68001F218
:1001000008DFF48029E493A3F85407240CC8C33310
:10011000C4540F4420C8834004F456800146F6DFDF
:10012000E4800B01020408102040809001B0E47EBE
:10013000019360BCA3FF543F30E509541FFEE493D4
:10014000A360010ECF54C025E060A840B8E493A39B
:10015000FAE493A3F8E493A3C8C582C8CAC583CAC6
:10016000F0A3C8C582C8CAC583CADFE9DEE780BE7E
:0101E9000015
:00000001FF
