:0D000E001200B312008ED2AF75865A80FB2F
:1000B30075E50775E669758E3075865AE4F580F542
:1000C300F975F1FFF590F5FA75F2FFF5A0F5FB75FB
:0300D300F3FF2216
:10008E00D2A8D2A9D2ABD2ACD2ADD2B8D2B9D2BD4F
:10009E00D2BCD2BBD2BA43D180439A02D2AF75A999
:0500AE000575B91122E7
:03000300020056A2
:03005600C289322A
:03000B0002002AC6
:01002A0032A3
:03001B000200419F
:01004100328C
:03002300020006D2
:05000600C299C298320E
:03002B0002001EB2
:05001E00C2C6C2C7329A
:0300430002002692
:0400260053DCF7327E
:03004B0002003A76
:07003A0053E17F53E1EF32B7
:0300530002004266
:01004200328B
:03005B0002004A56
:01004A003283
:0300630002005246
:01005200327B
:03006B0002005937
:010059003274
:0300830002004632
:0400460053D1F73269
:03008B0002004E22
:04004E0053BFFB326F
:0300000002002ECD
:0C002E00787FE4F6D8FD75810702000E13
:0A0FF600FFFFFFFFFFFFF65AA55FA3
:00000001FF
