:030000000200CF2C
:1000CF0078FFE4F6D8FD9000007F007E04E4F0A3F3
:0A00DF00DFFCDEFA75810702000362
:0A0FF600FFFFFFFFFFFFF65AA5AF53
:1000030075E50575E669E4F58EF580F5F975F1FF9B
:10001300F590F5FA75F2FFF5A0F5FB75F3FF120005
:060023002975865A80FBDE
:1000290053F9FB43F10453FAC743FA2043F2187515
:0B003900E28A43E24043B802D2AF224B
:03004B0002004E62
:10004E00C0E0C0F0C083C082C0D075D000C006C072
:01005E00079A
:10005F00AFE3AEE1EE24807058EF14B40800504EB9
:10006F0090007D75F003A4C58325F0C5837302004E
:10007F009502009A02009F0200A40200A90200AE9E
:10008F000200B30200B875E308802675E3078021EC
:10009F0075E306801C75E305801775E30480127500
:1000AF00E303800D75E302800875E301800375E3B8
:0100BF00FF41
:0F00C000D007D006D0D0D082D083D0F0D0E0329D
:00000001FF
