:030000000201E317
:1001E30078FFE4F6D8FD9000007F007E04E4F0A3DE
:0A01F300DFFCDEFA758136020238E7
:0A0FF600FFFFFFFFFFFFF65AA5AF53
:0E03A000050DAAABACADAE05080000000000D4
:1002F00075E50775E669758E31E4F580F5F975F1F8
:10030000FFF590F5FA75F2FFF5A0F5FB75F3FF1216
:10031000035175865A7B007A007908753605E4FD2D
:08032000FC7FA012000380EA3B
:1003510053F9E743F11875DC4075DE0575DF047567
:0D036100DE0475DF4543DE80D2B8D2AF2246
:10036E00E4FFFE3000140FBF00010E000075865A28
:0B037E00C3EF94F4EE940140EA22D398
:010389002251
:0300430002013C7B
:10013C00C0E0C0D075D000C000C007AFDDEF24F028
:10014C00601824F8601C24F0602024E8604424F03B
:10015C00604824F8605D2450706753DCCF851ADA50
:10016C0080697519008512DA806130010FC201E5D2
:10017C001A54FE4401F51A43DC20804FE519C3954F
:10018C001840028035AF19051974132FF8E6F5DA0B
:10019C00803975190043DC048031AF1905197413CB
:1001AC002FF8A6DA43DC04E519C39518401D53DC7F
:1001BC00FB801874132519F8A6DA43DC10C20080F2
:1001CC000A43DC10751900C201C20053DCF7D007DA
:0701DC00D000D0D0D0E032CA
:10038A00EFD39400400F7EF575865A7D1800DDFD87
:05039A00DEF61F80EB00
:01039F00223B
:10032800200025E52F6021C201D2008D12EF54FE76
:10033800F51A852F18AF2F7E0078137C007D0012E8
:09034800011653DCF743DC20220E
:0C027D008F218C228D238B248A2589265A
:10028900E5276062E5235407FFC374089FF528D367
:1002990095274002804BAB24AA25A92685282FAD96
:1002A90023AC22AF2112032812036E5039E528B579
:1002B9002701227F0512038AAF287E00EF2526F544
:1002C90026EE3525F525EF2523F523EE3522F522F2
:1002D900C3E5279528F527D3940840057528088094
:0602E900B585272880B056
:0102EF0022EC
:100003008B338A348935200032E536602ED201D213
:10001300008D12EF54FEF51AE53614F51853DCF78C
:1000230043DC2012036E5013AF367E00A835AC3488
:0C003300AD337B007A0079131201162215
:1001FD000202F0E493A3F8E493A34003F68001F226
:10020D0008DFF48029E493A3F85407240CC8C33302
:10021D00C4540F4420C8834004F456800146F6DFD1
:10022D00E4800B01020408102040809003A0E47EBE
:10023D00019360BCA3FF543F30E509541FFEE493C6
:10024D00A360010ECF54C025E060A840B8E493A38D
:10025D00FAE493A3F8E493A3C8C582C8CAC583CAB8
:10026D00F0A3C8C582C8CAC583CADFE9DEE780BE70
:0103AE00004E
:10004600E709F608DFFA8046E709F208DFFA803E9C
:1000560088828C83E709F0A3DFFA8032E309F60889
:10006600DFFA8078E309F208DFFA807088828C83F1
:10007600E309F0A3DFFA806489828A83E0A3F608A5
:10008600DFFA805889828A83E0A3F208DFFA804C7F
:1000960080D280FA80C680D4806980F28033801056
:1000A60080A680EA809A80A880DA80E280CA8033BF
:1000B60089828A83ECFAE493A3C8C582C8CCC58337
:1000C600CCF0A3C8C582C8CCC583CCDFE9DEE78007
:1000D6000D89828A83E493A3F608DFF9ECFAA9F086
:1000E600EDFB2289828A83ECFAE0A3C8C582C8CCDC
:1000F600C583CCF0A3C8C582C8CCC583CCDFEADEF5
:10010600E880DB89828A83E493A3F208DFF980CC56
:1001160088F0EF60010E4E60C388F0ED2402B4044F
:100126000050B9F582EB2402B4040050AF232345F6
:0601360082239000967385
:00000001FF
