:03000000020046B5
:1000460078FFE4F6D8FD9000007F007E04E4F0A37C
:0A005600DFFCDEFA75812002009B3A
:0A0FF600FFFFFFFFFFFFF65AA5AF53
:1000030075E50775E669758E31E4F580F5F975F1E7
:10001300FFF590F5FA75F2FFF5A0F5FB75F3FF1206
:07002300014C75865A80FBB9
:07002A00C101C10001080043
:10014C0053F9E743F11875DCC075DE0575DF0475EE
:10015C00DE0475DF4543DE80D2B8D2AF75DBC04319
:03016C00DC04228E
:030043000200E0D8
:1000E000C0E0C0D075D000C000C007AFDDEF24A0D5
:1000F000602124F0601D24F0601E24F0601A24D8D2
:10010000600424107028AF08050874092FF8E6F57C
:10011000DA802043DC04801B200007D20085DA0847
:100120008011AF08050874092FF8A6DA8005C2000F
:1001300053DCCF43DC0453DCF7E508C394054003EC
:0C014000750800D007D000D0D0D0E0320D
:10006000020003E493A3F8E493A34003F68001F2B3
:1000700008DFF48029E493A3F85407240CC8C333A1
:10008000C4540F4420C8834004F456800146F6DF70
:10009000E4800B010204081020408090002AE47ED6
:1000A000019360BCA3FF543F30E509541FFEE49365
:1000B000A360010ECF54C025E060A840B8E493A32C
:1000C000FAE493A3F8E493A3C8C582C8CAC583CA57
:1000D000F0A3C8C582C8CAC583CADFE9DEE780BE0F
:0100310000CE
:00000001FF
