:020000040800F2
:10000000F0C50020E1010008E5010008E701000853
:10001000E9010008EB010008ED0100080000000004
:10002000000000000000000000000000EF010008D8
:10003000F101000800000000F3010008F5010008CC
:10004000F7010008F7010008F7010008F7010008B0
:10005000F7010008F7010008F7010008F7010008A0
:10006000F7010008F7010008F7010008F701000890
:10007000F7010008F7010008F7010008F701000880
:10008000F7010008F7010008F7010008F701000870
:10009000F7010008F7010008F7010008F701000860
:1000A000F7010008F7010008F7010008F701000850
:1000B000F7010008F7010008F7010008F701000840
:1000C000F7010008F7010008F7010008F701000830
:1000D000F701000819AA0008F7010008F701000855
:1000E000F7010008F7010008F7010008F701000810
:1000F000F7010008F7010008F7010008F701000800
:10010000F701000871810008F7010008F7010008F5
:10011000F7010008F7010008F7010008F7010008DF
:10012000F7010008F7010008F7010008F7010008CF
:1001300000F002F800F045F80AA090E8000C8244B4
:100140008344AAF10107DA4501D100F03AF8AFF291
:10015000090EBAE80F0013F0010F18BFFB1A43F0A5
:1001600001031847D4730100F4730100103A24BF4F
:1001700078C878C1FAD8520724BF30C830C144BF0C
:1001800004680C607047000000230024002500264E
:10019000103A28BF78C1FBD8520728BF30C148BFEA
:1001A0000B607047642901F08186782901F0BA86D6
:1001B000732901F0E387002070471FB51FBD10B5FC
:1001C00010BD02F047F81146FFF7F7FF0BF0D0FA29
:1001D00002F065F803B4FFF7F2FF03BC0AF000FE7B
:1001E00008480047FEE7FEE7FEE7FEE7FEE7FEE71A
:1001F000FEE7FEE7FEE7FEE703480449024A044B38
:100200007047000031010008F0C10020F0C5002057
:10021000F0C1002010B5FF4800680AF0E4FDFE4878
:1002200000680AF0E0FDFD4800680AF0DCFDFC48CB
:1002300000680AF0D8FDFB4800680AF0D4FDFA48CF
:1002400000680AF0D0FDF94800680AF0CCFD10BD46
:1002500010B500244FF400700AF0CCFDED490860A1
:100260000846006800B901244FF400700AF0C2FD8E
:10027000E94908600846006800B901244FF400709D
:100280000AF0B8FDE54908600846006800B9012495
:10029000A0200AF0AFFDE24908600846006800B9F6
:1002A000012440200AF0A6FDDE49086008460068E7
:1002B00000B9012440200AF09DFDDB490860084692
:1002C000006800B901244FF4F8700AF093FDD74993
:1002D00008600846006800B901240CB1FFF79AFFD6
:1002E000204610BD2DE9F04704460D461646701B0A
:1002F00000EBD07105EB610954F8397004EBC901CA
:1003000048680CF005FF804654F8350044F8390081
:1003100004EBC500406804EBC9014860A94605F13B
:10032000010A1DE054F83A0039460CF083FF15D855
:1003300054F83A0044F8390004EBCA00406804EB72
:10034000C901486009F1010954F8390044F83A003C
:1003500004EBC900406804EBCA0148600AF1010AD5
:10036000B245DFDDA9EB0500012805DDA9F1010299
:1003700029462046FFF7B6FFA6EB0900012805DD58
:10038000324609F101012046FFF7ACFF44F839700D
:1003900040460CF023FF04EBC9014860BDE8F0873C
:1003A0002DE9F84F04460D4616461F464FF000084B
:1003B00028E04FF0000920E04FF0000BDA4612E091
:1003C0000B9A0AFB029255F822100A9A08FB02A225
:1003D00054F822000CF062FF594600900CF062FDC8
:1003E00083460AF1010A0A988245E9DB0B9808FB6B
:1003F000009046F820B009F101090B988145DBDB3C
:1004000008F10108B845D4DBBDE8F88F024612B9FF
:1004100009B900207047002A02DD09B90020F9E778
:10042000002903DD8A4201DD0120F3E7002A03DD14
:10043000914201D10220EDE7002A03DD8A4201DA70
:100440000320E7E71AB9002901DD0420E2E7002ACA
:1004500008DA101E01DB034600E043428B4201DA5A
:100460000520D7E7002A08DA101E01DB034600E06A
:1004700043428B4201D10620CCE7002A0ADA101E43
:1004800001DB034600E043428B4203DD002901DD2E
:100490000720BFE719B9002A01DA0820BAE70029C6
:1004A00003DA914201DD0920B4E7002A03DA914220
:1004B00001D10A20AEE7002A03DA914201DA0B20CB
:1004C000A8E71AB9002901DA0C20A3E700290ADA03
:1004D000081E01DB034600E04342934203DD002A8D
:1004E00001DD0D2096E7002908DA081E01DB03462E
:1004F00000E04342934201D10E208BE7002908DA45
:10050000081E01DB034600E04342934201DA0F205C
:1005100080E700207EE730B5034601B10AB900202C
:1005200030BD412901D0412A01D10020F8E7491E00
:10053000521E03EBC20000EBE100047801F0070556
:100540000120A840044201D00120E9E70020E7E7AC
:100550002DE9FE4F04460D4616461F460020019029
:10056000781C8200002132480AF04BFC781C820083
:10057000002130480AF045FC4FF0000819E04FF028
:10058000000912E004EBC80000EBE900017809F073
:10059000070201209040014205D04FF07E510198A2
:1005A0000CF080FC019009F10109B145EADB08F18A
:1005B0000108A845E3DB38460CF010FE82460146F0
:1005C00001980CF0E3FC01900120029049E04FF00B
:1005D000000AD0463AE04FF0000912E004EBC900EF
:1005E00000EBE800017808F007020120904001428A
:1005F00005D04FF07E5150460CF054FC824609F174
:100600000109A945EADB02980CF0E8FD0090019988
:1006100012E00000A8000020AC000020B000002084
:10062000B4000020B8000020BC000020C000002062
:1006300064C1002078C100200CF030FE8346514692
:100640000CF0F8FD00D804E008F10108701E4045E8
:10065000C1DC00BFFD48029940F821800298401C8F
:100660000290781C02998142B1DB0120029035E0B2
:100670004FF0000AD14626E04FF0000812E004EBEC
:10068000C90000EBE800017808F007020120904063
:10069000014205D04FF07E5150460CF003FC8246DB
:1006A00008F10108B045EADB02980CF097FD0090D4
:1006B00001990CF0F3FD834651460CF0BBFD00D8C8
:1006C00004E009F10109681E4845D5DC00BFE04996
:1006D000029841F820900298401C0290781C0299E0
:1006E0008142C5DB0020029032E0029991FBF7F1D4
:1006F000D74A52F82120029991FBF7F1491CD44BBB
:1007000053F82110501800EBD0714910D14A1268EB
:10071000029B42F82310029991FBF7F207FB12119A
:10072000CA4A52F82120029991FBF7F307FB1311F3
:10073000491CC64B53F82110501800EBD0714910DA
:10074000C54A1268029B42F823100298401C02908E
:1007500007FB07F002998842C7DCBDE8FE8F2DE950
:10076000F34F8FB0402440200A901025AA000021AA
:10077000B94800680AF045FBAA000021B5480068A6
:100780000AF03FFB042321460A9A0F98FFF7E0FE88
:10079000E2000021B14800680AF033FB00200B9012
:1007A00060E3AC4801680B9851F820000290AA4819
:1007B00001680B9851F820000190029808304028F9
:1007C00001DD402001E002980830089001980830CF
:1007D000402801DD402001E0019808300690029891
:1007E000083801D5002001E00298083809900198E6
:1007F000083801D5002001E00198083807900998D1
:100800000E9027E307980D901CE3DDE90D120F9879
:10081000FFF781FE8146DDE90D12491C0F98FFF7B5
:100820007AFE022101FB0099DDE90D12891C0F9867
:10083000FFF771FE81440E9A921C0D990F98FFF7F5
:100840006AFEA9EB00090E9A921C0D99491C0F989B
:10085000FFF761FE022101FB10990E9A921C0D997F
:10086000891C0F98FFF757FEA9EB000007B2DDE9DE
:100870000D12891C0F98FFF74EFE81460E9A521CEE
:100880000D99891C0F98FFF746FE022101FB009984
:100890000E9A921C0D99891C0F98FFF73CFE81441B
:1008A000DDE90D120F98FFF736FEA9EB00090E9A4D
:1008B000521C0D990F98FFF72EFE022101FB109993
:1008C0000E9A921C0D990F98FFF725FEA9EB0000D8
:1008D0000FFA80F8002F02DBB8F1000F00DA00BF3A
:1008E00041463846FFF792FD0390039841100B985C
:1008F00001FB05060398401C40100B9900FB0510F6
:10090000059002990E98401A083000EB0010019AE9
:100910000D99891A08440830514951F82000049073
:10092000039810281CD2DFE800F0081C4A629FB32D
:10093000F2F0EFEEEDECEBEAE9E838460CF04EFCB5
:10094000824604990CF0AAFC81464448006850F89D
:10095000261048460CF0A6FA4049096841F82600DE
:100960006CE2A7EB08000CF039FC824604990CF00D
:1009700095FC81463948006850F8261048460CF02E
:1009800091FA3649096841F8260040460CF026FCE9
:10099000834634490CF082FC824604990CF07EFCBC
:1009A00081462E480268059852F8201048460CF0FF
:1009B00079FA2A490968059A41F822003EE2404640
:1009C0000CF00CFC834627490CF068FC8246049925
:1009D0000CF064FC81462148006850F82610484617
:1009E0000CF060FA1D49096841F8260026E23846F5
:1009F0000CF0F4FB83461B490CF050FC8246049932
:100A00000CF04CFC81461548006850F8261048460A
:100A10000CF048FA1149096841F82600A8EB0700D4
:100A20000CF0DCFB824604990CF038FC81460B4844
:100A30000268059852F8201048460CF033FA07492E
:100A40000A68059942F82100F8E1000064C100201D
:100A500078C10020BC000020B8000020AC000020BD
:100A600090F20008F704B53F40460CF0B7FB824611
:100A700004990CF013FC8146FE48006850F82610DB
:100A800048460CF00FFAFB49096841F82600D5E109
:100A900007EB08000CF0A2FB824604990CF0FEFB69
:100AA0008146F448006850F8261048460CF0FAF9E0
:100AB000F049096841F82600B7F1000901DB494611
:100AC00001E0C9F1000108460CF088FBEA490090FA
:100AD0000CF0E4FB834604990CF0E0FB8246E54809
:100AE0000068059A50F8221050460CF0DBF9E149F5
:100AF0000968059A41F82200A0E166E14DE111E1A3
:100B0000F5E0BFE09FE069E04DE018E0FFE7404618
:100B10000CF064FB8346D8490CF0C0FB8246049974
:100B20000CF0BCFB8146D348006850F826104846BC
:100B30000CF0B8F9CF49096841F826007EE140463B
:100B40000CF04CFB8346CC490CF0A8FB8246049980
:100B50000CF0A4FB8146C748006850F826104846B0
:100B60000CF0A0F9C349096841F8260017EB080901
:100B700001D4494601E0C9F1000108460CF02EFB02
:100B8000834604990CF08AFB8246BA480068059AAD
:100B900050F8221050460CF085F9B6490968059ABC
:100BA00041F822004AE1B7F1000901DB494601E0C2
:100BB000C9F1000108460CF011FB834604990CF0C2
:100BC0006DFB8246AB48006850F8261050460CF08A
:100BD00069F9A849096841F826002FE1A8EB070048
:100BE0000CF0FCFA824604990CF058FB8146A148AF
:100BF000006850F8261048460CF054F99D490968E1
:100C000041F82600B8F1000901DB494601E0C9F1CD
:100C1000000108460CF0E2FA974900900CF03EFB08
:100C2000834604990CF03AFB824692480068059A84
:100C300050F8221050460CF035F98E490A68059993
:100C400042F82100FAE0B8F1000901DB494601E071
:100C5000C9F1000108460CF0C1FA874900900CF078
:100C60001DFB834604990CF019FB824681480068FD
:100C700050F8261050460CF015F97E49096841F8E5
:100C80002600DBE0B7F1000901DB494601E0C9F1CC
:100C9000000108460CF0A2FA774900900CF0FEFA29
:100CA000834604990CF0FAFA82467248006850F8BC
:100CB000261050460CF0F6F86E49096841F82600F7
:100CC000A7EB08000CF08AFA824604990CF0E6FAC9
:100CD000814668480268059852F8201048460CF092
:100CE000E1F864490A68059942F82100A6E0B8F1E4
:100CF000000901DB494601E0C9F1000108460CF09A
:100D00006DFA834604990CF0C9FA82465948006886
:100D100050F8261050460CF0C5F85649096841F8BD
:100D200026008BE017EB080901D4494601E0C9F120
:100D3000000108460CF052FA834604990CF0AEFA12
:100D400082464C48006850F8261050460CF0AAF82D
:100D50004849096841F82600B7F1000901DB494616
:100D600001E0C9F1000108460CF038FA4249009050
:100D70000CF094FA834604990CF090FA82463D48B0
:100D80000068059A50F8221050460CF08BF839494B
:100D90000A68059942F8210050E038460CF01EFA26
:100DA000834635490CF07AFA824604990CF076FABB
:100DB00081463048006850F8261048460CF072F81A
:100DC0002C49096841F8260038E0B8F1000901DB38
:100DD000494601E0C9F1000108460CF0FFF9264937
:100DE00000900CF05BFA834604990CF057FA8246A7
:100DF0002048006850F8261050460CF053F81D4962
:100E0000096841F8260017EB080901D4494601E0BA
:100E1000C9F1000108460CF0E1F9834604990CF091
:100E20003DFA82461348006850F8261050460CF0F0
:100E300039F81049096841F8260000BF00BF0D9835
:100E4000401C0D9006990D9888427FF7DEAC0E98F5
:100E5000401C0E9008990E9888427FF7D3AC0B98EF
:100E6000401C0B900B98A8427FF49BAC00200B9089
:100E70001FE00000AC000020F704B53F00200C90FC
:100E800011E0DDE90B0101FB0506FF49096851F896
:100E90002600FE490AF0D2FFFD49096841F8260004
:100EA0000C98401C0C900C980828EADB0B98401C0E
:100EB0000B900B981028E1DB11B0BDE8F08F2DE905
:100EC000FF4F8BB004460D461E46199F0020079029
:100ED00090E2079805EB80000088ADF8280007989D
:100EE00005EB80004088ADF82A000798401C05EB10
:100EF00080000088ADF824000798401C05EB8000B6
:100F00004088ADF82600BDF92800BDF924108842BC
:100F100072D1BDF92A00089067E0002E41D04FF051
:100F2000FF383AE04FF0FF30069031E0089810EBC0
:100F300008002AD4089800EB08011898814224DAA6
:100F4000BDF92800069940181FD4BDF9281006984D
:100F50000844B84219DABDF92810069808440590EB
:100F60000898404404EBC000059900EBE1000078CC
:100F700001F007020121914008430899414404EB24
:100F8000C101059A01EBE20108700698401C069029
:100F900006980228CAD108F10108B8F1020FC1D1A0
:100FA00016E0BDF928000590089804EBC0010598EB
:100FB00001EBE0000078059901F007020121914062
:100FC0000843089904EBC102059902EBE10108709E
:100FD000BDF92600BDF92A10884203DD0898401C9F
:100FE000089002E00898401E0890BDF92610089865
:100FF000814292D1FBE1FFE7BDF92A00BDF926103D
:10100000884275D1BDF9280008906AE0002E42D0D0
:101010004FF0FF383BE04FF0FF30069032E006998A
:10102000089840182BD406990898084418998842C3
:1010300025DABDF92A0010EB080020D4BDF92A00FA
:101040004044B8421BDA0699089808440590BDF957
:101050002A00404404EBC001059801EBE000007851
:10106000059901F00702012191400843BDF92A10BA
:10107000414404EBC102059902EBE10108700698B6
:10108000401C069006980228C9D108F10108B8F161
:10109000020FC0D118E008980590BDF92A0004EBB2
:1010A000C001059801EBE0000178059800F0070207
:1010B000012090400143C8B2BDF92A1004EBC101E0
:1010C000059A01EBE2010870BDF92400BDF9281072
:1010D000884203DD0898401C089002E00898401EF2
:1010E0000890BDF92410089881428FD17FE1FFE775
:1010F000BDF92410BDF92820881A0CF06FF882463B
:10110000BDF92610BDF92A20881A0CF067F883462D
:1011100051460BF03BFF81460BF098FECDE90201F2
:1011200021F00041CDE900015AA00CC800980BF055
:1011300041FB13D2BDF92410BDF92820881A0CF008
:101140004DF88146BDF92610BDF92A20881A0CF009
:1011500045F8824649460BF019FF12E0BDF926100A
:10116000BDF92A20881A0CF039F88146BDF92410FF
:10117000BDF92820881A0CF031F8824649460BF058
:1011800005FF0490BDF92420BDF92830D01ABDF91F
:101190002620BDF92A30D11A01D40B4600E04B427B
:1011A000002801DB024600E0424293426BDA002055
:1011B00008907EE008980CF011F8039004990CF068
:1011C0006DF883460BF0A4FFBDF92A1000EB01096E
:1011D000BDF92800089900EB010A002E3CD04FF021
:1011E000FF3835E04FF0FF3006902CE019EB080097
:1011F00026D409EB08001899884221DA06981AEBE0
:1012000000001DD406985044B84219DA0AF10100D2
:10121000059009EB080004EBC000059900EBE10024
:101220000178059800F00702012090400143C8B200
:1012300009EB080104EBC101059A01EBE20108701A
:101240000698401C069006980228CFD108F10108A4
:10125000B8F1020FC6D113E0CDF814A004EBC90019
:10126000DDF814A000EBEA0001780AF00702012083
:1012700090400143C8B204EBC90101EBEA010870D8
:10128000BDF924000AE01EE0AC00002085EBD13E51
:10129000B0000020000000000000F03FBDF9281061
:1012A000884203DD0898401C089002E00898401E20
:1012B0000890BDF92400BDF92810401A0899884209
:1012C0007FF478AF92E0BDF92420BDF92830D01A20
:1012D000BDF92620BDF92A30D11A01D40B4600E011
:1012E0004B42002801DB024600E0424293427DDB94
:1012F0000020089072E0BDF92A10089801EB00095F
:1013000008980BF06BFF039004990BF0C7FF83461E
:101310000BF0FEFEBDF9281000EB010A002E3CD0B8
:101320004FF0FF3835E04FF0FF3006902CE019EB1E
:10133000080026D409EB08011898814221DA0698A2
:101340001AEB00001DD406985044B84219DA0698EA
:101350005044059009EB080004EBC000059900EB30
:10136000E1000178059800F0070201209040014358
:10137000C8B209EB080104EBC101059A01EBE201D7
:1013800008700698401C069006980228CFD108F1F4
:101390000108B8F1020FC6D113E0CDF814A004EB98
:1013A000C900DDF814A000EBEA0001780AF007029A
:1013B000012090400143C8B204EBC90101EBEA01EE
:1013C0000870BDF92600BDF92A10884203DD08988F
:1013D000401C089002E00898401E0890BDF92600C5
:1013E000BDF92A10411A0898814284D100BF07989C
:1013F000401C07900D98411E079881427FF469AD0B
:101400000FB0BDE8F08F2DE9F04F099C15464FF065
:10141000FF360F46B4464FF0000935E000EB890A6D
:10142000BAF902A0BA4504DA00EB890ABAF902A0B7
:1014300000E0BA46574600EB890ABAF900A0AA456F
:1014400004DA00EB890ABAF900A000E0AA46554682
:1014500000EB890ABAF902A0E24504DD00EB890A33
:10146000BAF902A000E0E246D44600EB890ABAF9D4
:1014700000A0B24504DD00EB890ABAF900A000E043
:10148000B246564609F10109DDF828A0D145C5DB71
:10149000ACEB070A0AF1010A93FBFAFA0AF1010E12
:1014A000A6EB050A0AF1010A94FBFAFA0AF101080F
:1014B0004FF000092BE000EB890ABAF902A0AAEB71
:1014C000070A0AFB03FAACEB070B0BF1010B9AFBC3
:1014D000FBFAF2440FFA8AFA00EB890BABF802A090
:1014E00000EB890ABAF900A0AAEB050A0AFB04FA84
:1014F000A6EB050B0BF1010B9AFBFBFAC2440FFAAA
:101500008AFA00EB890BABF800A009F10109DDF8BC
:1015100028A0D145CFDBBDE8F08F2DE9FF4784B08F
:1015200014461D46BDF91000BDF91410884223D1A0
:10153000002619E0BDF81000296804EB810108803D
:10154000BDF81200304400B2296804EB81014880E4
:101550002868401C2860BDF91600BDF912108842A9
:1015600001DD761C00E0761EBDF91600BDF91210F3
:10157000401AB042DED1E9E0BDF91200BDF9161003
:10158000884223D1002619E0BDF81200296804EB37
:1015900081014880BDF81000304400B2296804EB96
:1015A000810108802868401C2860BDF91400BDF93D
:1015B0001010884201DD761C00E0761EBDF9140093
:1015C000BDF91010401AB042DED1BFE0BDF91410D1
:1015D000BDF91020881A0BF001FE8146BDF91610E6
:1015E000BDF91220881A0BF0F9FD824649460BF02E
:1015F000CDFC80460BF02AFCCDE9020121F0004130
:10160000CDE90001AFF274300CC800980BF0D2F8AD
:1016100013D2BDF91410BDF91020881A0BF0DEFDAD
:101620008046BDF91610BDF91220881A0BF0D6FDC0
:10163000814641460BF0AAFC12E0BDF91610BDF937
:101640001220881A0BF0CAFD8046BDF91410BDF9AE
:101650001020881A0BF0C2FD814641460BF096FC23
:101660000746BDF91420BDF91030D01ABDF9162077
:10167000BDF91230D11A01D40B4600E04B420028CC
:1016800001DB024600E0424293422FDC002625E0C7
:10169000BDF81000304400B2296804EB81010880D5
:1016A00030460BF09BFD814639460BF0F7FD804636
:1016B0000BF02EFDBDF81210084400B2296804EBAF
:1016C000810148802868401C2860BDF91400BDF9DC
:1016D0001010884201DD761C00E0761EBDF9140072
:1016E000BDF91010401AB042D2D12EE0002625E0FC
:1016F000BDF81200304400B2296804EB8101488033
:1017000030460BF06BFD814639460BF0C7FD804635
:101710000BF0FEFCBDF81010084400B2296804EB81
:10172000810108802868401C2860BDF91600BDF9B9
:101730001210884201DD761C00E0761EBDF916000D
:10174000BDF91210401AB042D2D100BF08B0BDE8B6
:10175000F0872DE9F84F04460D461646701E00EB43
:10176000D0714FEA6109A5EB09000090CA46A800B4
:1017700009F040FB8346AA002146584600F0FEFBD4
:10178000B54205DB06EBD6714910B6EB410101D13C
:10179000BDE8F88F4F463CE0002004EB870108804D
:1017A00004EB87014880CAF100081BE004EB8700C6
:1017B000008807EB08010BEB81010988084400B29F
:1017C00004EB8701088004EB8700408807EB0801E1
:1017D0000BEB81014988084400B204EB8701488083
:1017E00008F10108D045E1DD04EB8700B0F9000005
:1017F00090FBF6F000B204EB8701088004EB870051
:10180000B0F9020090FBF6F000B204EB87014880CB
:101810007F1C00988742BFDB584609F0E4FAB7E71F
:101820002DE9FF4F91B004460D461E9E03278020F0
:1018300010900F9040200E900D9000200B900A9079
:101840008146802009900520049029462046049A6C
:10185000FFF77FFF4FF0010A29E004EB8A01B1F99D
:101860000010AAF1010204EB8202B2F90020881AEA
:1018700001D4014600E04142089104EB8A01B1F92C
:101880000210AAF1010204EB8202B2F90220881AC6
:1018900001D4014600E041420791DDE9071088428A
:1018A00001DB089800E0079881440AF1010AAA4583
:1018B000D3DB4FEA890009F09DFA80464FEA89029E
:1018C0000021404609F09DFA4FF0000A15E00AF1A8
:1018D000010004EB8001042203A800F04FFB04EB9D
:1018E0008A01042202A800F049FB0AAB4246DDE966
:1018F0000201FFF712FE0AF1010A681E5045E6D107
:101900004FEA8900B0FBF7F0039009F073FA0C90EE
:101910004FEA8900B0FBF7F00246002103900C98D3
:1019200009F06FFA4FF0000A13E008EB8A00008814
:10193000DDE90B2101EB8201088008EB8A00408879
:10194000DDE90B2101EB820148800B98401C0B90D4
:10195000BA44CA45E9DB404609F045FA0B9B0E9AAA
:10196000CDE90023DDE90C03DDE90F12FFF74BFDA4
:101970004FF400720021FD48006809F042FADDE9E9
:101980000D23CDE900230123F848DDE90B21006890
:10199000FFF795FA0C9809F026FAF44809990068BF
:1019A000FEF7DDFE2823099ACDE900230123F04844
:1019B000F0490268F0480068FEF7F2FC149801282C
:1019C00006D0022809D003280CD0042814D10EE038
:1019D000002006900A20059012E00A20069024209C
:1019E00005900DE0242006903E20059008E00020A0
:1019F00006903E20059003E0002015B0BDE8F08F72
:101A000000BF4FF4F8720021DC48006809F0F9F9D2
:101A10004FF0000A40E04FF0000B30E0069A5244CD
:101A200002EB8202D64B03EB421252F82B10D04A43
:101A3000126852F82B000BF007FD0290069A5244F0
:101A400002EB8202CE4B03EB421252F82B10C84A33
:101A5000126852F82B000BF0F7FC019002990BF082
:101A60001DFC0390C548006850F83A1003980BF02D
:101A700019FAC249096841F83A000BF1010BBBF1B0
:101A8000280FCBD150460BF0A9FBBC49096801EBEC
:101A9000CA0148600AF1010ADDE90501401A504512
:101AA000B9D1DDE90501401A421E0021B3480068A2
:101AB000FEF718FC4FF0000A0EE0B049096801EB90
:101AC000CA0148680BF024FB06990844AD49085C3C
:101AD00006F80A000AF1010A13988245EDDB00209E
:101AE00006F80A00307888E72DE9F84F04460D46DD
:101AF00016461F46DDF828804FF000094FF6FF7AA2
:101B0000D346012D02DCC846BDE8F88F4FF000092E
:101B10001CE004EB8900B0F9001009F1010004EBAE
:101B20008000B0F9000081420BD104EB8900B0F9CC
:101B3000021009F1010004EB8000B0F902008142BB
:101B400000D006E009F101001FFA80F9681E48453F
:101B5000DFDC00BF681E484500D1D5E74FF0000923
:101B600019E004EB8900B0F90000504504DA04EBF9
:101B7000890000881FFA80FA04EB8900B0F902009E
:101B8000584504DA04EB890040881FFA80FB09F10C
:101B900001001FFA80F9A945E3DB4FF0000915E0C9
:101BA00004EB89000088A0EB0A0000B204EB890175
:101BB000088004EB89004088A0EB0B0000B204EB26
:101BC0008901488009F101001FFA80F9A945E7DB86
:101BD0003B46324629462046CDF80080FFF720FEDE
:101BE00092E72DE9F84F4FF00009C3F80090012467
:101BF000EBE0A4F1010900EB8909B9F9005000EB11
:101C00008409B9F900A0CDF800A0A4F1010900EB06
:101C10008909B9F9026000EB8409B9F90270DDF8AD
:101C200000A0BAEB050901D4CA4601E0C9F1000AD7
:101C3000D446B7EB060901D4CA4601E0C9F1000A4F
:101C4000D646F44559DD4FF0000853E0DDF800902A
:101C5000A9450ADD05EB08090FFA89F9D3F800A0B8
:101C600002EB8A0AAAF8009009E0A5EB08090FFA2E
:101C700089F9D3F800A002EB8A0AAAF80090B742CB
:101C80001ADDD3F800A002EB8A0ABAF900A0BAEB79
:101C9000050901D4CA4601E0C9F1000A0AFB0EFA9F
:101CA0009AFBFCFAB2440FFA8AFAD3F800B002EBBE
:101CB0008B0BABF802A01AE0D3F800A002EB8A0A63
:101CC000BAF900A0BAEB050901D4CA4601E0C9F18E
:101CD000000A0AFB0EFA9AFBFCFAA6EB0A0A0FFAB4
:101CE0008AFAD3F800B002EB8B0BABF802A01B1DF5
:101CF00008F10108E045A9DB66E04FF0000861E06B
:101D0000B7420ADD06EB08090FFA89F9D3F800A0FB
:101D100002EB8A0AAAF8029009E0A6EB08090FFA7A
:101D200089F9D3F800A002EB8A0AAAF80290DDF83C
:101D30000090A94528DDD3F800A002EB8A0ABAF981
:101D400002A0BAEB060901D4CA4601E0C9F1000AB3
:101D50000AFB0CFA9AFBFEFAAA440FFA8AFAD3F8A5
:101D600000B002EB8B0BABF800A028E0A80000202D
:101D7000B400002054FC0008B0000020C000002087
:101D8000544C010814730108D3F800A002EB8A0A2E
:101D9000BAF902A0BAEB060901D4CA4601E0C9F1BA
:101DA000000A0AFB0CFA9AFBFEFAA5EB0A0A0FFAE4
:101DB0008AFAD3F800B002EB8B0BABF800A01B1D26
:101DC00008F10108F0459BDB641C8C42FFF611AF63
:101DD000BDE8F88F704700000FB4044910B503AA9E
:101DE000029800F0CFF910BC5DF814FB040000204D
:101DF0002DE9F0410E460446002020622046E168AD
:101E0000884730B3252805D0D4E901219047206ABE
:101E1000401CF2E7E168204600278847050018D0FB
:101E2000A5F14100192802D820354FF40067324649
:101E3000294620462760FEF7B5F940B1012804D0B5
:101E4000F61D26F007060836D8E7361DD6E72846E1
:101E5000DAE7206ABDE8F08170B50C460546012A34
:101E600005D02878800600D5EA69002302E0012326
:101E700005E05B1C934202D2E05C0028F9D1A8691E
:101E8000E618C01AA861286A184428622846AFF3E9
:101E9000008004E0D5E9012114F8010B9047B44219
:101EA000F8D32846AFF3008070BD00002DE9F04163
:101EB0000646002410687529314616A510D0AFF3E8
:101EC0000080002802DA404213A507E031688A0743
:101ED00001D512A502E0490704D511A5012401E0AE
:101EE000AFF3008000210A2206F1240709E0B0FBCD
:101EF000F2FCB0FBF2F302FB1C00303078541846C1
:101F0000491C0028F3D123462A463046BDE8F0415B
:101F100000F0C9B8000000002D0000002B000000F8
:101F20002000000070B504460D4621461068AFF34E
:101F300000802188090502D50F4A7A4402E00E4A42
:101F40007A440E32002104F1240305E000F00F066C
:101F50000009965D5E54491C0028F7D120780023C3
:101F6000000704D5702D02D009B10223113220469A
:101F7000BDE8704000F097B814540100032A40F205
:101F8000308010F0030C00F0158011F8013BBCF11B
:101F9000020F624498BF11F801CB00F8013B38BF33
:101FA00011F8013BA2F1040298BF00F801CB38BF41
:101FB00000F8013B11F0030300F0F680083AC0F08E
:101FC000088051F8043B083A51F804CBA0E8081007
:101FD000F5E7121D5CBF51F8043B40F8043BAFF33A
:101FE0000080D20724BF11F8013B11F801CB48BF94
:101FF00011F8012B24BF00F8013B00F801CB48BFCA
:1020000000F8012B704700004FF0013C50F8042B02
:1020100051F8043B9A4221D1A2EB0C03934313EAFB
:10202000CC1317D150F8042B51F8043B9A4215D128
:10203000A2EB0C03934313EACC130BD150F8042BFF
:1020400051F8043B9A4209D1A2EB0C03934313EAE3
:10205000CC13DBD04FF00000704700BFD01A01BA9C
:10206000B1FA81F101F0180122FA01F0CB40C1F17F
:102070002001DBB2C0B2C01A2CFA01F3D11A91438D
:1020800011EAC311E6D17047704770477047704737
:1020900010B500F0BBF8006810BD10B5044600F0A4
:1020A000B5F8046010BD2DE9F0470D4699469246FB
:1020B000044600F124080168880604D5E06921F08F
:1020C0001001216000E00120A84201DD471B00E073
:1020D0000027A1697A1902EB0900081AA06120788B
:1020E000C00602D42046AFF30080002608E0D4E901
:1020F00001211AF806009047206A401C761C2062D5
:102100004E45F4DB2078C0060AD52046AFF30080A8
:1021100006E0D4E9012130209047206A401C20626B
:10212000381EA7F10107F4DC07E0D4E9012118F813
:1021300005009047206A401C2062281EA5F1010579
:10214000F3DC2046AFF300802078000602D50220A1
:10215000BDE8F0870120FBE710B5436913B1AFF389
:10216000008001E0FFF778FE012010BD127800F139
:1021700024010A7000224A700122EDE711684FF035
:10218000FF32E9E7074B70B50D467B4400F047F896
:102190000446284600F056F810B14FF0FF3070BDED
:1021A000204670BDD393000010B5203AC0F00B80DC
:1021B000B1E81850203AA0E81850B1E81850A0E84B
:1021C0001850BFF4F5AF5FEA027C24BFB1E81850A5
:1021D000A0E8185044BF18C918C0BDE810405FEA15
:1021E000827C24BF51F8043B40F8043B08BF704791
:1021F000D20728BF31F8023B48BF11F8012B28BF96
:1022000020F8023B48BF00F8012B70470048704798
:102210008CC1002001694A1C02610878704700B532
:102220008FB0CDE901310021059105497944CDE90F
:10223000031011466846FFF7DBFD0FB000BD00003C
:10224000E5FFFFFF007B00F080007047004870470B
:102250008CC100207546FFF7F9FFAE4605006946C0
:10226000534620F00700854618B020B5FDF7C4FF9F
:10227000BDE820404FF000064FF000074FF0000887
:102280004FF0000B21F00701AC46ACE8C009ACE808
:10229000C009ACE8C009ACE8C0098D4670470446E7
:1022A000AFF300802046FDF795FF10B500F0EAFF80
:1022B00010BD70B506460C46154608E03046721C47
:1022C00096B200F007F804F8010B681E85B2002DE5
:1022D000F4D170BD70B50446002601F085F825469E
:1022E000E11704EB11610912A02202EB4101C8B20F
:1022F00001F046F801F0C4F8E11704EB116109128E
:10230000A4EB0121C8B201F03BF801F0B9F801F0EB
:102310006BF8A12001F034F801F0B2F8002000F0D1
:10232000F7FF064601F086F8304670BD70B50546E9
:102330000C46164606E02178284600F009F8681C8D
:1023400085B2641C3000A6F101018EB2F3D170BDDC
:1023500070B504460E4601F047F82546E11704EB38
:1023600011610912A02202EB4101C8B201F008F884
:1023700001F086F8E11704EB11610912A4EB0121C9
:10238000C8B200F0FDFF01F07BF8304600F0F8FF26
:1023900001F076F801F04EF80A2008F0AFFD70BDAC
:1023A00010B5052008F0C8FD10BD000010B50020D4
:1023B0000F4908600F48006820F0F0000D490860E0
:1023C0000846006840F030000860FFF7E9FF002091
:1023D0000949C1F8A401FFF7E3FF0120044908609F
:1023E000FFF7DEFF00200549C1F8840110BD0000A1
:1023F00084812142041C014000802342008021424C
:102400001848806940F008001649886108468069CC
:1024100040F0800088611448006820F0F000124904
:1024200008600846006840F0300008600F48006807
:1024300020F0F0000D4908600846006840F03000C8
:10244000086009480C30006840F0020006490C3171
:10245000086006480830006840F4007003490831FD
:102460000860704700100240000C0140041C01404D
:1024700010B500200F4908600F48006820F0F000F8
:102480000D4908600846006840F030000860FFF71A
:1024900087FF01200949C1F8A401FFF781FF01204E
:1024A00004490860FFF77CFF00200549C1F884015A
:1024B00010BD000084812142041C014000802342A1
:1024C0000080214270B5054600241648006820F0BF
:1024D000F000144908600846006840F08000086079
:1024E0001E2008F029FD002611E000200E4908609A
:1024F000FFF756FF01200D49C1F884016006040E64
:102500000B48006808B1601CC4B2701CC6B2082E2B
:10251000EBDB15B9FFF7ACFF01E0FFF747FF204603
:1025200070BD0000041C01408481214200802142D2
:102530002481234270B504461348006820F0F0005F
:10254000114908600846006840F03000086000202B
:102550000E490860FFF724FF002511E0E0090C494F
:1025600008606006040E01200A49C1F88401FFF7E3
:1025700017FF002005490860FFF712FF681CC5B26D
:10258000082DEBDB70BD0000041C0140848121425A
:10259000A48123420080214210B50F48006820F03A
:1025A000F0000D4908600846006840F030000860FF
:1025B00001200A4908600A49C1F884011E2008F078
:1025C000BBFC002005490860FFF7EAFE0020044933
:1025D000C1F8840110BD0000041C0140A481234205
:1025E0000080214210B50D48006820F0F0000B4932
:1025F00008600846006840F0300008600120084983
:1026000008601E2008F098FC00200649C1F8A401CB
:10261000FFF7C6FE01200449086010BD041C0140FC
:102620008481214200802342A481234210B50024EA
:102630001348006820F0F00011490860084600685F
:1026400040F08000086001200E4908600E49C1F882
:102650008401FFF7A5FE09E0601CC4B2FA2C03DD7B
:10266000FFF7C0FF012010BDFFF79AFE0548803834
:1026700000680028F0D10549086000BFF3E70000BA
:10268000041C0140A4812342008021428481214214
:1026900000224FF4803105E00948406B00F08000D3
:1026A00000B103E00800A1F10101F5D100BF09B9B3
:1026B0000320704740F2FF50014B98631046F8E743
:1026C00000800140024605E01348416B01F04500DF
:1026D00000B100E0F8E700BF01F0040020B10420E1
:1026E0000D4B98630320704701F0010018B10120E1
:1026F000094B9863F7E708480069904201D0102021
:10270000F1E740F2FF50044B9863184640690823F4
:102710001840C0B2E7E700000080014010B500207B
:102720004FF4803205E0134B596B01F0450303B1C0
:1027300003E01300A2F10102F5D100BF12B101F0D4
:1027400004033BB103200B4B9B6B43F00403094C88
:10275000A36310BD01F0010333B10120054B9B6B56
:1027600043F00103034CA36340F2FF53014CA36306
:1027700000BFEEE70080014005E00C48416B01F02E
:10278000450000B100E0F8E700BF01F0040038B1F7
:102790000648806B40F00400044A906303207047B1
:1027A00040F2FF50014A90630020F8E700800140AA
:1027B00070B503460C46002505E02148426B02F047
:1027C000450000B100E0F8E700BF02F0040038B1B6
:1027D0001B48806B40F00400194EB063032070BDAD
:1027E00002F0010038B11648806B40F00100144E31
:1027F000B0630120F3E712480069984201D010202D
:10280000EDE740F2FF500E4EB0633046416901F4EF
:10281000604018B9080C20802846E0E701F4005019
:1028200008B11320DBE701F4804008B11020D6E79F
:1028300001F4004008B10F20D1E72846CFE700009F
:102840000080014010B500204FF4803205E0114BAC
:10285000596B01F0450303B103E01300A2F101023B
:10286000F5D100BF12B101F004033BB10320094BC5
:102870009B6B43F00403074CA36310BD01F04003BE
:1028800033B10020034B9B6B43F04003014CA36327
:1028900000BFF2E70080014008B52F48806940F092
:1028A00080002D4988612D48006820F47F402B4925
:1028B00008600846006840F4605008602748083007
:1028C000006840F44060254908310860FFF798FD32
:1028D000002023490860142008F010FB0120214942
:1028E000C1F8AC01322008F009FB00208DF800008F
:1028F0000122694600F038F901226946A42000F05F
:1029000033F916208DF8000001226946802000F07E
:102910002BF90C208DF8000001226946882000F078
:1029200023F902226946A12000F024F89DF8000056
:1029300030280ED19DF8010003280AD19DF801002E
:102940009DF8002000EB022107A0FFF745FA0020C8
:1029500008BD0120FCE7000000100240041C0140FB
:10296000AC812342008023424354502049443A25FD
:10297000780D0A002DE9F04106460F461546FFF78F
:102980000BFE7020FFF7D6FDFFF750FEF0B2FFF709
:10299000D1FDFFF74BFEFFF7FFFD7120FFF7CAFDEA
:1029A000FFF744FE00240BE0691EA14201D0012183
:1029B00000E000210846FFF785FD3855601CC4B2D1
:1029C000AC42F1DBFFF70EFEBDE8F08171B581B0DE
:1029D0000024002661480078401C604908700846C1
:1029E00000780A2190FBF1F201FB120018B15B485C
:1029F00000780A2867DA012201A90220FFF7BAFF4E
:102A00009DF8040000F00F0000287ED09DF804001F
:102A100000F00F00062878DA9DF8040000F00F019E
:102A2000FF208840C5B2E843C0B240F0C0004C4926
:102A300081F8200000245AE0494890F82000012144
:102A4000A1400840F0B3474931F814000422694618
:102A5000FFF790FF424890F8300000F00100C0B14D
:102A60009DF801009DF8001001F00F0100EB01201E
:102A70003B49163121F814009DF803009DF802101F
:102A800001F00F0100EB012135480C3020F8141043
:102A90001DE09DF801009DF8001001F00F0100EB12
:102AA0000120C0F5F07081B22D480C3020F81410D0
:102AB0009DF803009DF8021001F00F0100EB0121C9
:102AC000274801E011E020E0163020F814109DF8AE
:102AD000000000F0F000802807D0002120481630C8
:102AE00020F814100A3820F81410601CC4B2052C09
:102AF000A2DB01261A48808920B91948C08A08B982
:102B0000002001900020154908709DF8040000F095
:102B10001F00D0B9124890F8200000F0800040B1AA
:102B20000F4890F8200020F080000D4981F8200027
:102B30000BE04FF6FF700A498881C882084690F87A
:102B4000200000F0E00081F8200004480078F02820
:102B500002DD0A200149087030467CBD22000020B9
:102B600028000020D2ED00082DE9F04105460E4670
:102B700017464FF00008FFF70FFD7020FFF7DAFC53
:102B8000FFF754FDE8B2FFF7D5FCFFF74FFD002437
:102B90000BE0305DFFF7CEFCFFF748FD8046B8F153
:102BA000000F00D003E0601CC4B2BC42F1DB00BFE8
:102BB000FFF718FD4046BDE8F0810000FCB5074670
:102BC0000D460026002400200090019008220121DB
:102BD000102005F0D1FA1020FFF774FD04460CB167
:102BE0002046FCBD3A040121372005F0C5FA372004
:102BF000FFF768FD04460CB12046F2E701230322EB
:102C00000821101F05F0CCFA00220121332005F025
:102C1000B3FA3320FFF756FD04460CB12046E0E737
:102C20000DE03848406B00F4001040B1354880306A
:102C300000684DF82600761C022E00D306E03148CD
:102C4000406B40F22A6108400028EAD000BF2D48BE
:102C5000406B00F0080038B12A48806B40F0080053
:102C6000284988630420BCE72648406B00F0020036
:102C700038B12448806B40F002002249886302206A
:102C8000AFE72048406B00F0200038B11D48806B52
:102C900040F020001B4988630620A2E71948406BDA
:102CA00000F4007038B11748806B40F4007015498B
:102CB0008863072095E740F2FF5012498863009827
:102CC0000006009901F47F4140EA0120009901F4D7
:102CD0007F0140EA1120009940EA11606860019884
:102CE0000006019901F47F4140EA0120019901F4B5
:102CF0007F0140EA1120019940EA116028602046D6
:102D00006FE70000008001401CB53D48806940F03D
:102D100080003B4988613B48006820F47F40394986
:102D200008600846006840F4605008603548083084
:102D3000006840F44060334908310860FFF760FBE9
:102D40000020314908600A2008F0D8F801202F49F6
:102D5000C1F8AC010A2008F0D1F82A48006820F434
:102D60007060284908600846006840F40060086008
:102D700024480830006820F4806022490831086047
:102D8000642008F0BBF80422694648F2401000F0C5
:102D900053F800208DF8040069461DA0FFF71CF8C9
:102DA0001EA16846FFF730F940BB02208DF80000F5
:102DB0000122694648F2400000F09EF9012269466E
:102DC00048F2470000F038F89DF80000602807DA64
:102DD0009DF8001013A0FEF7FFFF012000F05EF940
:102DE0000A2008F08BF800208DF8000001226946C7
:102DF00048F2400000F080F900201CBD0120FCE7F3
:102E000000100240041C0140AC8123420080234298
:102E10004354502049443A25730D0A003931343760
:102E20000000000044656661756C74205665723A56
:102E300025640D0A000000002DE9F04105460F460B
:102E40001646FFF7A9FB2820FFF774FBFFF7EEFB00
:102E50002812FFF76FFBFFF7E9FBE8B2FFF76AFB09
:102E6000FFF7E4FBFFF798FB2920FFF763FBFFF771
:102E7000DDFB00240BE0711EA14201D0012100E026
:102E800000210846FFF71EFB3855601CC4B2B4424F
:102E9000F1DBFFF7A7FBBDE8F081000071B583B05F
:102EA0000024002679480078401C784908700846BC
:102EB00000780A2190FBF1F201FB120018B173486F
:102EC00000780A287EDA012203A948F24E10FFF7A3
:102ED000B3FF9DF80C0000F0800068B19DF80C0075
:102EE00000F00F00062807DA00200190012201A956
:102EF00048F24E1000F000F99DF80C0000F00F00B1
:102F000000285FD09DF80C0000F00F000628D9DAE9
:102F10009DF80C0000F00F01FF208840C0B2019026
:102F20005B4890F820509DF80400C043C0B240F0C8
:102F3000C000574981F82000084681898182C18AF2
:102F4000C183002446E0524890F820000121A140AE
:102F5000084020B34F4931F81400042202A9FFF7BA
:102F60006BFF4B4890F8300000F00100C0B19DF8B5
:102F700008009DF8091000EB012081B2444816308A
:102F800020F814109DF80A009DF80B1000EB0120AA
:102F9000C0F5487081B23E480C3020F8141017E09C
:102FA0009DF808009DF8091000EB012081B2384817
:102FB0000C3020F814109DF80A009DF80B1000EB5F
:102FC000012000E036E081B23148163020F81410BC
:102FD000601CC4B2052CB6DB01262D4880892E4921
:102FE0000988884205DC2A48C08A2B4949888842DA
:102FF0001DDD9DF80C0000F00F0001280ADD2448BB
:10300000C089234988810846008BC88200201F4957
:1030100008700FE01E48808A1D4988810846C08BD1
:10302000C88280200390084680F8205002E00020EB
:10303000164908709DF80C0000F08F0080281AD106
:10304000134890F8200000F0800040B1104890F83C
:10305000200020F080000E4981F820000BE04FF6A0
:10306000FF700B498881C882084690F8200000F064
:10307000E00081F8200005480078F02802DD0A20F1
:1030800002490870304604B070BD000023000020E3
:103090002800002094EE0008AC04002038B5054656
:1030A000002400208DF800008DF8015000BF09E0D9
:1030B0009DF800000F49095D0844C0B28DF800007A
:1030C000601CC4B2B82CF3D39DF80000C043401C70
:1030D000C0B28DF80000B822064948F2470000F05F
:1030E0000BF80222694648F2FF0000F005F80020C4
:1030F00038BD0000DCED00082DE9F04104460E4625
:1031000017464FF00008FFF747FA2820FFF712FA9A
:10311000FFF78CFA2012FFF70DFAFFF787FAE0B2FB
:10312000FFF708FAFFF782FA00250BE0705DFFF762
:1031300001FAFFF77BFA8046B8F1000F00D003E0F8
:10314000681CC5B2BD42F1DB00BFFFF74BFA404639
:10315000BDE8F0812DE9F05F82460F461446204617
:10316000E21704EB5272D2102146E31704EB5373BB
:10317000DB10A4EBC3030BB1012300E000231A44CE
:10318000624302F0FF099AF800600AF101008246EA
:103190000578812E05DB402D03DBFF2D01D0FF2EAE
:1031A0000DD14FF0000B06E0002007F8010B0BF1EA
:1031B000010000F0FF0BCB45F6DBBDE8F09F7F2D53
:1031C00003DAA5F14000C5B202E0A5F14100C5B2A5
:1031D000A6F18100C6B2BE2000FB065000FB09F834
:1031E0000C2C04D0102C0CD0182C1ED113E010483D
:1031F000D0F8090000EB08014A46384607F0A2FC67
:1032000013E00B48D0F8110000EB08014A4638469D
:1032100007F098FC09E00648D0F8190000EB080117
:103220004A46384607F08EFC00BF00BF00BFC4E727
:1032300040C1002010B500200F4908600F48006809
:1032400020F070400D4908600846006840F040508A
:10325000086000200A49C1F89C01022007F06CFEBA
:10326000012005490860022007F066FE002004499D
:10327000C1F8980110BD000098812142000C014066
:10328000008021420C48806940F008000A498861AA
:103290000A48006820F07F40084908600846006836
:1032A00040F04C50086005480C30006840F0C00009
:1032B00002490C310860704700100240000C0140C8
:1032C00010B500200F4908600F48006820F07040DA
:1032D0000D4908600846006840F040500860012031
:1032E0000A49C1F89C01022007F026FE0120054989
:1032F0000860022007F020FE00200449C1F8980170
:1033000010BD000098812142000C01400080214244
:1033100070B5054600241748006820F07040154934
:1033200008600846006840F000400860002616E08B
:10333000002011490860022007F0FEFD01200F491E
:10334000C1F898016006040E0B487C38006808B18B
:10335000601CC4B2012007F0EFFD701CC6B2082E3D
:10336000E6DB15B9FFF7ACFF01E0FFF763FF20468E
:1033700070BD0000000C0140988121420080214274
:1033800070B504461548006820F070401349086085
:103390000846006840F0405008600020104908606E
:1033A000002517E0E0090E49091D08606006040EBB
:1033B000022007F0C1FD01200A49C1F8980102204E
:1033C00007F0BAFD002006490860022007F0B4FDAE
:1033D000681CC5B2082DE5DB70BD0000000C014083
:1033E000988121420080214210B50F48006820F0EA
:1033F00070400D4908600846006840F04050086081
:1034000001200A4908600A49C1F89801042007F020
:1034100093FD002005490860042007F08DFD002081
:103420000349C1F8980110BD000C01409C81214264
:103430000080214210B50F48006820F070400D490F
:1034400008600846006840F04050086000200A49C3
:1034500008600A49C1F89C01042007F06DFD0120B5
:10346000054908600549C1F89C01042007F064FD86
:1034700010BD0000000C01409881214200802142D3
:1034800010B500241448006820F07040124908600C
:103490000846006840F00040086001200F490860BD
:1034A00007F04AFD01200E49C1F8980107F044FDDC
:1034B00007E0601CC4B2FA2C03DDFFF7BBFF01205C
:1034C00010BD0648803800680028F2D10349091F62
:1034D000086000BFF4E70000000C01409C8121421D
:1034E0000080214272B6704762B670471CB5044630
:1034F0000020019000901F480088020401210D2047
:1035000004F03AFE1C48406B009002E01A48406B01
:103510000090009800F045000028F7D0009800F0D7
:10352000010038B11448806B40F0010012498863F3
:1035300001201CBD009800F0040038B10E48806BDB
:1035400040F004000C4988630320F2E70A48006950
:103550000D2801D01020ECE740F2FF5006498863A7
:103560000846406901900198C0F343202070002074
:10357000DFE700001400002000800140154880694A
:1035800040F00400134988610846806940F040001B
:1035900088611148006820F00F000F490860084654
:1035A000006840F0080008600C4800680C490840BA
:1035B0000A490860084600680A4908430749086044
:1035C00006480C30006840F01C0004490C310860CB
:1035D0007047000000100240000801400018014040
:1035E000FF00F0FF0088080010B5044614B1012068
:1035F000234908702248007858B32248006858B11F
:103600002048001F006838B11E480838006818B10B
:103610001D48006801281CD10A2007F06FFC00201B
:10362000174908701748006808B9012010BD1548EF
:10363000001F006808B90220F8E71248083800683F
:1036400008B90320F2E710480068012815D10420CA
:10365000ECE70C48006801280FD10A48001F0068F9
:1036600001280AD1074808380068012805D1064812
:10367000006810B90120024908700020D6E7000058
:103680000E000020100123420001214270B50446C3
:10369000002617480588408845431548808846F627
:1036A0000401884216D112488079012812D10020E5
:1036B0000F4988712A2048812B20888100210846E3
:1036C00004F094F801200A4988712B2048812A20AF
:1036D000888103E00021084604F088F804F078FAB5
:1036E000002602E003480480761CAE42FAD370BD87
:1036F000AC0400200008006C10B50446002C66D114
:103700006C498871F02008804FF4A070488008460A
:10371000808849F2413188420BD06648808846F65D
:103720000401884205D06348808845F21031884200
:103730001AD12C205F4908812A2048812B208881BA
:103740000846808846F60401884205D0594880889A
:1037500045F21031884206D14FF4A07055490880D7
:103760004FF4F0704880A1E05248808845F2105133
:10377000884210D14FF430504E4908814FF4285000
:1037800048814FF42C5088814FF4F07008804FF43A
:10379000487048808AE04748808841F66311884233
:1037A0000DD12C20434908812B2048812A20888173
:1037B0004FF4F07008804FF44870488076E0222083
:1037C0003C49088120204881212088816EE0012029
:1037D000384988714FF4A0700880F020488008466E
:1037E000808849F24131884205D03248808845F2CC
:1037F0001031884207D12C202E4908812A20488187
:103800002B2088813FE02B48808846F604018842BF
:1038100007D12C20274908812B2048812A20888124
:1038200031E02448808845F21051884210D14FF48D
:103830003050204908814FF4285048814FF42C50D3
:1038400088814FF4487008804FF4F07048801AE087
:103850001848808841F6631188420DD12C20154903
:1038600008812A2048812B2088814FF448700880E5
:103870004FF4F070488006E022200E490881212094
:103880004881202088810B48808846F604018842C0
:1038900005D00848808845F21031884206D14FF49F
:1038A000F070044908804FF4A0704880002003F0B5
:1038B00027FE10BDAC0400202DE9FF4F84B08146E7
:1038C0008A460020039002900698A0EB090507980D
:1038D000A0EB0A06CDF80490CDF800A0002D01DD84
:1038E000012705E00DB9002702E04FF0FF376D42D8
:1038F000002E02DD4FF0010806E016B94FF0000877
:1039000002E04FF0FF387642B54201DD2C4600E080
:1039100034464FF0000B21E0009A91B2019A90B228
:1039200000F022F803982844039002983044029053
:103930000398A04205DD0398001B039001983844CA
:1039400001900298A04205DD0298001B02900098A9
:10395000404400900BF101001FFA80FB601C83457E
:10396000DADD08B0BDE8F08F30B504460D462946D3
:10397000204603F03BFF04F02BF90248008802497F
:10398000088030BD0A0000200008006CF0B5044635
:103990000D4616461F462B46324629462046FFF75F
:1039A0008BFF3B46224629462046FFF785FF3B46D4
:1039B000324639462046FFF77FFF3B4632462946CE
:1039C0003046FFF779FFF0BD2DE9F04306460F467C
:1039D0009046002445460320A0EB48093CE07A1BB2
:1039E00091B2321990B2FFF7BFFF3A1B91B2721930
:1039F00090B2FFF7B9FF3A1991B2721990B2FFF77E
:103A0000B3FF7A1991B2321990B2FFF7ADFF7A196C
:103A100091B2321B90B2FFF7A7FF3A1991B2721B15
:103A200090B2FFF7A1FF7A1B91B2321B90B2FFF761
:103A30009BFF3A1B91B2721B90B2FFF795FF641C7B
:103A4000B9F1000F03DAA000801D814404E0601B7F
:103A500080000A3081446D1EAC42C0DDBDE8F083B9
:103A600030B503460C4615465A48808849F2413124
:103A7000884205D05748808845F21031884214D1D9
:103A80005449488904F09EF8181204F095F8D8B209
:103A900004F092F84F49888904F094F8201204F059
:103AA0008BF8E0B204F088F88CE04A48808845F250
:103AB0001051884220D14749488904F083F81812F0
:103AC00004F07AF843494989491C88B204F07AF82D
:103AD000D8B204F071F83F49888904F073F82012D5
:103AE00004F06AF83B498989491C88B204F06AF8F5
:103AF000E0B204F061F865E03648808841F6631171
:103B0000884228D13348807920B932480088401E45
:103B1000C01A83B22F49488904F054F8181204F0EF
:103B20004BF8D8B204F048F8181204F045F8D8B2AF
:103B300004F042F82749888904F044F8201204F080
:103B40003BF8E0B204F038F8201204F035F8E0B2A7
:103B500004F032F836E01F48808846F604018842B7
:103B60001DD11C488079012804D11A480088401EC4
:103B7000C01A83B21749488904F024F8181204F0D7
:103B80001BF8D8B204F018F81249888904F01AF822
:103B9000201204F011F8E0B204F00EF812E00D4823
:103BA0008079012804D10B480088401EC01A83B2D6
:103BB00008494889194604F015F8064988892146BC
:103BC00004F010F80348008903490880881C058028
:103BD00030BD0000AC040020FE07006C2DE9FC4F56
:103BE00005460E4617469846DDF82C9000200190B9
:103BF0002748808846F60401884229D124488079E4
:103C0000012825D1AB46354621480088C01B401EFF
:103C100086B247461E480088A0EB0B00401E1FFAE4
:103C200080F800201A4988712A2048812B20888139
:103C300043463A4631462846CDF80090FFF7CEFF7E
:103C40000120134988712B2048812A2088811CE09B
:103C5000781B401C80B20190344614E0214628466F
:103C600003F0C4FD03F0B4FF4FF0000A06E009487A
:103C7000A0F800900AF101001FFA80FA019882452D
:103C8000F5DB601C84B24445E8DDBDE8FC8F000034
:103C9000AC0400200008006C10B5FD48406940F4F9
:103CA0008070FB4948610846806940F008008861DF
:103CB0000846806940F0200088610846806940F02D
:103CC000400088610846806940F480708861F1484E
:103CD000006820F00F00EF4908600846006840F0D7
:103CE00003000860EC480068EC490840EA490860B5
:103CF00008460068EA490843E7490860081F006869
:103D000000F0FF20091F08600846006840F0BB1063
:103D10000860E44800680020E2490860084600683E
:103D200040F0BB300860081F006820F07040091F99
:103D300008600846006840F030400860DA48406893
:103D400020F47020D84948600846406840F430208C
:103D500048600846006820F00F00086008460068C8
:103D600040F00B00086000204FF020418861C861DE
:103D7000CE4908604FF02040806940F480504FF0F9
:103D8000204188610846806940F480408861084687
:103D9000806940F0100088610846C069C861084623
:103DA000C06940F00100C8610846C06940F4706015
:103DB000C861BE480068C1F81C01BC480068C1F871
:103DC0001C010846D0F81C0140F44070C1F81C01E9
:103DD0000846806940F001008861322007F08EF8C3
:103DE000002003F057FBB249888008468088FF28EE
:103DF0000ADB084680884FF6FF71884204D0AC4841
:103E00008088B0F5134F7CD1D32003F0DBFE03F0A4
:103E100037FBA749888003F033FBA549888003F06E
:103E20002FFBA3498880084680884FF6FF7101EA7E
:103E300000209F49888003F023FB9D49898808431F
:103E40009B4988800846808849F24131884258D091
:103E5000BF2003F0B7FE03F013FB9549888003F001
:103E60000FFB9349888003F00BFB9149888003F096
:103E700007FB8F498880084680884FF6FF7101EA6A
:103E800000208B49888003F0FBFA89498988084320
:103E9000874988800846808846F6040188427AD09F
:103EA000D42003F08FFE03F0EBFA8149888003F001
:103EB000E7FA7F49888003F0E3FA7D498880084665
:103EC00080884FF6FF7101EA00207949888003F06D
:103ED000D7FA7749898808437549888008468088D9
:103EE00045F21031884256D04FF45A4003F06AFE32
:103EF00003F0C6FA6E4988804FF45B4003F062FE1F
:103F000000E048E003F0BCFA6949888008468088F0
:103F10004FF6FF7101EA0020654988804FF45C404C
:103F200003F050FE03F0ACFA614989880843604908
:103F3000888008468088B0F5004F02D145F21050C5
:103F400088805B48808845F21051884223D0A120A8
:103F500003F038FE03F094FA5549888003F090FA94
:103F600053498880084680884FF6FF7101EA002097
:103F70004F49888003F084FA4D49898808434C49A9
:103F800088800846808845F26171884203D141F6F5
:103F90006310474988804648818846A0FDF71CFF8A
:103FA0004348808849F24131884270D1CF2003F0E4
:103FB00009FE002003F000FEC12003F0FDFD3020CB
:103FC00003F0FAFDED2003F0FDFD642003F0F4FDA5
:103FD000032003F0F1FD122003F0EEFD812003F039
:103FE000EBFDE82003F0EEFD852003F0E5FD102059
:103FF00003F0E2FD7A2003F0DFFDCB2003F0E2FDC9
:10400000392003F0D9FD2C2003F0D6FD002003F069
:10401000D3FD342003F0D0FD022003F0CDFDF720C6
:1040200003F0D0FD202003F0C7FDEA2003F0CAFD15
:10403000002003F0C1FD002003F0BEFDC02003F00E
:10404000C1FD1B2003F0B8FDC12003F0BBFD012022
:1040500003F0B2FDC52003F0B5FD302003F0ACFD48
:10406000302003F0A9FDC72003F0ACFDB72003F01A
:10407000A3FD362003F0A6FD482003F09DFD3A2065
:1040800003F0A0FD552003F097FDB1201AE0BFE03A
:1040900000100240000C01400414014000F0FF0039
:1040A000BB0B00BB04180140002001401C0100A014
:1040B000AC040020204C43442049443A25780D0AA2
:1040C0000000000003F07EFD002003F075FD1A20C3
:1040D00003F072FDB62003F075FD0A2003F06CFDBD
:1040E000A22003F069FDF22003F06CFD002003F034
:1040F00063FD262003F066FD012003F05DFDE02056
:1041000003F060FD0F2003F057FD2A2003F054FD5B
:10411000282003F051FD082003F04EFD0E2003F08F
:104120004BFD082003F048FD542003F045FDA92075
:1041300003F042FD432003F03FFD0A2003F03CFD65
:104140000F2003F039FD002003F036FD002003F0BE
:1041500033FD002003F030FD002003F02DFDE120B1
:1041600003F030FD002003F027FD152003F024FDAF
:10417000172003F021FD072003F01EFD112003F09E
:104180001BFD062003F018FD2B2003F015FD562023
:1041900003F012FD3C2003F00FFD052003F00CFDA1
:1041A000102003F009FD0F2003F006FD3F2003F06F
:1041B00003FD3F2003F000FD0F2003F0FDFC2B204A
:1041C00003F000FD002003F0F7FC002003F0F4FCF6
:1041D000012003F0F1FC3F2003F0EEFC2A2003F065
:1041E000F1FC002003F0E8FC002003F0E5FC0020D7
:1041F00003F0E2FCEF2003F0DFFC112003F0E2FC0F
:10420000782006F07BFE292003F0DCFC03F01DB9CA
:10421000FE48808846F6040188427CD1112003F0D4
:10422000D1FC142006F06AFED02003F0CBFC07205E
:1042300003F0C2FC422003F0BFFC1D2003F0BCFCD5
:10424000D12003F0BFFC002003F0B6FC1A2003F0DD
:10425000B3FC092003F0B0FCD22003F0B3FC012032
:1042600003F0AAFC222003F0A7FCC02003F0AAFC64
:10427000102003F0A1FC3B2003F09EFC002003F083
:104280009BFC022003F098FC112003F095FCC52054
:1042900003F098FC032003F08FFCC82003F092FC8D
:1042A000002003F089FC252003F086FC212003F088
:1042B00083FC052003F080FC002003F07DFC0A2035
:1042C00003F07AFC652003F077FC252003F074FCF2
:1042D000772003F071FC502003F06EFC0F2003F0F8
:1042E0006BFC002003F068FCF82003F06BFC01205D
:1042F00003F062FCFE2003F065FC002003F05CFC90
:10430000022003F059FC202003F05CFC362003F06F
:1043100059FC082000E02CE003F04EFC3A2003F0AA
:1043200051FC552003F048FC2B2003F04BFC0020EF
:1043300003F042FC002003F03FFC012003F03CFCB2
:104340003F2003F039FC2A2003F03CFC002003F05E
:1043500033FC002003F030FC012003F02DFCDF20B3
:1043600003F02AFC782006F0C9FD292003F02AFC7E
:104370004CE7A648808845F21031884240F07C879F
:10438000ED2003F01FFC012003F016FCFE2003F0DB
:1043900013FCEE2003F016FCDE2003F00DFC2120C0
:1043A00003F00AFCF12003F00DFC012003F004FCF3
:1043B000DF2003F007FC102003F0FEFBC42003F015
:1043C00001FC8F2003F0F8FBC62003F0FBFB00206C
:1043D00003F0F2FBE22003F0EFFBE22003F0ECFB42
:1043E000E22003F0E9FBBF2003F0ECFBAA2003F07E
:1043F000E3FBB02003F0E6FB0D2003F0DDFB002023
:1044000003F0DAFB0D2003F0D7FB002003F0D4FB10
:10441000112003F0D1FB002003F0CEFB192003F0A4
:10442000CBFB002003F0C8FB212003F0C5FB0020DC
:1044300003F0C2FB2D2003F0BFFB002003F0BCFB08
:104440003D2003F0B9FB002003F0B6FB5D2003F034
:10445000B3FB002003F0B0FB5D2003F0ADFB0020B8
:1044600003F0AAFBB12003F0ADFB802003F0A4FB16
:10447000002003F0A1FB8B2003F09EFB002003F043
:104480009BFB962003F098FB002003F095FBB220E5
:1044900003F098FB002003F08FFB002003F08CFB5F
:1044A000022003F089FB002003F086FB032003F0C9
:1044B00083FB002003F080FBB32003F083FB00208C
:1044C00003F07AFB002003F077FB002003F074FB7D
:1044D000002003F071FB002003F06EFB002003F0CE
:1044E0006BFB002003F068FB002003F065FB00205D
:1044F00003F062FB002003F05FFB002003F05CFB95
:10450000002003F059FB002003F056FB002003F0CD
:1045100053FB002003F050FB002003F04DFB002074
:1045200003F04AFB002003F047FB002003F044FBAC
:10453000002003F041FB002003F03EFB002003F0CD
:104540003BFB002003F038FB002003F035FBB420D8
:1045500003F038FB8B2003F02FFB002003F02CFB33
:10456000962003F029FB002003F026FBA12003F096
:1045700023FB002003F020FBB52003F023FB0220E7
:1045800003F01AFB002003F017FB032003F014FBD9
:10459000002003F011FB042003F00EFB002003F0C9
:1045A0000BFBB62003F00EFB002003F005FB002000
:1045B00003F002FBB72003F005FB002003F0FCFA38
:1045C000002003F0F9FA3F2003F0F6FA002003F090
:1045D000F3FA5E2003F0F0FA002003F0EDFA642015
:1045E00003F0EAFA002003F0E7FA8C2003F0E4FA83
:1045F000002003F0E1FAAC2003F0DEFA002003F023
:10460000DBFADC2003F0D8FA002001E0AC04002043
:1046100003F0D2FA702003F0CFFA002003F0CCFAB6
:10462000902003F0C9FA002003F0C6FAEB2003F053
:10463000C3FA002003F0C0FADC2003F0BDFA00202A
:1046400003F0BAFAB82003F0BDFA002003F0B4FA80
:10465000002003F0B1FA002003F0AEFA002003F0CE
:10466000ABFA002003F0A8FA002003F0A5FA00201E
:1046700003F0A2FA002003F09FFABA2003F0A2FA96
:10468000242003F099FA002003F096FA002003F0AA
:1046900093FA002003F090FAC12003F093FA20204F
:1046A00003F08AFA002003F087FA542003F084FA1A
:1046B000002003F081FAFF2003F07EFA002003F0CF
:1046C0007BFAC22003F07EFA0A2003F075FA00207C
:1046D00003F072FA042003F06FFA002003F06CFA82
:1046E000C32003F06FFA3C2003F066FA002003F0C9
:1046F00063FA3A2003F060FA002003F05DFA3920F3
:1047000003F05AFA002003F057FA372003F054FA66
:10471000002003F051FA3C2003F04EFA002003F091
:104720004BFA362003F048FA002003F045FA322015
:1047300003F042FA002003F03FFA2F2003F03CFA86
:10474000002003F039FA2C2003F036FA002003F0A1
:1047500033FA292003F030FA002003F02DFA262046
:1047600003F02AFA002003F027FA242003F024FAA9
:10477000002003F021FA242003F01EFA002003F0A9
:104780001BFA232003F018FA002003F015FA3C204E
:1047900003F012FA002003F00FFA362003F00CFAAF
:1047A000002003F009FA322003F006FA002003F09B
:1047B00003FA2F2003F000FA002003F0FDF92C206B
:1047C00003F0FAF9002003F0F7F9292003F0F4F9D7
:1047D000002003F0F1F9262003F0EEF9002003F0A9
:1047E000EBF9242003F0E8F9002003F0E5F9242098
:1047F00003F0E2F9002003F0DFF9232003F0DCF9F5
:10480000002003F0D9F9C42003F0DCF9622003F0A2
:10481000D3F9002003F0D0F9052003F0CDF90020F2
:1048200003F0CAF9842003F0C7F9002003F0C4F9AB
:10483000F02003F0C1F9002003F0BEF9182003F0C6
:10484000BBF9002003F0B8F9A42003F0B5F900206B
:1048500003F0B2F9182003F0AFF9002003F0ACF92F
:10486000502003F0A9F9002003F0A6F90C2003F072
:10487000A3F9002003F0A0F9172003F09DF9002010
:1048800003F09AF9952003F097F9002003F094F9CA
:10489000F32003F091F9002003F08EF9E62003F0F5
:1048A0008BF9002003F088F9C52003F08BF9322042
:1048B00003F082F9002003F07FF9442003F07CF933
:1048C000002003F079F9652003F076F9002003F069
:1048D00073F9762003F070F9002003F06DF9882059
:1048E00003F06AF9002003F067F9C62003F06AF9C3
:1048F000202003F061F9002003F05EF9172003F097
:104900005BF9002003F058F9012003F055F900206D
:1049100003F052F9C72003F055F9002003F04CF9D9
:10492000002003F049F9002003F046F9002003F0CD
:1049300043F9C82003F046F9002003F03DF90020B8
:1049400003F03AF9002003F037F9002003F034F9BE
:10495000C92003F037F9002003F02EF9002003F0FE
:104960002BF9002003F028F9002003F025F900209E
:1049700003F022F9002003F01FF9002003F01CF9D6
:10498000002003F019F9002003F016F9002003F0CD
:1049900013F9002003F010F9002003F00DF90020B6
:1049A00003F00AF9002003F007F9002003F004F9EE
:1049B000002003F001F9E02003F004F9162003F0D1
:1049C000FBF8002003F0F8F81C2003F0F5F80020B5
:1049D00003F0F2F8212003F0EFF8002003F0ECF8E8
:1049E000362003F0E9F8002003F0E6F8462003F053
:1049F000E3F8002003F0E0F8522003F0DDF8002097
:104A000003F0DAF8642003F0D7F8002003F0D4F8BC
:104A10007A2003F0D1F8002003F0CEF88B2003F0C9
:104A2000CBF8002003F0C8F8992003F0C5F8002067
:104A300003F0C2F8A82003F0BFF8002003F0BCF890
:104A4000B92003F0B9F8002003F0B6F8C42003F051
:104A5000B3F8002003F0B0F8CA2003F0ADF800204E
:104A600003F0AAF8D22003F0A7F8002003F0A4F87E
:104A7000D92003F0A1F8002003F09EF8E02003F015
:104A80009BF8002003F098F8F32003F095F800203D
:104A900003F092F8E12003F095F8162003F08CF86B
:104AA000002003F089F81C2003F086F8002003F0B2
:104AB00083F8222003F080F8002003F07DF83620F0
:104AC00003F07AF8002003F077F8452003F074F83B
:104AD000002003F071F8522003F06EF8002003F07C
:104AE0006BF8642003F068F8002003F065F87A2082
:104AF00003F062F8002003F05FF88B2003F05CF80D
:104B0000002003F059F8992003F056F8002003F034
:104B100053F8A82003F050F8002003F04DF8B92016
:104B200003F04AF8002003F047F8C42003F044F8EB
:104B3000002003F041F8CA2003F03EF8002003F003
:104B40003BF8D22003F038F8002003F035F8D820E5
:104B500003F032F8002003F02FF8E02003F02CF8E7
:104B6000002003F029F8F32003F026F8002003F0DA
:104B700023F8E22003F026F8052003F01DF80020BA
:104B800003F01AF80B2003F017F8002003F014F8D4
:104B90001B2003F011F8002003F00EF8342003F07E
:104BA0000BF8002003F008F8442003F005F800207B
:104BB00003F002F84F2002F0FFFF002002F0FCFF9C
:104BC000612002F0F9FF002002F0F6FF792002F0E8
:104BD000F3FF002002F0F0FF882002F0EDFF00203C
:104BE00002F0EAFF972002F0E7FF002002F0E4FF66
:104BF000A62002F0E1FF002002F0DEFFB72002F065
:104C0000DBFF002002F0D8FFC22002F0D5FF002019
:104C100002F0D2FFC72002F0CFFF002002F0CCFF4D
:104C2000D12002F0C9FF002002F0C6FFD62002F01A
:104C3000C3FF002002F0C0FFDD2002F0BDFF002016
:104C400002F0BAFFF32002F0B7FF002002F0B4FF39
:104C5000E32002F0B7FF052002F0AEFF002002F0D3
:104C6000ABFF0A2002F0A8FF002002F0A5FF1C20E5
:104C700002F0A2FF002002F09FFF332002F09CFF11
:104C8000002002F099FF442002F096FF002002F07D
:104C900093FF502002F090FF002002F08DFF622071
:104CA00002F08AFF002002F087FF782002F084FFE4
:104CB000002002F081FF882002F07EFF002002F039
:104CC0007BFF972002F078FF002002F075FFA620FE
:104CD00002F072FF002002F06FFFB72002F06CFFBD
:104CE000002002F069FFC22002F066FF002002F0FF
:104CF00063FFC72002F060FF002002F05DFFD120BB
:104D000002F05AFF002002F057FFD52002F054FFB6
:104D1000002002F051FFDD2002F04EFF002002F0E3
:104D20004BFFF32002F048FF002002F045FFE42093
:104D300002F048FF012002F03FFF002002F03CFF9C
:104D4000012002F039FF002002F036FF022002F0BD
:104D500033FF002002F030FF2A2002F02DFF002058
:104D600002F02AFF3C2002F027FF002002F024FF7F
:104D70004B2002F021FF002002F01EFF5D2002F018
:104D80001BFF002002F018FF742002F015FF002026
:104D900002F012FF842002F00FFF002002F00CFF4F
:104DA000932002F009FF002002F006FFA22002F08B
:104DB00003FF002002F000FFB32002F0FDFE002000
:104DC00002F0FAFEBE2002F0F7FE002002F0F4FE30
:104DD000C42002F0F1FE002002F0EEFECD2002F031
:104DE000EBFE002002F0E8FED32002F0E5FE0020FA
:104DF00002F0E2FEDD2002F0DFFE002002F0DCFE29
:104E0000F32002F0D9FE002002F0D6FEE52002F0E9
:104E1000D9FE002002F0D0FE002002F0CDFE0020DE
:104E200002F0CAFE002002F0C7FE022002F0C4FE1B
:104E3000002002F0C1FE292002F0BEFE002002F098
:104E4000BBFE3C2002F0B8FE002002F0B5FE4B2075
:104E500002F0B2FE002002F0AFFE5D2002F0ACFED8
:104E6000002002F0A9FE742002F0A6FE002002F04D
:104E7000A3FE842002F0A0FE002002F09DFE9320FD
:104E800002F09AFE002002F097FEA22002F094FEAB
:104E9000002002F091FEB32002F08EFE002002F00E
:104EA0008BFEBE2002F088FE002002F085FEC420AA
:104EB00002F082FE002002F07FFECD2002F07CFE98
:104EC000002002F079FED32002F076FE002002F0EE
:104ED00073FEDC2002F070FE002002F06DFEF32075
:104EE00002F06AFE002002F067FEE62002F06AFE91
:104EF000112002F061FE002002F05EFE342002F07C
:104F00005BFE002002F058FE562002F055FE002005
:104F100002F052FE762002F04FFE002002F04CFE1E
:104F2000772002F049FE002002F046FE662002F0E3
:104F300043FE002002F040FE882002F03DFE0020EB
:104F400002F03AFE992002F037FE002002F034FE13
:104F5000BB2002F031FE002002F02EFE992002F06C
:104F60002BFE002002F028FE662002F025FE002025
:104F700002F022FE552002F01FFE002002F01CFE6F
:104F8000552002F019FE002002F016FE452002F026
:104F900013FE002002F010FE432002F00DFE002060
:104FA00002F00AFE442002F007FE002002F004FE98
:104FB000E72002F007FE322002F0FEFD002002F0A2
:104FC000FBFD552002F0F8FD002002F0F5FD7620F3
:104FD00002F0F2FD002002F0EFFD662002F0ECFD91
:104FE000002002F0E9FD672002F0E6FD002002F05B
:104FF000E3FD672002F0E0FD002002F0DDFD8720E8
:1050000002F0DAFD002002F0D7FD992002F0D4FD75
:10501000002002F0D1FDBB2002F0CEFD002002F006
:10502000CBFD992002F0C8FD002002F0C5FD7720DD
:1050300002F0C2FD002002F0BFFD442002F0BCFDE2
:10504000002002F0B9FD562002F0B6FD002002F06B
:10505000B3FD232002F0B0FD002002F0ADFD3320AF
:1050600002F0AAFD002002F0A7FD452002F0A4FDF9
:10507000002002F0A1FDE82002F0A4FD002002F0D3
:105080009BFD002002F098FD992002F095FD002084
:1050900002F092FD872002F08FFD002002F08CFDCF
:1050A000882002F089FD002002F086FD772002F0C2
:1050B00083FD002002F080FD662002F07DFD0020CF
:1050C00002F07AFD882002F077FD002002F074FDE6
:1050D000AA2002F071FD002002F06EFDBB2002F05C
:1050E0006BFD002002F068FD992002F065FD0020B4
:1050F00002F062FD662002F05FFD002002F05CFD20
:10510000552002F059FD002002F056FD552002F016
:1051100053FD002002F050FD442002F04DFD002020
:1051200002F04AFD442002F047FD002002F044FD59
:10513000552002F041FD002002F03EFDE92002F082
:1051400041FDAA2002F038FD002002F035FD0020CC
:1051500002F032FD002002F02FFD002002F032FDAF
:10516000AA2002F029FDCF2002F02CFD002002F041
:1051700023FD002002F020FD002002F01DFD002094
:1051800002F01AFD002002F017FD002002F014FDCD
:10519000002002F011FD002002F00EFD002002F0C0
:1051A0000BFD002002F008FD002002F005FD0020AC
:1051B00002F002FD002002F0FFFC002002F0FCFCE7
:1051C000002002F0F9FC002002F0F6FC002002F0C2
:1051D000F3FCF02002F0F6FC002002F0EDFC502081
:1051E00002F0EAFC002002F0E7FC002002F0E4FC00
:1051F000002002F0E1FCF32002F0E4FC002002F0C9
:10520000DBFCF92002F0DEFC062002F0D5FC1020C9
:1052100002F0D2FC292002F0CFFC002002F0CCFCEE
:105220003A2002F0CFFC552002F0C6FC112002F01B
:10523000C9FC642005F062FE292002F0C3FC352081
:1052400002F0C0FC002002F0B7FC512002F0BAFCD2
:10525000FF2002F0B1FC532002F0B4FC2C2002F03D
:10526000ABFC552002F0AEFC822002F0A5FC2C2005
:1052700002F0A8FC02F0E9B8FE48808845F210511F
:1052800088427DD155214FF4704002F0ABFCAA2139
:105290004FF2010002F0A6FC52214FF2020002F090
:1052A000A1FC08214FF2030002F09CFC01214FF207
:1052B000040002F097FC0D214FF4304002F092FC04
:1052C0000D214BF2010002F08DFC0D214BF202008A
:1052D00002F088FC34214FF4364002F083FC342184
:1052E0004BF2016002F07EFC34214BF2026002F0CE
:1052F00079FC0D214FF4314002F074FC0D214BF28A
:10530000011002F06FFC0D214BF2021002F06AFC5A
:1053100034214FF4374002F065FC34214BF2017028
:1053200002F060FC34214BF2027002F05BFC0021C1
:105330004FF4324002F056FC00214BF2012002F003
:1053400051FC00214BF2022002F04CFC24214FF4CE
:10535000384002F047FC24214BF6010002F042FCE9
:1053600024214BF6020002F03DFC01214FF43F40A6
:1053700002F038FC0F214FF4334002F033FC00E020
:10538000FDE30F214BF2013002F02CFC0F214BF218
:10539000023002F027FC34214FF4394002F022FCA5
:1053A00034214BF6011002F01DFC34214BF60210A3
:1053B00002F018FC08214FF4354002F013FC0821DC
:1053C0004BF2015002F00EFC08214BF2025002F0A9
:1053D00009FC03214FF4424002F004FC24214FF465
:1053E0003A4002F0FFFB24214BF6012002F0FAFBC9
:1053F00024214BF6022002F0F5FB00214FF43C4043
:1054000002F0F0FB78214BF6014002F0EBFB0021AB
:105410004BF6024002F0E6FB00214FF43D4002F063
:10542000E1FB78214BF6015002F0DCFB00214BF64A
:10543000025002F0D7FB00214FF43E4002F0D2FBB5
:1054400064214BF6016002F0CDFB00214FF4514086
:1054500002F0C8FB33214DF2011002F0C3FB002122
:105460004DF2021002F0BEFB34214DF2031002F0A7
:10547000B9FB00214DF2041002F0B4FB3A214DF2C9
:10548000051002F0AFFB00214DF2061002F0AAFB5E
:105490004A214DF2071002F0A5FB00214DF2081041
:1054A00002F0A0FB5C214DF2091002F09BFB0021F1
:1054B0004DF20A1002F096FB81214DF20B1002F022
:1054C00091FB00214DF20C1002F08CFBA6214DF255
:1054D0000D1002F087FB00214DF20E1002F082FB4E
:1054E000E5214DF20F1002F07DFB01214DF210106D
:1054F00002F078FB13214DF2111002F073FB012131
:105500004DF2121002F06EFB54214DF2131002F016
:1055100069FB01214DF2141002F064FB82214DF26F
:10552000151002F05FFB01214DF2161002F05AFB3C
:10553000CA214DF2171002F055FB02214DF218104E
:1055400002F050FB00214DF2191002F04BFB02213A
:105550004DF21A1002F046FB01214DF21B1002F031
:1055600041FB02214DF21C1002F03CFB34214DF2B4
:105570001D1002F037FB02214DF21E1002F032FB2B
:1055800067214DF21F1002F02DFB02214DF2201079
:1055900002F028FB84214DF2211002F023FB0221AE
:1055A0004DF2221002F01EFBA4214DF2231002F056
:1055B00019FB02214DF2241002F014FBB7214DF229
:1055C000251002F00FFB02214DF2261002F00AFB1B
:1055D000CF214DF2271002F005FB02214DF22810D9
:1055E00002F000FBDE214DF2291002F0FBFA02214D
:1055F0004DF22A1002F0F6FAF2214DF22B1002F0D1
:10560000F1FA02214DF22C1002F0ECFAFE214DF2DB
:105610002D1002F0E7FA03214DF22E1002F0E2FA0B
:1056200010214DF22F1002F0DDFA03214DF230105F
:1056300002F0D8FA33214DF2311002F0D3FA0321EF
:105640004DF2321002F0CEFA6D214DF2331002F01D
:10565000C9FA00214FF4524002F0C4FA33214DF24E
:10566000012002F0BFFA00214DF2022002F0BAFA46
:10567000342101E0AC0400204DF2032002F0B2FA24
:1056800000214DF2042002F0ADFA3A214DF205203E
:1056900002F0A8FA00214DF2062002F0A3FA4A21F6
:1056A0004DF2072002F09EFA00214DF2082002F090
:1056B00099FA5C214DF2092002F094FA00214DF292
:1056C0000A2002F08FFA81214DF20B2002F08AFAB3
:1056D00000214DF20C2002F085FAA6214DF20D209A
:1056E00002F080FA00214DF20E2002F07BFAE52153
:1056F0004DF20F2002F076FA01214DF2102002F057
:1057000071FA13214DF2112002F06CFA01214DF2D1
:10571000122002F067FA54214DF2132002F062FACF
:1057200001214DF2142002F05DFA82214DF2152084
:1057300002F058FA01214DF2162002F053FACA2164
:105740004DF2172002F04EFA02214DF2182002F01D
:1057500049FA00214DF2192002F044FA02214DF2DB
:105760001A2002F03FFA01214DF21B2002F03AFA12
:1057700002214DF21C2002F035FA34214DF21D2099
:1057800002F030FA02214DF21E2002F02BFA6721BE
:105790004DF21F2002F026FA02214DF2202002F0E5
:1057A00021FA84214DF2212002F01CFA02214DF24F
:1057B000222002F017FAA4214DF2232002F012FA5F
:1057C00002214DF2242002F00DFAB7214DF22520DE
:1057D00002F008FA02214DF2262002F003FACF214E
:1057E0004DF2272002F0FEF902214DF2282002F0AE
:1057F000F9F9DE214DF2292002F0F4F902214DF2EF
:105800002A2002F0EFF9F2214DF22B2002F0EAF902
:1058100002214DF22C2002F0E5F9FE214DF22D205F
:1058200002F0E0F903214DF22E2002F0DBF9102105
:105830004DF22F2002F0D6F903214DF2302002F074
:10584000D1F933214DF2312002F0CCF903214DF290
:10585000322002F0C7F96D214DF2332002F0C2F977
:1058600000214FF4534002F0BDF933214DF20130D5
:1058700002F0B8F900214DF2023002F0B3F9342100
:105880004DF2033002F0AEF900214DF2043002F087
:10589000A9F93A214DF2053002F0A4F900214DF2A8
:1058A000063002F09FF94A214DF2073002F09AF9D2
:1058B00000214DF2083002F095F95C214DF20930DB
:1058C00002F090F900214DF20A3002F08BF98121AB
:1058D0004DF20B3002F086F900214DF20C3002F04F
:1058E00081F9A6214DF20D3002F07CF900214DF234
:1058F0000E3002F077F9E5214DF20F3002F072F927
:1059000001214DF2103002F06DF913214DF21130EA
:1059100002F068F901214DF2123002F063F95421CE
:105920004DF2133002F05EF901214DF2143002F015
:1059300059F982214DF2153002F054F901214DF24E
:10594000163002F04FF9CA214DF2173002F04AF931
:1059500002214DF2183002F045F900214DF21930C4
:1059600002F040F902214DF21A3002F03BF9012118
:105970004DF21B3002F036F902214DF21C3002F0DC
:1059800031F934214DF21D3002F02CF902214DF293
:105990001E3002F027F967214DF21F3002F022F984
:1059A00002214DF2203002F01DF984214DF2213008
:1059B00002F018F902214DF2223002F013F9A4216D
:1059C0004DF2233002F00EF902214DF2243002F0A4
:1059D00009F9B7214DF2253002F004F902214DF208
:1059E000263002F0FFF8CF214DF2273002F0FAF80E
:1059F00002214DF2283002F0F5F8DE214DF2293077
:105A000002F0F0F802214DF22A3002F0EBF8F22118
:105A10004DF22B3002F0E6F802214DF22C3002F06C
:105A2000E1F8FE214DF22D3002F0DCF803214DF2B9
:105A30002E3002F0D7F810214DF22F3002F0D2F8BC
:105A400003214DF2303002F0CDF833214DF23130E8
:105A500002F0C8F803214DF2323002F0C3F86D2194
:105A60004DF2333002F0BEF800214FF4544002F002
:105A7000B9F833214DF2014002F0B4F800214DF2A3
:105A8000024002F0AFF834214DF2034002F0AAF8D0
:105A900000214DF2044002F0A5F83A214DF20540F4
:105AA00002F0A0F800214DF2064002F09BF84A21D6
:105AB0004DF2074002F096F800214DF2084002F046
:105AC00091F85C214DF2094002F08CF800214DF272
:105AD0000A4002F087F881214DF20B4002F082F873
