:0300000002010FEB
:10010F0078FFE4F6D8FD9000007F007E04E4F0A3B2
:0A011F00DFFCDEFA758124020164A2
:0A0FF600FFFFFFFFFFFFF65AA5AF53
:0A0393000810010203040506070824
:10028C0075E50775E669758E30E4F580F5F975F15D
:10029C00FFF590F5FA75F2FFF5A0F5FB75F3FF127B
:1002AC00036975865A7B007A007910751F007520DA
:1002BC00087F007E007D007C001201A97B007A0083
:1002CC007908751F007520087F007E007D007C007A
:0502DC0012022480CD98
:1003690043808043F98053F17F53FAC743FA184316
:09037900F22075E2BE43E24022CD
:10034800E4FDFC8FE3E5E1648060130DBD00010C62
:100358000000C3ED94C2EC940140EA7FFF22AFE3B2
:010368002272
:10038200C2877F051203487FFF120348D287EF130B
:010392002248
:0A039E00C2877F06120348D28722AF
:0A03A800C2877F04120348D28722A7
:100316008E218F2212038240FB12039EC2877F200A
:10032600120348E522AE217810CEC313CE13D8F9B6
:10033600FF120348E521FF120348AF22120348D2F9
:0203460087220C
:100224008F1B8E1A8D198C188B1C8A1D891E120324
:100234008240FBC2877F03120348AF1BAE1AAD197D
:10024400AC1878101200FC120348AF1BAE1AAD199B
:10025400AC1878081200FC120348AF1B120348E5DF
:10026400201520AE1F7002151F4E60197FFF120368
:1002740048AB1C051EE51EAA1D7002051D14F9EFEE
:0802840012001C80DAD287226F
:0E01A9008F1B8E1A8D198C188B1C8A1D891EB7
:1001B700E4FB7A10F9F812006A1203161203824060
:1001C700FB12039EC2877F02120348AF1BAE1AAD14
:1001D70019AC1878101200FC120348AF1BAE1AAD09
:1001E70019AC1878081200FC120348AF1B801FE5F2
:1001F700201520AE1F7002151F4E6017AB1C051E81
:10020700E51EAA1D7002051D14F9120003FF120353
:0D0217004880DC12038240FBD2870203A85E
:1002E10012038240FBC2877F90120348E4FF12038E
:1002F10048E4FF120348E4FF120348E4F523F52420
:100301007FFF120348EFFEEE42237FFF120348EF07
:040311004224D28729
:0103150022C5
:1001290002028CE493A3F8E493A34003F68001F25E
:1001390008DFF48029E493A3F85407240CC8C333D7
:10014900C4540F4420C8834004F456800146F6DFA6
:10015900E4800B0102040810204080900393E47EA0
:10016900019360BCA3FF543F30E509541FFEE4939B
:10017900A360010ECF54C025E060A840B8E493A362
:10018900FAE493A3F8E493A3C8C582C8CAC583CA8D
:10019900F0A3C8C582C8CAC583CADFE9DEE780BE45
:01039D00005F
:10000300BB010689828A83E0225002E722BBFE02FB
:09001300E32289828A83E493222E
:10001C00BB010689828A83F0225002F722BBFE01C3
:02002C00F322BD
:10002E0075F008758200EF2FFFEE33FECD33CDCC89
:10003E0033CCC58233C5829BED9AEC99E58298400C
:10004E000CF582EE9BFEED9AFDEC99FC0FD5F0D6E9
:10005E00E4CEFBE4CDFAE4CCF9A88222B800C1B913
:10006E000059BA002DEC8BF084CFCECDFCE5F0CB51
:10007E00F97818EF2FFFEE33FEED33FDEC33FCEB8A
:10008E0033FB10D703994004EB99FB0FD8E5E4F945
:10009E00FA227818EF2FFFEE33FEED33FDEC33FC32
:1000AE00C933C910D7059BE99A4007EC9BFCE99A26
:1000BE00F90FD8E0E4C9FAE4CCFB2275F010EF2F6B
:1000CE00FFEE33FEED33FDCC33CCC833C810D7076B
:1000DE009BEC9AE899400AED9BFDEC9AFCE899F8A6
:0E00EE000FD5F0DAE4CDFBE4CCFAE4C8F92239
:1000FC00E8600FECC313FCED13FDEE13FEEF13FFE2
:03010C00D8F12205
:00000001FF
